{
	"contracts/Token.sol": {
		"RuthenToken": {
			"abi": [
				{
					"inputs": [
						{
							"internalType": "string",
							"name": "_name",
							"type": "string"
						},
						{
							"internalType": "string",
							"name": "_symbol",
							"type": "string"
						},
						{
							"internalType": "uint256",
							"name": "initialSupply",
							"type": "uint256"
						},
						{
							"internalType": "uint8",
							"name": "_decimals",
							"type": "uint8"
						},
						{
							"internalType": "address",
							"name": "initialOwner",
							"type": "address"
						}
					],
					"stateMutability": "nonpayable",
					"type": "constructor"
				},
				{
					"inputs": [
						{
							"internalType": "address",
							"name": "owner",
							"type": "address"
						}
					],
					"name": "OwnableInvalidOwner",
					"type": "error"
				},
				{
					"inputs": [
						{
							"internalType": "address",
							"name": "account",
							"type": "address"
						}
					],
					"name": "OwnableUnauthorizedAccount",
					"type": "error"
				},
				{
					"anonymous": false,
					"inputs": [
						{
							"indexed": true,
							"internalType": "address",
							"name": "owner",
							"type": "address"
						},
						{
							"indexed": true,
							"internalType": "address",
							"name": "spender",
							"type": "address"
						},
						{
							"indexed": false,
							"internalType": "uint256",
							"name": "value",
							"type": "uint256"
						}
					],
					"name": "Approval",
					"type": "event"
				},
				{
					"anonymous": false,
					"inputs": [
						{
							"indexed": false,
							"internalType": "uint256",
							"name": "value",
							"type": "uint256"
						}
					],
					"name": "Issue",
					"type": "event"
				},
				{
					"anonymous": false,
					"inputs": [
						{
							"indexed": true,
							"internalType": "address",
							"name": "previousOwner",
							"type": "address"
						},
						{
							"indexed": true,
							"internalType": "address",
							"name": "newOwner",
							"type": "address"
						}
					],
					"name": "OwnershipTransferStarted",
					"type": "event"
				},
				{
					"anonymous": false,
					"inputs": [
						{
							"indexed": true,
							"internalType": "address",
							"name": "previousOwner",
							"type": "address"
						},
						{
							"indexed": true,
							"internalType": "address",
							"name": "newOwner",
							"type": "address"
						}
					],
					"name": "OwnershipTransferred",
					"type": "event"
				},
				{
					"anonymous": false,
					"inputs": [
						{
							"indexed": false,
							"internalType": "uint256",
							"name": "value",
							"type": "uint256"
						}
					],
					"name": "Redeem",
					"type": "event"
				},
				{
					"anonymous": false,
					"inputs": [
						{
							"indexed": true,
							"internalType": "address",
							"name": "from",
							"type": "address"
						},
						{
							"indexed": true,
							"internalType": "address",
							"name": "to",
							"type": "address"
						},
						{
							"indexed": false,
							"internalType": "uint256",
							"name": "value",
							"type": "uint256"
						}
					],
					"name": "Transfer",
					"type": "event"
				},
				{
					"anonymous": false,
					"inputs": [
						{
							"indexed": true,
							"internalType": "address",
							"name": "upgradedContract",
							"type": "address"
						}
					],
					"name": "Upgraded",
					"type": "event"
				},
				{
					"stateMutability": "payable",
					"type": "fallback"
				},
				{
					"inputs": [],
					"name": "VERSION",
					"outputs": [
						{
							"internalType": "string",
							"name": "",
							"type": "string"
						}
					],
					"stateMutability": "view",
					"type": "function"
				},
				{
					"inputs": [],
					"name": "acceptOwnership",
					"outputs": [],
					"stateMutability": "nonpayable",
					"type": "function"
				},
				{
					"inputs": [
						{
							"internalType": "address",
							"name": "owner",
							"type": "address"
						},
						{
							"internalType": "address",
							"name": "spender",
							"type": "address"
						}
					],
					"name": "allowance",
					"outputs": [
						{
							"internalType": "uint256",
							"name": "",
							"type": "uint256"
						}
					],
					"stateMutability": "view",
					"type": "function"
				},
				{
					"inputs": [
						{
							"internalType": "address",
							"name": "spender",
							"type": "address"
						},
						{
							"internalType": "uint256",
							"name": "value",
							"type": "uint256"
						}
					],
					"name": "approve",
					"outputs": [],
					"stateMutability": "nonpayable",
					"type": "function"
				},
				{
					"inputs": [
						{
							"internalType": "address",
							"name": "account",
							"type": "address"
						}
					],
					"name": "balanceOf",
					"outputs": [
						{
							"internalType": "uint256",
							"name": "",
							"type": "uint256"
						}
					],
					"stateMutability": "view",
					"type": "function"
				},
				{
					"inputs": [],
					"name": "decimals",
					"outputs": [
						{
							"internalType": "uint8",
							"name": "",
							"type": "uint8"
						}
					],
					"stateMutability": "view",
					"type": "function"
				},
				{
					"inputs": [],
					"name": "deprecated",
					"outputs": [
						{
							"internalType": "bool",
							"name": "",
							"type": "bool"
						}
					],
					"stateMutability": "view",
					"type": "function"
				},
				{
					"inputs": [
						{
							"internalType": "address",
							"name": "account",
							"type": "address"
						},
						{
							"internalType": "uint256",
							"name": "value",
							"type": "uint256"
						}
					],
					"name": "issue",
					"outputs": [],
					"stateMutability": "nonpayable",
					"type": "function"
				},
				{
					"inputs": [],
					"name": "name",
					"outputs": [
						{
							"internalType": "string",
							"name": "",
							"type": "string"
						}
					],
					"stateMutability": "view",
					"type": "function"
				},
				{
					"inputs": [],
					"name": "owner",
					"outputs": [
						{
							"internalType": "address",
							"name": "",
							"type": "address"
						}
					],
					"stateMutability": "view",
					"type": "function"
				},
				{
					"inputs": [],
					"name": "pendingOwner",
					"outputs": [
						{
							"internalType": "address",
							"name": "",
							"type": "address"
						}
					],
					"stateMutability": "view",
					"type": "function"
				},
				{
					"inputs": [
						{
							"internalType": "uint256",
							"name": "value",
							"type": "uint256"
						}
					],
					"name": "redeem",
					"outputs": [],
					"stateMutability": "nonpayable",
					"type": "function"
				},
				{
					"inputs": [],
					"name": "renounceOwnership",
					"outputs": [],
					"stateMutability": "nonpayable",
					"type": "function"
				},
				{
					"inputs": [],
					"name": "symbol",
					"outputs": [
						{
							"internalType": "string",
							"name": "",
							"type": "string"
						}
					],
					"stateMutability": "view",
					"type": "function"
				},
				{
					"inputs": [],
					"name": "totalSupply",
					"outputs": [
						{
							"internalType": "uint256",
							"name": "",
							"type": "uint256"
						}
					],
					"stateMutability": "view",
					"type": "function"
				},
				{
					"inputs": [
						{
							"internalType": "address",
							"name": "to",
							"type": "address"
						},
						{
							"internalType": "uint256",
							"name": "value",
							"type": "uint256"
						}
					],
					"name": "transfer",
					"outputs": [],
					"stateMutability": "nonpayable",
					"type": "function"
				},
				{
					"inputs": [
						{
							"internalType": "address",
							"name": "from",
							"type": "address"
						},
						{
							"internalType": "address",
							"name": "to",
							"type": "address"
						},
						{
							"internalType": "uint256",
							"name": "value",
							"type": "uint256"
						}
					],
					"name": "transferFrom",
					"outputs": [],
					"stateMutability": "nonpayable",
					"type": "function"
				},
				{
					"inputs": [
						{
							"internalType": "address",
							"name": "newOwner",
							"type": "address"
						}
					],
					"name": "transferOwnership",
					"outputs": [],
					"stateMutability": "nonpayable",
					"type": "function"
				},
				{
					"inputs": [
						{
							"internalType": "address",
							"name": "upgradedContract",
							"type": "address"
						}
					],
					"name": "upgradeContract",
					"outputs": [],
					"stateMutability": "nonpayable",
					"type": "function"
				},
				{
					"inputs": [],
					"name": "upgradedToken",
					"outputs": [
						{
							"internalType": "address",
							"name": "",
							"type": "address"
						}
					],
					"stateMutability": "view",
					"type": "function"
				},
				{
					"stateMutability": "payable",
					"type": "receive"
				}
			],
			"devdoc": {
				"errors": {
					"OwnableInvalidOwner(address)": [
						{
							"details": "The owner is not a valid owner account. (eg. `address(0)`)"
						}
					],
					"OwnableUnauthorizedAccount(address)": [
						{
							"details": "The caller account is not authorized to perform an operation."
						}
					]
				},
				"kind": "dev",
				"methods": {
					"acceptOwnership()": {
						"details": "The new owner accepts the ownership transfer."
					},
					"owner()": {
						"details": "Returns the address of the current owner."
					},
					"pendingOwner()": {
						"details": "Returns the address of the pending owner."
					},
					"renounceOwnership()": {
						"details": "Leaves the contract without owner. It will not be possible to call `onlyOwner` functions. Can only be called by the current owner. NOTE: Renouncing ownership will leave the contract without an owner, thereby disabling any functionality that is only available to the owner."
					},
					"transferOwnership(address)": {
						"details": "Starts the ownership transfer of the contract to a new account. Replaces the pending transfer if there is one. Can only be called by the current owner."
					}
				},
				"version": 1
			},
			"evm": {
				"assembly": "    /* \"contracts/Token.sol\":1862:4282  contract RuthenToken is StandartToken, UpgradableProxy, Ownable2Step {... */\n  mstore(0x40, 0x80)\n    /* \"contracts/Token.sol\":2158:2466  constructor(... */\n  callvalue\n  dup1\n  iszero\n  tag_1\n  jumpi\n  0x00\n  dup1\n  revert\ntag_1:\n  pop\n  mload(0x40)\n  sub(codesize, bytecodeSize)\n  dup1\n  bytecodeSize\n  dup4\n  codecopy\n  dup2\n  dup2\n  add\n  0x40\n  mstore\n  dup2\n  add\n  swap1\n  tag_2\n  swap2\n  swap1\n  tag_3\n  jump\t// in\ntag_2:\n    /* \"contracts/Token.sol\":2330:2342  initialOwner */\n  dup1\n    /* \"@openzeppelin/contracts/access/Ownable.sol\":1297:1298  0 */\n  0x00\n    /* \"@openzeppelin/contracts/access/Ownable.sol\":1273:1299  initialOwner == address(0) */\n  0xffffffffffffffffffffffffffffffffffffffff\n  and\n    /* \"@openzeppelin/contracts/access/Ownable.sol\":1273:1285  initialOwner */\n  dup2\n    /* \"@openzeppelin/contracts/access/Ownable.sol\":1273:1299  initialOwner == address(0) */\n  0xffffffffffffffffffffffffffffffffffffffff\n  and\n  sub\n    /* \"@openzeppelin/contracts/access/Ownable.sol\":1269:1364  if (initialOwner == address(0)) {... */\n  tag_7\n  jumpi\n    /* \"@openzeppelin/contracts/access/Ownable.sol\":1350:1351  0 */\n  0x00\n    /* \"@openzeppelin/contracts/access/Ownable.sol\":1322:1353  OwnableInvalidOwner(address(0)) */\n  mload(0x40)\n  0x1e4fbdf700000000000000000000000000000000000000000000000000000000\n  dup2\n  mstore\n  0x04\n  add\n  tag_8\n  swap2\n  swap1\n  tag_9\n  jump\t// in\ntag_8:\n  mload(0x40)\n  dup1\n  swap2\n  sub\n  swap1\n  revert\n    /* \"@openzeppelin/contracts/access/Ownable.sol\":1269:1364  if (initialOwner == address(0)) {... */\ntag_7:\n    /* \"@openzeppelin/contracts/access/Ownable.sol\":1373:1405  _transferOwnership(initialOwner) */\n  tag_10\n    /* \"@openzeppelin/contracts/access/Ownable.sol\":1392:1404  initialOwner */\n  dup2\n    /* \"@openzeppelin/contracts/access/Ownable.sol\":1373:1391  _transferOwnership */\n  shl(0x20, tag_11)\n    /* \"@openzeppelin/contracts/access/Ownable.sol\":1373:1405  _transferOwnership(initialOwner) */\n  0x20\n  shr\n  jump\t// in\ntag_10:\n    /* \"@openzeppelin/contracts/access/Ownable.sol\":1225:1412  constructor(address initialOwner) {... */\n  pop\n    /* \"contracts/Token.sol\":2361:2366  _name */\n  dup5\n    /* \"contracts/Token.sol\":2354:2358  name */\n  0x05\n    /* \"contracts/Token.sol\":2354:2366  name = _name */\n  swap1\n  dup2\n  tag_13\n  swap2\n  swap1\n  tag_14\n  jump\t// in\ntag_13:\n  pop\n    /* \"contracts/Token.sol\":2385:2392  _symbol */\n  dup4\n    /* \"contracts/Token.sol\":2376:2382  symbol */\n  0x06\n    /* \"contracts/Token.sol\":2376:2392  symbol = _symbol */\n  swap1\n  dup2\n  tag_15\n  swap2\n  swap1\n  tag_14\n  jump\t// in\ntag_15:\n  pop\n    /* \"contracts/Token.sol\":2416:2429  initialSupply */\n  dup3\n    /* \"contracts/Token.sol\":2402:2413  totalSupply */\n  0x07\n    /* \"contracts/Token.sol\":2402:2429  totalSupply = initialSupply */\n  dup2\n  swap1\n  sstore\n  pop\n    /* \"contracts/Token.sol\":2450:2459  _decimals */\n  dup2\n    /* \"contracts/Token.sol\":2439:2447  decimals */\n  0x08\n  0x00\n    /* \"contracts/Token.sol\":2439:2459  decimals = _decimals */\n  0x0100\n  exp\n  dup2\n  sload\n  dup2\n  0xff\n  mul\n  not\n  and\n  swap1\n  dup4\n  0xff\n  and\n  mul\n  or\n  swap1\n  sstore\n  pop\n    /* \"contracts/Token.sol\":2158:2466  constructor(... */\n  pop\n  pop\n  pop\n  pop\n  pop\n    /* \"contracts/Token.sol\":1862:4282  contract RuthenToken is StandartToken, UpgradableProxy, Ownable2Step {... */\n  jump(tag_16)\n    /* \"@openzeppelin/contracts/access/Ownable2Step.sol\":1528:1681  function _transferOwnership(address newOwner) internal virtual override {... */\ntag_11:\n    /* \"@openzeppelin/contracts/access/Ownable2Step.sol\":1617:1630  _pendingOwner */\n  0x04\n  0x00\n    /* \"@openzeppelin/contracts/access/Ownable2Step.sol\":1610:1630  delete _pendingOwner */\n  0x0100\n  exp\n  dup2\n  sload\n  swap1\n  0xffffffffffffffffffffffffffffffffffffffff\n  mul\n  not\n  and\n  swap1\n  sstore\n    /* \"@openzeppelin/contracts/access/Ownable2Step.sol\":1640:1674  super._transferOwnership(newOwner) */\n  tag_18\n    /* \"@openzeppelin/contracts/access/Ownable2Step.sol\":1665:1673  newOwner */\n  dup2\n    /* \"@openzeppelin/contracts/access/Ownable2Step.sol\":1640:1664  super._transferOwnership */\n  shl(0x20, tag_19)\n    /* \"@openzeppelin/contracts/access/Ownable2Step.sol\":1640:1674  super._transferOwnership(newOwner) */\n  0x20\n  shr\n  jump\t// in\ntag_18:\n    /* \"@openzeppelin/contracts/access/Ownable2Step.sol\":1528:1681  function _transferOwnership(address newOwner) internal virtual override {... */\n  pop\n  jump\t// out\n    /* \"@openzeppelin/contracts/access/Ownable.sol\":2912:3099  function _transferOwnership(address newOwner) internal virtual {... */\ntag_19:\n    /* \"@openzeppelin/contracts/access/Ownable.sol\":2985:3001  address oldOwner */\n  0x00\n    /* \"@openzeppelin/contracts/access/Ownable.sol\":3004:3010  _owner */\n  0x03\n  0x00\n  swap1\n  sload\n  swap1\n  0x0100\n  exp\n  swap1\n  div\n  0xffffffffffffffffffffffffffffffffffffffff\n  and\n    /* \"@openzeppelin/contracts/access/Ownable.sol\":2985:3010  address oldOwner = _owner */\n  swap1\n  pop\n    /* \"@openzeppelin/contracts/access/Ownable.sol\":3029:3037  newOwner */\n  dup2\n    /* \"@openzeppelin/contracts/access/Ownable.sol\":3020:3026  _owner */\n  0x03\n  0x00\n    /* \"@openzeppelin/contracts/access/Ownable.sol\":3020:3037  _owner = newOwner */\n  0x0100\n  exp\n  dup2\n  sload\n  dup2\n  0xffffffffffffffffffffffffffffffffffffffff\n  mul\n  not\n  and\n  swap1\n  dup4\n  0xffffffffffffffffffffffffffffffffffffffff\n  and\n  mul\n  or\n  swap1\n  sstore\n  pop\n    /* \"@openzeppelin/contracts/access/Ownable.sol\":3083:3091  newOwner */\n  dup2\n    /* \"@openzeppelin/contracts/access/Ownable.sol\":3052:3092  OwnershipTransferred(oldOwner, newOwner) */\n  0xffffffffffffffffffffffffffffffffffffffff\n  and\n    /* \"@openzeppelin/contracts/access/Ownable.sol\":3073:3081  oldOwner */\n  dup2\n    /* \"@openzeppelin/contracts/access/Ownable.sol\":3052:3092  OwnershipTransferred(oldOwner, newOwner) */\n  0xffffffffffffffffffffffffffffffffffffffff\n  and\n  0x8be0079c531659141344cd1fd0a4f28419497f9722a3daafe3b4186f6b6457e0\n  mload(0x40)\n  mload(0x40)\n  dup1\n  swap2\n  sub\n  swap1\n  log3\n    /* \"@openzeppelin/contracts/access/Ownable.sol\":2975:3099  {... */\n  pop\n    /* \"@openzeppelin/contracts/access/Ownable.sol\":2912:3099  function _transferOwnership(address newOwner) internal virtual {... */\n  pop\n  jump\t// out\n    /* \"#utility.yul\":7:82   */\ntag_21:\n    /* \"#utility.yul\":40:46   */\n  0x00\n    /* \"#utility.yul\":73:75   */\n  0x40\n    /* \"#utility.yul\":67:76   */\n  mload\n    /* \"#utility.yul\":57:76   */\n  swap1\n  pop\n    /* \"#utility.yul\":7:82   */\n  swap1\n  jump\t// out\n    /* \"#utility.yul\":88:205   */\ntag_22:\n    /* \"#utility.yul\":197:198   */\n  0x00\n    /* \"#utility.yul\":194:195   */\n  dup1\n    /* \"#utility.yul\":187:199   */\n  revert\n    /* \"#utility.yul\":211:328   */\ntag_23:\n    /* \"#utility.yul\":320:321   */\n  0x00\n    /* \"#utility.yul\":317:318   */\n  dup1\n    /* \"#utility.yul\":310:322   */\n  revert\n    /* \"#utility.yul\":334:451   */\ntag_24:\n    /* \"#utility.yul\":443:444   */\n  0x00\n    /* \"#utility.yul\":440:441   */\n  dup1\n    /* \"#utility.yul\":433:445   */\n  revert\n    /* \"#utility.yul\":457:574   */\ntag_25:\n    /* \"#utility.yul\":566:567   */\n  0x00\n    /* \"#utility.yul\":563:564   */\n  dup1\n    /* \"#utility.yul\":556:568   */\n  revert\n    /* \"#utility.yul\":580:682   */\ntag_26:\n    /* \"#utility.yul\":621:627   */\n  0x00\n    /* \"#utility.yul\":672:674   */\n  0x1f\n    /* \"#utility.yul\":668:675   */\n  not\n    /* \"#utility.yul\":663:665   */\n  0x1f\n    /* \"#utility.yul\":656:661   */\n  dup4\n    /* \"#utility.yul\":652:666   */\n  add\n    /* \"#utility.yul\":648:676   */\n  and\n    /* \"#utility.yul\":638:676   */\n  swap1\n  pop\n    /* \"#utility.yul\":580:682   */\n  swap2\n  swap1\n  pop\n  jump\t// out\n    /* \"#utility.yul\":688:868   */\ntag_27:\n    /* \"#utility.yul\":736:813   */\n  0x4e487b7100000000000000000000000000000000000000000000000000000000\n    /* \"#utility.yul\":733:734   */\n  0x00\n    /* \"#utility.yul\":726:814   */\n  mstore\n    /* \"#utility.yul\":833:837   */\n  0x41\n    /* \"#utility.yul\":830:831   */\n  0x04\n    /* \"#utility.yul\":823:838   */\n  mstore\n    /* \"#utility.yul\":857:861   */\n  0x24\n    /* \"#utility.yul\":854:855   */\n  0x00\n    /* \"#utility.yul\":847:862   */\n  revert\n    /* \"#utility.yul\":874:1155   */\ntag_28:\n    /* \"#utility.yul\":957:984   */\n  tag_72\n    /* \"#utility.yul\":979:983   */\n  dup3\n    /* \"#utility.yul\":957:984   */\n  tag_26\n  jump\t// in\ntag_72:\n    /* \"#utility.yul\":949:955   */\n  dup2\n    /* \"#utility.yul\":945:985   */\n  add\n    /* \"#utility.yul\":1087:1093   */\n  dup2\n    /* \"#utility.yul\":1075:1085   */\n  dup2\n    /* \"#utility.yul\":1072:1094   */\n  lt\n    /* \"#utility.yul\":1051:1069   */\n  0xffffffffffffffff\n    /* \"#utility.yul\":1039:1049   */\n  dup3\n    /* \"#utility.yul\":1036:1070   */\n  gt\n    /* \"#utility.yul\":1033:1095   */\n  or\n    /* \"#utility.yul\":1030:1118   */\n  iszero\n  tag_73\n  jumpi\n    /* \"#utility.yul\":1098:1116   */\n  tag_74\n  tag_27\n  jump\t// in\ntag_74:\n    /* \"#utility.yul\":1030:1118   */\ntag_73:\n    /* \"#utility.yul\":1138:1148   */\n  dup1\n    /* \"#utility.yul\":1134:1136   */\n  0x40\n    /* \"#utility.yul\":1127:1149   */\n  mstore\n    /* \"#utility.yul\":917:1155   */\n  pop\n    /* \"#utility.yul\":874:1155   */\n  pop\n  pop\n  jump\t// out\n    /* \"#utility.yul\":1161:1290   */\ntag_29:\n    /* \"#utility.yul\":1195:1201   */\n  0x00\n    /* \"#utility.yul\":1222:1242   */\n  tag_76\n  tag_21\n  jump\t// in\ntag_76:\n    /* \"#utility.yul\":1212:1242   */\n  swap1\n  pop\n    /* \"#utility.yul\":1251:1284   */\n  tag_77\n    /* \"#utility.yul\":1279:1283   */\n  dup3\n    /* \"#utility.yul\":1271:1277   */\n  dup3\n    /* \"#utility.yul\":1251:1284   */\n  tag_28\n  jump\t// in\ntag_77:\n    /* \"#utility.yul\":1161:1290   */\n  swap2\n  swap1\n  pop\n  jump\t// out\n    /* \"#utility.yul\":1296:1604   */\ntag_30:\n    /* \"#utility.yul\":1358:1362   */\n  0x00\n    /* \"#utility.yul\":1448:1466   */\n  0xffffffffffffffff\n    /* \"#utility.yul\":1440:1446   */\n  dup3\n    /* \"#utility.yul\":1437:1467   */\n  gt\n    /* \"#utility.yul\":1434:1490   */\n  iszero\n  tag_79\n  jumpi\n    /* \"#utility.yul\":1470:1488   */\n  tag_80\n  tag_27\n  jump\t// in\ntag_80:\n    /* \"#utility.yul\":1434:1490   */\ntag_79:\n    /* \"#utility.yul\":1508:1537   */\n  tag_81\n    /* \"#utility.yul\":1530:1536   */\n  dup3\n    /* \"#utility.yul\":1508:1537   */\n  tag_26\n  jump\t// in\ntag_81:\n    /* \"#utility.yul\":1500:1537   */\n  swap1\n  pop\n    /* \"#utility.yul\":1592:1596   */\n  0x20\n    /* \"#utility.yul\":1586:1590   */\n  dup2\n    /* \"#utility.yul\":1582:1597   */\n  add\n    /* \"#utility.yul\":1574:1597   */\n  swap1\n  pop\n    /* \"#utility.yul\":1296:1604   */\n  swap2\n  swap1\n  pop\n  jump\t// out\n    /* \"#utility.yul\":1610:1856   */\ntag_31:\n    /* \"#utility.yul\":1691:1692   */\n  0x00\n    /* \"#utility.yul\":1701:1814   */\ntag_83:\n    /* \"#utility.yul\":1715:1721   */\n  dup4\n    /* \"#utility.yul\":1712:1713   */\n  dup2\n    /* \"#utility.yul\":1709:1722   */\n  lt\n    /* \"#utility.yul\":1701:1814   */\n  iszero\n  tag_85\n  jumpi\n    /* \"#utility.yul\":1800:1801   */\n  dup1\n    /* \"#utility.yul\":1795:1798   */\n  dup3\n    /* \"#utility.yul\":1791:1802   */\n  add\n    /* \"#utility.yul\":1785:1803   */\n  mload\n    /* \"#utility.yul\":1781:1782   */\n  dup2\n    /* \"#utility.yul\":1776:1779   */\n  dup5\n    /* \"#utility.yul\":1772:1783   */\n  add\n    /* \"#utility.yul\":1765:1804   */\n  mstore\n    /* \"#utility.yul\":1737:1739   */\n  0x20\n    /* \"#utility.yul\":1734:1735   */\n  dup2\n    /* \"#utility.yul\":1730:1740   */\n  add\n    /* \"#utility.yul\":1725:1740   */\n  swap1\n  pop\n    /* \"#utility.yul\":1701:1814   */\n  jump(tag_83)\ntag_85:\n    /* \"#utility.yul\":1848:1849   */\n  0x00\n    /* \"#utility.yul\":1839:1845   */\n  dup5\n    /* \"#utility.yul\":1834:1837   */\n  dup5\n    /* \"#utility.yul\":1830:1846   */\n  add\n    /* \"#utility.yul\":1823:1850   */\n  mstore\n    /* \"#utility.yul\":1672:1856   */\n  pop\n    /* \"#utility.yul\":1610:1856   */\n  pop\n  pop\n  pop\n  jump\t// out\n    /* \"#utility.yul\":1862:2296   */\ntag_32:\n    /* \"#utility.yul\":1951:1956   */\n  0x00\n    /* \"#utility.yul\":1976:2042   */\n  tag_87\n    /* \"#utility.yul\":1992:2041   */\n  tag_88\n    /* \"#utility.yul\":2034:2040   */\n  dup5\n    /* \"#utility.yul\":1992:2041   */\n  tag_30\n  jump\t// in\ntag_88:\n    /* \"#utility.yul\":1976:2042   */\n  tag_29\n  jump\t// in\ntag_87:\n    /* \"#utility.yul\":1967:2042   */\n  swap1\n  pop\n    /* \"#utility.yul\":2065:2071   */\n  dup3\n    /* \"#utility.yul\":2058:2063   */\n  dup2\n    /* \"#utility.yul\":2051:2072   */\n  mstore\n    /* \"#utility.yul\":2103:2107   */\n  0x20\n    /* \"#utility.yul\":2096:2101   */\n  dup2\n    /* \"#utility.yul\":2092:2108   */\n  add\n    /* \"#utility.yul\":2141:2144   */\n  dup5\n    /* \"#utility.yul\":2132:2138   */\n  dup5\n    /* \"#utility.yul\":2127:2130   */\n  dup5\n    /* \"#utility.yul\":2123:2139   */\n  add\n    /* \"#utility.yul\":2120:2145   */\n  gt\n    /* \"#utility.yul\":2117:2229   */\n  iszero\n  tag_89\n  jumpi\n    /* \"#utility.yul\":2148:2227   */\n  tag_90\n  tag_25\n  jump\t// in\ntag_90:\n    /* \"#utility.yul\":2117:2229   */\ntag_89:\n    /* \"#utility.yul\":2238:2290   */\n  tag_91\n    /* \"#utility.yul\":2283:2289   */\n  dup5\n    /* \"#utility.yul\":2278:2281   */\n  dup3\n    /* \"#utility.yul\":2273:2276   */\n  dup6\n    /* \"#utility.yul\":2238:2290   */\n  tag_31\n  jump\t// in\ntag_91:\n    /* \"#utility.yul\":1957:2296   */\n  pop\n    /* \"#utility.yul\":1862:2296   */\n  swap4\n  swap3\n  pop\n  pop\n  pop\n  jump\t// out\n    /* \"#utility.yul\":2316:2671   */\ntag_33:\n    /* \"#utility.yul\":2383:2388   */\n  0x00\n    /* \"#utility.yul\":2432:2435   */\n  dup3\n    /* \"#utility.yul\":2425:2429   */\n  0x1f\n    /* \"#utility.yul\":2417:2423   */\n  dup4\n    /* \"#utility.yul\":2413:2430   */\n  add\n    /* \"#utility.yul\":2409:2436   */\n  slt\n    /* \"#utility.yul\":2399:2521   */\n  tag_93\n  jumpi\n    /* \"#utility.yul\":2440:2519   */\n  tag_94\n  tag_24\n  jump\t// in\ntag_94:\n    /* \"#utility.yul\":2399:2521   */\ntag_93:\n    /* \"#utility.yul\":2550:2556   */\n  dup2\n    /* \"#utility.yul\":2544:2557   */\n  mload\n    /* \"#utility.yul\":2575:2665   */\n  tag_95\n    /* \"#utility.yul\":2661:2664   */\n  dup5\n    /* \"#utility.yul\":2653:2659   */\n  dup3\n    /* \"#utility.yul\":2646:2650   */\n  0x20\n    /* \"#utility.yul\":2638:2644   */\n  dup7\n    /* \"#utility.yul\":2634:2651   */\n  add\n    /* \"#utility.yul\":2575:2665   */\n  tag_32\n  jump\t// in\ntag_95:\n    /* \"#utility.yul\":2566:2665   */\n  swap2\n  pop\n    /* \"#utility.yul\":2389:2671   */\n  pop\n    /* \"#utility.yul\":2316:2671   */\n  swap3\n  swap2\n  pop\n  pop\n  jump\t// out\n    /* \"#utility.yul\":2677:2754   */\ntag_34:\n    /* \"#utility.yul\":2714:2721   */\n  0x00\n    /* \"#utility.yul\":2743:2748   */\n  dup2\n    /* \"#utility.yul\":2732:2748   */\n  swap1\n  pop\n    /* \"#utility.yul\":2677:2754   */\n  swap2\n  swap1\n  pop\n  jump\t// out\n    /* \"#utility.yul\":2760:2882   */\ntag_35:\n    /* \"#utility.yul\":2833:2857   */\n  tag_98\n    /* \"#utility.yul\":2851:2856   */\n  dup2\n    /* \"#utility.yul\":2833:2857   */\n  tag_34\n  jump\t// in\ntag_98:\n    /* \"#utility.yul\":2826:2831   */\n  dup2\n    /* \"#utility.yul\":2823:2858   */\n  eq\n    /* \"#utility.yul\":2813:2876   */\n  tag_99\n  jumpi\n    /* \"#utility.yul\":2872:2873   */\n  0x00\n    /* \"#utility.yul\":2869:2870   */\n  dup1\n    /* \"#utility.yul\":2862:2874   */\n  revert\n    /* \"#utility.yul\":2813:2876   */\ntag_99:\n    /* \"#utility.yul\":2760:2882   */\n  pop\n  jump\t// out\n    /* \"#utility.yul\":2888:3031   */\ntag_36:\n    /* \"#utility.yul\":2945:2950   */\n  0x00\n    /* \"#utility.yul\":2976:2982   */\n  dup2\n    /* \"#utility.yul\":2970:2983   */\n  mload\n    /* \"#utility.yul\":2961:2983   */\n  swap1\n  pop\n    /* \"#utility.yul\":2992:3025   */\n  tag_101\n    /* \"#utility.yul\":3019:3024   */\n  dup2\n    /* \"#utility.yul\":2992:3025   */\n  tag_35\n  jump\t// in\ntag_101:\n    /* \"#utility.yul\":2888:3031   */\n  swap3\n  swap2\n  pop\n  pop\n  jump\t// out\n    /* \"#utility.yul\":3037:3123   */\ntag_37:\n    /* \"#utility.yul\":3072:3079   */\n  0x00\n    /* \"#utility.yul\":3112:3116   */\n  0xff\n    /* \"#utility.yul\":3105:3110   */\n  dup3\n    /* \"#utility.yul\":3101:3117   */\n  and\n    /* \"#utility.yul\":3090:3117   */\n  swap1\n  pop\n    /* \"#utility.yul\":3037:3123   */\n  swap2\n  swap1\n  pop\n  jump\t// out\n    /* \"#utility.yul\":3129:3247   */\ntag_38:\n    /* \"#utility.yul\":3200:3222   */\n  tag_104\n    /* \"#utility.yul\":3216:3221   */\n  dup2\n    /* \"#utility.yul\":3200:3222   */\n  tag_37\n  jump\t// in\ntag_104:\n    /* \"#utility.yul\":3193:3198   */\n  dup2\n    /* \"#utility.yul\":3190:3223   */\n  eq\n    /* \"#utility.yul\":3180:3241   */\n  tag_105\n  jumpi\n    /* \"#utility.yul\":3237:3238   */\n  0x00\n    /* \"#utility.yul\":3234:3235   */\n  dup1\n    /* \"#utility.yul\":3227:3239   */\n  revert\n    /* \"#utility.yul\":3180:3241   */\ntag_105:\n    /* \"#utility.yul\":3129:3247   */\n  pop\n  jump\t// out\n    /* \"#utility.yul\":3253:3392   */\ntag_39:\n    /* \"#utility.yul\":3308:3313   */\n  0x00\n    /* \"#utility.yul\":3339:3345   */\n  dup2\n    /* \"#utility.yul\":3333:3346   */\n  mload\n    /* \"#utility.yul\":3324:3346   */\n  swap1\n  pop\n    /* \"#utility.yul\":3355:3386   */\n  tag_107\n    /* \"#utility.yul\":3380:3385   */\n  dup2\n    /* \"#utility.yul\":3355:3386   */\n  tag_38\n  jump\t// in\ntag_107:\n    /* \"#utility.yul\":3253:3392   */\n  swap3\n  swap2\n  pop\n  pop\n  jump\t// out\n    /* \"#utility.yul\":3398:3524   */\ntag_40:\n    /* \"#utility.yul\":3435:3442   */\n  0x00\n    /* \"#utility.yul\":3475:3517   */\n  0xffffffffffffffffffffffffffffffffffffffff\n    /* \"#utility.yul\":3468:3473   */\n  dup3\n    /* \"#utility.yul\":3464:3518   */\n  and\n    /* \"#utility.yul\":3453:3518   */\n  swap1\n  pop\n    /* \"#utility.yul\":3398:3524   */\n  swap2\n  swap1\n  pop\n  jump\t// out\n    /* \"#utility.yul\":3530:3626   */\ntag_41:\n    /* \"#utility.yul\":3567:3574   */\n  0x00\n    /* \"#utility.yul\":3596:3620   */\n  tag_110\n    /* \"#utility.yul\":3614:3619   */\n  dup3\n    /* \"#utility.yul\":3596:3620   */\n  tag_40\n  jump\t// in\ntag_110:\n    /* \"#utility.yul\":3585:3620   */\n  swap1\n  pop\n    /* \"#utility.yul\":3530:3626   */\n  swap2\n  swap1\n  pop\n  jump\t// out\n    /* \"#utility.yul\":3632:3754   */\ntag_42:\n    /* \"#utility.yul\":3705:3729   */\n  tag_112\n    /* \"#utility.yul\":3723:3728   */\n  dup2\n    /* \"#utility.yul\":3705:3729   */\n  tag_41\n  jump\t// in\ntag_112:\n    /* \"#utility.yul\":3698:3703   */\n  dup2\n    /* \"#utility.yul\":3695:3730   */\n  eq\n    /* \"#utility.yul\":3685:3748   */\n  tag_113\n  jumpi\n    /* \"#utility.yul\":3744:3745   */\n  0x00\n    /* \"#utility.yul\":3741:3742   */\n  dup1\n    /* \"#utility.yul\":3734:3746   */\n  revert\n    /* \"#utility.yul\":3685:3748   */\ntag_113:\n    /* \"#utility.yul\":3632:3754   */\n  pop\n  jump\t// out\n    /* \"#utility.yul\":3760:3903   */\ntag_43:\n    /* \"#utility.yul\":3817:3822   */\n  0x00\n    /* \"#utility.yul\":3848:3854   */\n  dup2\n    /* \"#utility.yul\":3842:3855   */\n  mload\n    /* \"#utility.yul\":3833:3855   */\n  swap1\n  pop\n    /* \"#utility.yul\":3864:3897   */\n  tag_115\n    /* \"#utility.yul\":3891:3896   */\n  dup2\n    /* \"#utility.yul\":3864:3897   */\n  tag_42\n  jump\t// in\ntag_115:\n    /* \"#utility.yul\":3760:3903   */\n  swap3\n  swap2\n  pop\n  pop\n  jump\t// out\n    /* \"#utility.yul\":3909:5228   */\ntag_3:\n    /* \"#utility.yul\":4033:4039   */\n  0x00\n    /* \"#utility.yul\":4041:4047   */\n  dup1\n    /* \"#utility.yul\":4049:4055   */\n  0x00\n    /* \"#utility.yul\":4057:4063   */\n  dup1\n    /* \"#utility.yul\":4065:4071   */\n  0x00\n    /* \"#utility.yul\":4114:4117   */\n  0xa0\n    /* \"#utility.yul\":4102:4111   */\n  dup7\n    /* \"#utility.yul\":4093:4100   */\n  dup9\n    /* \"#utility.yul\":4089:4112   */\n  sub\n    /* \"#utility.yul\":4085:4118   */\n  slt\n    /* \"#utility.yul\":4082:4202   */\n  iszero\n  tag_117\n  jumpi\n    /* \"#utility.yul\":4121:4200   */\n  tag_118\n  tag_22\n  jump\t// in\ntag_118:\n    /* \"#utility.yul\":4082:4202   */\ntag_117:\n    /* \"#utility.yul\":4262:4263   */\n  0x00\n    /* \"#utility.yul\":4251:4260   */\n  dup7\n    /* \"#utility.yul\":4247:4264   */\n  add\n    /* \"#utility.yul\":4241:4265   */\n  mload\n    /* \"#utility.yul\":4292:4310   */\n  0xffffffffffffffff\n    /* \"#utility.yul\":4284:4290   */\n  dup2\n    /* \"#utility.yul\":4281:4311   */\n  gt\n    /* \"#utility.yul\":4278:4395   */\n  iszero\n  tag_119\n  jumpi\n    /* \"#utility.yul\":4314:4393   */\n  tag_120\n  tag_23\n  jump\t// in\ntag_120:\n    /* \"#utility.yul\":4278:4395   */\ntag_119:\n    /* \"#utility.yul\":4419:4493   */\n  tag_121\n    /* \"#utility.yul\":4485:4492   */\n  dup9\n    /* \"#utility.yul\":4476:4482   */\n  dup3\n    /* \"#utility.yul\":4465:4474   */\n  dup10\n    /* \"#utility.yul\":4461:4483   */\n  add\n    /* \"#utility.yul\":4419:4493   */\n  tag_33\n  jump\t// in\ntag_121:\n    /* \"#utility.yul\":4409:4493   */\n  swap6\n  pop\n    /* \"#utility.yul\":4212:4503   */\n  pop\n    /* \"#utility.yul\":4563:4565   */\n  0x20\n    /* \"#utility.yul\":4552:4561   */\n  dup7\n    /* \"#utility.yul\":4548:4566   */\n  add\n    /* \"#utility.yul\":4542:4567   */\n  mload\n    /* \"#utility.yul\":4594:4612   */\n  0xffffffffffffffff\n    /* \"#utility.yul\":4586:4592   */\n  dup2\n    /* \"#utility.yul\":4583:4613   */\n  gt\n    /* \"#utility.yul\":4580:4697   */\n  iszero\n  tag_122\n  jumpi\n    /* \"#utility.yul\":4616:4695   */\n  tag_123\n  tag_23\n  jump\t// in\ntag_123:\n    /* \"#utility.yul\":4580:4697   */\ntag_122:\n    /* \"#utility.yul\":4721:4795   */\n  tag_124\n    /* \"#utility.yul\":4787:4794   */\n  dup9\n    /* \"#utility.yul\":4778:4784   */\n  dup3\n    /* \"#utility.yul\":4767:4776   */\n  dup10\n    /* \"#utility.yul\":4763:4785   */\n  add\n    /* \"#utility.yul\":4721:4795   */\n  tag_33\n  jump\t// in\ntag_124:\n    /* \"#utility.yul\":4711:4795   */\n  swap5\n  pop\n    /* \"#utility.yul\":4513:4805   */\n  pop\n    /* \"#utility.yul\":4844:4846   */\n  0x40\n    /* \"#utility.yul\":4870:4934   */\n  tag_125\n    /* \"#utility.yul\":4926:4933   */\n  dup9\n    /* \"#utility.yul\":4917:4923   */\n  dup3\n    /* \"#utility.yul\":4906:4915   */\n  dup10\n    /* \"#utility.yul\":4902:4924   */\n  add\n    /* \"#utility.yul\":4870:4934   */\n  tag_36\n  jump\t// in\ntag_125:\n    /* \"#utility.yul\":4860:4934   */\n  swap4\n  pop\n    /* \"#utility.yul\":4815:4944   */\n  pop\n    /* \"#utility.yul\":4983:4985   */\n  0x60\n    /* \"#utility.yul\":5009:5071   */\n  tag_126\n    /* \"#utility.yul\":5063:5070   */\n  dup9\n    /* \"#utility.yul\":5054:5060   */\n  dup3\n    /* \"#utility.yul\":5043:5052   */\n  dup10\n    /* \"#utility.yul\":5039:5061   */\n  add\n    /* \"#utility.yul\":5009:5071   */\n  tag_39\n  jump\t// in\ntag_126:\n    /* \"#utility.yul\":4999:5071   */\n  swap3\n  pop\n    /* \"#utility.yul\":4954:5081   */\n  pop\n    /* \"#utility.yul\":5120:5123   */\n  0x80\n    /* \"#utility.yul\":5147:5211   */\n  tag_127\n    /* \"#utility.yul\":5203:5210   */\n  dup9\n    /* \"#utility.yul\":5194:5200   */\n  dup3\n    /* \"#utility.yul\":5183:5192   */\n  dup10\n    /* \"#utility.yul\":5179:5201   */\n  add\n    /* \"#utility.yul\":5147:5211   */\n  tag_43\n  jump\t// in\ntag_127:\n    /* \"#utility.yul\":5137:5211   */\n  swap2\n  pop\n    /* \"#utility.yul\":5091:5221   */\n  pop\n    /* \"#utility.yul\":3909:5228   */\n  swap3\n  swap6\n  pop\n  swap3\n  swap6\n  swap1\n  swap4\n  pop\n  jump\t// out\n    /* \"#utility.yul\":5234:5352   */\ntag_44:\n    /* \"#utility.yul\":5321:5345   */\n  tag_129\n    /* \"#utility.yul\":5339:5344   */\n  dup2\n    /* \"#utility.yul\":5321:5345   */\n  tag_41\n  jump\t// in\ntag_129:\n    /* \"#utility.yul\":5316:5319   */\n  dup3\n    /* \"#utility.yul\":5309:5346   */\n  mstore\n    /* \"#utility.yul\":5234:5352   */\n  pop\n  pop\n  jump\t// out\n    /* \"#utility.yul\":5358:5580   */\ntag_9:\n    /* \"#utility.yul\":5451:5455   */\n  0x00\n    /* \"#utility.yul\":5489:5491   */\n  0x20\n    /* \"#utility.yul\":5478:5487   */\n  dup3\n    /* \"#utility.yul\":5474:5492   */\n  add\n    /* \"#utility.yul\":5466:5492   */\n  swap1\n  pop\n    /* \"#utility.yul\":5502:5573   */\n  tag_131\n    /* \"#utility.yul\":5570:5571   */\n  0x00\n    /* \"#utility.yul\":5559:5568   */\n  dup4\n    /* \"#utility.yul\":5555:5572   */\n  add\n    /* \"#utility.yul\":5546:5552   */\n  dup5\n    /* \"#utility.yul\":5502:5573   */\n  tag_44\n  jump\t// in\ntag_131:\n    /* \"#utility.yul\":5358:5580   */\n  swap3\n  swap2\n  pop\n  pop\n  jump\t// out\n    /* \"#utility.yul\":5586:5685   */\ntag_45:\n    /* \"#utility.yul\":5638:5644   */\n  0x00\n    /* \"#utility.yul\":5672:5677   */\n  dup2\n    /* \"#utility.yul\":5666:5678   */\n  mload\n    /* \"#utility.yul\":5656:5678   */\n  swap1\n  pop\n    /* \"#utility.yul\":5586:5685   */\n  swap2\n  swap1\n  pop\n  jump\t// out\n    /* \"#utility.yul\":5691:5871   */\ntag_46:\n    /* \"#utility.yul\":5739:5816   */\n  0x4e487b7100000000000000000000000000000000000000000000000000000000\n    /* \"#utility.yul\":5736:5737   */\n  0x00\n    /* \"#utility.yul\":5729:5817   */\n  mstore\n    /* \"#utility.yul\":5836:5840   */\n  0x22\n    /* \"#utility.yul\":5833:5834   */\n  0x04\n    /* \"#utility.yul\":5826:5841   */\n  mstore\n    /* \"#utility.yul\":5860:5864   */\n  0x24\n    /* \"#utility.yul\":5857:5858   */\n  0x00\n    /* \"#utility.yul\":5850:5865   */\n  revert\n    /* \"#utility.yul\":5877:6197   */\ntag_47:\n    /* \"#utility.yul\":5921:5927   */\n  0x00\n    /* \"#utility.yul\":5958:5959   */\n  0x02\n    /* \"#utility.yul\":5952:5956   */\n  dup3\n    /* \"#utility.yul\":5948:5960   */\n  div\n    /* \"#utility.yul\":5938:5960   */\n  swap1\n  pop\n    /* \"#utility.yul\":6005:6006   */\n  0x01\n    /* \"#utility.yul\":5999:6003   */\n  dup3\n    /* \"#utility.yul\":5995:6007   */\n  and\n    /* \"#utility.yul\":6026:6044   */\n  dup1\n    /* \"#utility.yul\":6016:6097   */\n  tag_135\n  jumpi\n    /* \"#utility.yul\":6082:6086   */\n  0x7f\n    /* \"#utility.yul\":6074:6080   */\n  dup3\n    /* \"#utility.yul\":6070:6087   */\n  and\n    /* \"#utility.yul\":6060:6087   */\n  swap2\n  pop\n    /* \"#utility.yul\":6016:6097   */\ntag_135:\n    /* \"#utility.yul\":6144:6146   */\n  0x20\n    /* \"#utility.yul\":6136:6142   */\n  dup3\n    /* \"#utility.yul\":6133:6147   */\n  lt\n    /* \"#utility.yul\":6113:6131   */\n  dup2\n    /* \"#utility.yul\":6110:6148   */\n  sub\n    /* \"#utility.yul\":6107:6191   */\n  tag_136\n  jumpi\n    /* \"#utility.yul\":6163:6181   */\n  tag_137\n  tag_46\n  jump\t// in\ntag_137:\n    /* \"#utility.yul\":6107:6191   */\ntag_136:\n    /* \"#utility.yul\":5928:6197   */\n  pop\n    /* \"#utility.yul\":5877:6197   */\n  swap2\n  swap1\n  pop\n  jump\t// out\n    /* \"#utility.yul\":6203:6344   */\ntag_48:\n    /* \"#utility.yul\":6252:6256   */\n  0x00\n    /* \"#utility.yul\":6275:6278   */\n  dup2\n    /* \"#utility.yul\":6267:6278   */\n  swap1\n  pop\n    /* \"#utility.yul\":6298:6301   */\n  dup2\n    /* \"#utility.yul\":6295:6296   */\n  0x00\n    /* \"#utility.yul\":6288:6302   */\n  mstore\n    /* \"#utility.yul\":6332:6336   */\n  0x20\n    /* \"#utility.yul\":6329:6330   */\n  0x00\n    /* \"#utility.yul\":6319:6337   */\n  keccak256\n    /* \"#utility.yul\":6311:6337   */\n  swap1\n  pop\n    /* \"#utility.yul\":6203:6344   */\n  swap2\n  swap1\n  pop\n  jump\t// out\n    /* \"#utility.yul\":6350:6443   */\ntag_49:\n    /* \"#utility.yul\":6387:6393   */\n  0x00\n    /* \"#utility.yul\":6434:6436   */\n  0x20\n    /* \"#utility.yul\":6429:6431   */\n  0x1f\n    /* \"#utility.yul\":6422:6427   */\n  dup4\n    /* \"#utility.yul\":6418:6432   */\n  add\n    /* \"#utility.yul\":6414:6437   */\n  div\n    /* \"#utility.yul\":6404:6437   */\n  swap1\n  pop\n    /* \"#utility.yul\":6350:6443   */\n  swap2\n  swap1\n  pop\n  jump\t// out\n    /* \"#utility.yul\":6449:6556   */\ntag_50:\n    /* \"#utility.yul\":6493:6501   */\n  0x00\n    /* \"#utility.yul\":6543:6548   */\n  dup3\n    /* \"#utility.yul\":6537:6541   */\n  dup3\n    /* \"#utility.yul\":6533:6549   */\n  shl\n    /* \"#utility.yul\":6512:6549   */\n  swap1\n  pop\n    /* \"#utility.yul\":6449:6556   */\n  swap3\n  swap2\n  pop\n  pop\n  jump\t// out\n    /* \"#utility.yul\":6562:6955   */\ntag_51:\n    /* \"#utility.yul\":6631:6637   */\n  0x00\n    /* \"#utility.yul\":6681:6682   */\n  0x08\n    /* \"#utility.yul\":6669:6679   */\n  dup4\n    /* \"#utility.yul\":6665:6683   */\n  mul\n    /* \"#utility.yul\":6704:6801   */\n  tag_142\n    /* \"#utility.yul\":6734:6800   */\n  0xffffffffffffffffffffffffffffffffffffffffffffffffffffffffffffffff\n    /* \"#utility.yul\":6723:6732   */\n  dup3\n    /* \"#utility.yul\":6704:6801   */\n  tag_50\n  jump\t// in\ntag_142:\n    /* \"#utility.yul\":6822:6861   */\n  tag_143\n    /* \"#utility.yul\":6852:6860   */\n  dup7\n    /* \"#utility.yul\":6841:6850   */\n  dup4\n    /* \"#utility.yul\":6822:6861   */\n  tag_50\n  jump\t// in\ntag_143:\n    /* \"#utility.yul\":6810:6861   */\n  swap6\n  pop\n    /* \"#utility.yul\":6894:6898   */\n  dup1\n    /* \"#utility.yul\":6890:6899   */\n  not\n    /* \"#utility.yul\":6883:6888   */\n  dup5\n    /* \"#utility.yul\":6879:6900   */\n  and\n    /* \"#utility.yul\":6870:6900   */\n  swap4\n  pop\n    /* \"#utility.yul\":6943:6947   */\n  dup1\n    /* \"#utility.yul\":6933:6941   */\n  dup7\n    /* \"#utility.yul\":6929:6948   */\n  and\n    /* \"#utility.yul\":6922:6927   */\n  dup5\n    /* \"#utility.yul\":6919:6949   */\n  or\n    /* \"#utility.yul\":6909:6949   */\n  swap3\n  pop\n    /* \"#utility.yul\":6638:6955   */\n  pop\n  pop\n    /* \"#utility.yul\":6562:6955   */\n  swap4\n  swap3\n  pop\n  pop\n  pop\n  jump\t// out\n    /* \"#utility.yul\":6961:7021   */\ntag_52:\n    /* \"#utility.yul\":6989:6992   */\n  0x00\n    /* \"#utility.yul\":7010:7015   */\n  dup2\n    /* \"#utility.yul\":7003:7015   */\n  swap1\n  pop\n    /* \"#utility.yul\":6961:7021   */\n  swap2\n  swap1\n  pop\n  jump\t// out\n    /* \"#utility.yul\":7027:7169   */\ntag_53:\n    /* \"#utility.yul\":7077:7086   */\n  0x00\n    /* \"#utility.yul\":7110:7163   */\n  tag_146\n    /* \"#utility.yul\":7128:7162   */\n  tag_147\n    /* \"#utility.yul\":7137:7161   */\n  tag_148\n    /* \"#utility.yul\":7155:7160   */\n  dup5\n    /* \"#utility.yul\":7137:7161   */\n  tag_34\n  jump\t// in\ntag_148:\n    /* \"#utility.yul\":7128:7162   */\n  tag_52\n  jump\t// in\ntag_147:\n    /* \"#utility.yul\":7110:7163   */\n  tag_34\n  jump\t// in\ntag_146:\n    /* \"#utility.yul\":7097:7163   */\n  swap1\n  pop\n    /* \"#utility.yul\":7027:7169   */\n  swap2\n  swap1\n  pop\n  jump\t// out\n    /* \"#utility.yul\":7175:7250   */\ntag_54:\n    /* \"#utility.yul\":7218:7221   */\n  0x00\n    /* \"#utility.yul\":7239:7244   */\n  dup2\n    /* \"#utility.yul\":7232:7244   */\n  swap1\n  pop\n    /* \"#utility.yul\":7175:7250   */\n  swap2\n  swap1\n  pop\n  jump\t// out\n    /* \"#utility.yul\":7256:7525   */\ntag_55:\n    /* \"#utility.yul\":7366:7405   */\n  tag_151\n    /* \"#utility.yul\":7397:7404   */\n  dup4\n    /* \"#utility.yul\":7366:7405   */\n  tag_53\n  jump\t// in\ntag_151:\n    /* \"#utility.yul\":7427:7518   */\n  tag_152\n    /* \"#utility.yul\":7476:7517   */\n  tag_153\n    /* \"#utility.yul\":7500:7516   */\n  dup3\n    /* \"#utility.yul\":7476:7517   */\n  tag_54\n  jump\t// in\ntag_153:\n    /* \"#utility.yul\":7468:7474   */\n  dup5\n    /* \"#utility.yul\":7461:7465   */\n  dup5\n    /* \"#utility.yul\":7455:7466   */\n  sload\n    /* \"#utility.yul\":7427:7518   */\n  tag_51\n  jump\t// in\ntag_152:\n    /* \"#utility.yul\":7421:7425   */\n  dup3\n    /* \"#utility.yul\":7414:7519   */\n  sstore\n    /* \"#utility.yul\":7332:7525   */\n  pop\n    /* \"#utility.yul\":7256:7525   */\n  pop\n  pop\n  pop\n  jump\t// out\n    /* \"#utility.yul\":7531:7604   */\ntag_56:\n    /* \"#utility.yul\":7576:7579   */\n  0x00\n    /* \"#utility.yul\":7531:7604   */\n  swap1\n  jump\t// out\n    /* \"#utility.yul\":7610:7799   */\ntag_57:\n    /* \"#utility.yul\":7687:7719   */\n  tag_156\n  tag_56\n  jump\t// in\ntag_156:\n    /* \"#utility.yul\":7728:7793   */\n  tag_157\n    /* \"#utility.yul\":7786:7792   */\n  dup2\n    /* \"#utility.yul\":7778:7784   */\n  dup5\n    /* \"#utility.yul\":7772:7776   */\n  dup5\n    /* \"#utility.yul\":7728:7793   */\n  tag_55\n  jump\t// in\ntag_157:\n    /* \"#utility.yul\":7663:7799   */\n  pop\n    /* \"#utility.yul\":7610:7799   */\n  pop\n  pop\n  jump\t// out\n    /* \"#utility.yul\":7805:7991   */\ntag_58:\n    /* \"#utility.yul\":7865:7985   */\ntag_159:\n    /* \"#utility.yul\":7882:7885   */\n  dup2\n    /* \"#utility.yul\":7875:7880   */\n  dup2\n    /* \"#utility.yul\":7872:7886   */\n  lt\n    /* \"#utility.yul\":7865:7985   */\n  iszero\n  tag_161\n  jumpi\n    /* \"#utility.yul\":7936:7975   */\n  tag_162\n    /* \"#utility.yul\":7973:7974   */\n  0x00\n    /* \"#utility.yul\":7966:7971   */\n  dup3\n    /* \"#utility.yul\":7936:7975   */\n  tag_57\n  jump\t// in\ntag_162:\n    /* \"#utility.yul\":7909:7910   */\n  0x01\n    /* \"#utility.yul\":7902:7907   */\n  dup2\n    /* \"#utility.yul\":7898:7911   */\n  add\n    /* \"#utility.yul\":7889:7911   */\n  swap1\n  pop\n    /* \"#utility.yul\":7865:7985   */\n  jump(tag_159)\ntag_161:\n    /* \"#utility.yul\":7805:7991   */\n  pop\n  pop\n  jump\t// out\n    /* \"#utility.yul\":7997:8540   */\ntag_59:\n    /* \"#utility.yul\":8098:8100   */\n  0x1f\n    /* \"#utility.yul\":8093:8096   */\n  dup3\n    /* \"#utility.yul\":8090:8101   */\n  gt\n    /* \"#utility.yul\":8087:8533   */\n  iszero\n  tag_164\n  jumpi\n    /* \"#utility.yul\":8132:8170   */\n  tag_165\n    /* \"#utility.yul\":8164:8169   */\n  dup2\n    /* \"#utility.yul\":8132:8170   */\n  tag_48\n  jump\t// in\ntag_165:\n    /* \"#utility.yul\":8216:8245   */\n  tag_166\n    /* \"#utility.yul\":8234:8244   */\n  dup5\n    /* \"#utility.yul\":8216:8245   */\n  tag_49\n  jump\t// in\ntag_166:\n    /* \"#utility.yul\":8206:8214   */\n  dup2\n    /* \"#utility.yul\":8202:8246   */\n  add\n    /* \"#utility.yul\":8399:8401   */\n  0x20\n    /* \"#utility.yul\":8387:8397   */\n  dup6\n    /* \"#utility.yul\":8384:8402   */\n  lt\n    /* \"#utility.yul\":8381:8430   */\n  iszero\n  tag_167\n  jumpi\n    /* \"#utility.yul\":8420:8428   */\n  dup2\n    /* \"#utility.yul\":8405:8428   */\n  swap1\n  pop\n    /* \"#utility.yul\":8381:8430   */\ntag_167:\n    /* \"#utility.yul\":8443:8523   */\n  tag_168\n    /* \"#utility.yul\":8499:8521   */\n  tag_169\n    /* \"#utility.yul\":8517:8520   */\n  dup6\n    /* \"#utility.yul\":8499:8521   */\n  tag_49\n  jump\t// in\ntag_169:\n    /* \"#utility.yul\":8489:8497   */\n  dup4\n    /* \"#utility.yul\":8485:8522   */\n  add\n    /* \"#utility.yul\":8472:8483   */\n  dup3\n    /* \"#utility.yul\":8443:8523   */\n  tag_58\n  jump\t// in\ntag_168:\n    /* \"#utility.yul\":8102:8533   */\n  pop\n  pop\n    /* \"#utility.yul\":8087:8533   */\ntag_164:\n    /* \"#utility.yul\":7997:8540   */\n  pop\n  pop\n  pop\n  jump\t// out\n    /* \"#utility.yul\":8546:8663   */\ntag_60:\n    /* \"#utility.yul\":8600:8608   */\n  0x00\n    /* \"#utility.yul\":8650:8655   */\n  dup3\n    /* \"#utility.yul\":8644:8648   */\n  dup3\n    /* \"#utility.yul\":8640:8656   */\n  shr\n    /* \"#utility.yul\":8619:8656   */\n  swap1\n  pop\n    /* \"#utility.yul\":8546:8663   */\n  swap3\n  swap2\n  pop\n  pop\n  jump\t// out\n    /* \"#utility.yul\":8669:8838   */\ntag_61:\n    /* \"#utility.yul\":8713:8719   */\n  0x00\n    /* \"#utility.yul\":8746:8797   */\n  tag_172\n    /* \"#utility.yul\":8794:8795   */\n  0x00\n    /* \"#utility.yul\":8790:8796   */\n  not\n    /* \"#utility.yul\":8782:8787   */\n  dup5\n    /* \"#utility.yul\":8779:8780   */\n  0x08\n    /* \"#utility.yul\":8775:8788   */\n  mul\n    /* \"#utility.yul\":8746:8797   */\n  tag_60\n  jump\t// in\ntag_172:\n    /* \"#utility.yul\":8742:8798   */\n  not\n    /* \"#utility.yul\":8827:8831   */\n  dup1\n    /* \"#utility.yul\":8821:8825   */\n  dup4\n    /* \"#utility.yul\":8817:8832   */\n  and\n    /* \"#utility.yul\":8807:8832   */\n  swap2\n  pop\n    /* \"#utility.yul\":8720:8838   */\n  pop\n    /* \"#utility.yul\":8669:8838   */\n  swap3\n  swap2\n  pop\n  pop\n  jump\t// out\n    /* \"#utility.yul\":8843:9138   */\ntag_62:\n    /* \"#utility.yul\":8919:8923   */\n  0x00\n    /* \"#utility.yul\":9065:9094   */\n  tag_174\n    /* \"#utility.yul\":9090:9093   */\n  dup4\n    /* \"#utility.yul\":9084:9088   */\n  dup4\n    /* \"#utility.yul\":9065:9094   */\n  tag_61\n  jump\t// in\ntag_174:\n    /* \"#utility.yul\":9057:9094   */\n  swap2\n  pop\n    /* \"#utility.yul\":9127:9130   */\n  dup3\n    /* \"#utility.yul\":9124:9125   */\n  0x02\n    /* \"#utility.yul\":9120:9131   */\n  mul\n    /* \"#utility.yul\":9114:9118   */\n  dup3\n    /* \"#utility.yul\":9111:9132   */\n  or\n    /* \"#utility.yul\":9103:9132   */\n  swap1\n  pop\n    /* \"#utility.yul\":8843:9138   */\n  swap3\n  swap2\n  pop\n  pop\n  jump\t// out\n    /* \"#utility.yul\":9143:10538   */\ntag_14:\n    /* \"#utility.yul\":9260:9297   */\n  tag_176\n    /* \"#utility.yul\":9293:9296   */\n  dup3\n    /* \"#utility.yul\":9260:9297   */\n  tag_45\n  jump\t// in\ntag_176:\n    /* \"#utility.yul\":9362:9380   */\n  0xffffffffffffffff\n    /* \"#utility.yul\":9354:9360   */\n  dup2\n    /* \"#utility.yul\":9351:9381   */\n  gt\n    /* \"#utility.yul\":9348:9404   */\n  iszero\n  tag_177\n  jumpi\n    /* \"#utility.yul\":9384:9402   */\n  tag_178\n  tag_27\n  jump\t// in\ntag_178:\n    /* \"#utility.yul\":9348:9404   */\ntag_177:\n    /* \"#utility.yul\":9428:9466   */\n  tag_179\n    /* \"#utility.yul\":9460:9464   */\n  dup3\n    /* \"#utility.yul\":9454:9465   */\n  sload\n    /* \"#utility.yul\":9428:9466   */\n  tag_47\n  jump\t// in\ntag_179:\n    /* \"#utility.yul\":9513:9580   */\n  tag_180\n    /* \"#utility.yul\":9573:9579   */\n  dup3\n    /* \"#utility.yul\":9565:9571   */\n  dup3\n    /* \"#utility.yul\":9559:9563   */\n  dup6\n    /* \"#utility.yul\":9513:9580   */\n  tag_59\n  jump\t// in\ntag_180:\n    /* \"#utility.yul\":9607:9608   */\n  0x00\n    /* \"#utility.yul\":9631:9635   */\n  0x20\n    /* \"#utility.yul\":9618:9635   */\n  swap1\n  pop\n    /* \"#utility.yul\":9663:9665   */\n  0x1f\n    /* \"#utility.yul\":9655:9661   */\n  dup4\n    /* \"#utility.yul\":9652:9666   */\n  gt\n    /* \"#utility.yul\":9680:9681   */\n  0x01\n    /* \"#utility.yul\":9675:10293   */\n  dup2\n  eq\n  tag_182\n  jumpi\n    /* \"#utility.yul\":10337:10338   */\n  0x00\n    /* \"#utility.yul\":10354:10360   */\n  dup5\n    /* \"#utility.yul\":10351:10428   */\n  iszero\n  tag_183\n  jumpi\n    /* \"#utility.yul\":10403:10412   */\n  dup3\n    /* \"#utility.yul\":10398:10401   */\n  dup8\n    /* \"#utility.yul\":10394:10413   */\n  add\n    /* \"#utility.yul\":10388:10414   */\n  mload\n    /* \"#utility.yul\":10379:10414   */\n  swap1\n  pop\n    /* \"#utility.yul\":10351:10428   */\ntag_183:\n    /* \"#utility.yul\":10454:10521   */\n  tag_184\n    /* \"#utility.yul\":10514:10520   */\n  dup6\n    /* \"#utility.yul\":10507:10512   */\n  dup3\n    /* \"#utility.yul\":10454:10521   */\n  tag_62\n  jump\t// in\ntag_184:\n    /* \"#utility.yul\":10448:10452   */\n  dup7\n    /* \"#utility.yul\":10441:10522   */\n  sstore\n    /* \"#utility.yul\":10310:10532   */\n  pop\n    /* \"#utility.yul\":9645:10532   */\n  jump(tag_181)\n    /* \"#utility.yul\":9675:10293   */\ntag_182:\n    /* \"#utility.yul\":9727:9731   */\n  0x1f\n    /* \"#utility.yul\":9723:9732   */\n  not\n    /* \"#utility.yul\":9715:9721   */\n  dup5\n    /* \"#utility.yul\":9711:9733   */\n  and\n    /* \"#utility.yul\":9761:9798   */\n  tag_185\n    /* \"#utility.yul\":9793:9797   */\n  dup7\n    /* \"#utility.yul\":9761:9798   */\n  tag_48\n  jump\t// in\ntag_185:\n    /* \"#utility.yul\":9820:9821   */\n  0x00\n    /* \"#utility.yul\":9834:10042   */\ntag_186:\n    /* \"#utility.yul\":9848:9855   */\n  dup3\n    /* \"#utility.yul\":9845:9846   */\n  dup2\n    /* \"#utility.yul\":9842:9856   */\n  lt\n    /* \"#utility.yul\":9834:10042   */\n  iszero\n  tag_188\n  jumpi\n    /* \"#utility.yul\":9927:9936   */\n  dup5\n    /* \"#utility.yul\":9922:9925   */\n  dup10\n    /* \"#utility.yul\":9918:9937   */\n  add\n    /* \"#utility.yul\":9912:9938   */\n  mload\n    /* \"#utility.yul\":9904:9910   */\n  dup3\n    /* \"#utility.yul\":9897:9939   */\n  sstore\n    /* \"#utility.yul\":9978:9979   */\n  0x01\n    /* \"#utility.yul\":9970:9976   */\n  dup3\n    /* \"#utility.yul\":9966:9980   */\n  add\n    /* \"#utility.yul\":9956:9980   */\n  swap2\n  pop\n    /* \"#utility.yul\":10025:10027   */\n  0x20\n    /* \"#utility.yul\":10014:10023   */\n  dup6\n    /* \"#utility.yul\":10010:10028   */\n  add\n    /* \"#utility.yul\":9997:10028   */\n  swap5\n  pop\n    /* \"#utility.yul\":9871:9875   */\n  0x20\n    /* \"#utility.yul\":9868:9869   */\n  dup2\n    /* \"#utility.yul\":9864:9876   */\n  add\n    /* \"#utility.yul\":9859:9876   */\n  swap1\n  pop\n    /* \"#utility.yul\":9834:10042   */\n  jump(tag_186)\ntag_188:\n    /* \"#utility.yul\":10070:10076   */\n  dup7\n    /* \"#utility.yul\":10061:10068   */\n  dup4\n    /* \"#utility.yul\":10058:10077   */\n  lt\n    /* \"#utility.yul\":10055:10234   */\n  iszero\n  tag_189\n  jumpi\n    /* \"#utility.yul\":10128:10137   */\n  dup5\n    /* \"#utility.yul\":10123:10126   */\n  dup10\n    /* \"#utility.yul\":10119:10138   */\n  add\n    /* \"#utility.yul\":10113:10139   */\n  mload\n    /* \"#utility.yul\":10171:10219   */\n  tag_190\n    /* \"#utility.yul\":10213:10217   */\n  0x1f\n    /* \"#utility.yul\":10205:10211   */\n  dup10\n    /* \"#utility.yul\":10201:10218   */\n  and\n    /* \"#utility.yul\":10190:10199   */\n  dup3\n    /* \"#utility.yul\":10171:10219   */\n  tag_61\n  jump\t// in\ntag_190:\n    /* \"#utility.yul\":10163:10169   */\n  dup4\n    /* \"#utility.yul\":10156:10220   */\n  sstore\n    /* \"#utility.yul\":10078:10234   */\n  pop\n    /* \"#utility.yul\":10055:10234   */\ntag_189:\n    /* \"#utility.yul\":10280:10281   */\n  0x01\n    /* \"#utility.yul\":10276:10277   */\n  0x02\n    /* \"#utility.yul\":10268:10274   */\n  dup9\n    /* \"#utility.yul\":10264:10278   */\n  mul\n    /* \"#utility.yul\":10260:10282   */\n  add\n    /* \"#utility.yul\":10254:10258   */\n  dup9\n    /* \"#utility.yul\":10247:10283   */\n  sstore\n    /* \"#utility.yul\":9682:10293   */\n  pop\n  pop\n  pop\n    /* \"#utility.yul\":9645:10532   */\ntag_181:\n  pop\n    /* \"#utility.yul\":9235:10538   */\n  pop\n  pop\n  pop\n    /* \"#utility.yul\":9143:10538   */\n  pop\n  pop\n  jump\t// out\n    /* \"contracts/Token.sol\":1862:4282  contract RuthenToken is StandartToken, UpgradableProxy, Ownable2Step {... */\ntag_16:\n  dataSize(sub_0)\n  dup1\n  dataOffset(sub_0)\n  0x00\n  codecopy\n  0x00\n  return\nstop\n\nsub_0: assembly {\n        /* \"contracts/Token.sol\":1862:4282  contract RuthenToken is StandartToken, UpgradableProxy, Ownable2Step {... */\n      mstore(0x40, 0x80)\n      jumpi(tag_1, lt(calldatasize, 0x04))\n      shr(0xe0, calldataload(0x00))\n      dup1\n      0x8da5cb5b\n      gt\n      tag_23\n      jumpi\n      dup1\n      0xe30c3978\n      gt\n      tag_24\n      jumpi\n      dup1\n      0xe30c3978\n      eq\n      tag_18\n      jumpi\n      dup1\n      0xeb2c0223\n      eq\n      tag_19\n      jumpi\n      dup1\n      0xf2fde38b\n      eq\n      tag_20\n      jumpi\n      dup1\n      0xf62babdf\n      eq\n      tag_21\n      jumpi\n      dup1\n      0xffa1ad74\n      eq\n      tag_22\n      jumpi\n      jump(tag_2)\n    tag_24:\n      dup1\n      0x8da5cb5b\n      eq\n      tag_13\n      jumpi\n      dup1\n      0x95d89b41\n      eq\n      tag_14\n      jumpi\n      dup1\n      0xa9059cbb\n      eq\n      tag_15\n      jumpi\n      dup1\n      0xdb006a75\n      eq\n      tag_16\n      jumpi\n      dup1\n      0xdd62ed3e\n      eq\n      tag_17\n      jumpi\n      jump(tag_2)\n    tag_23:\n      dup1\n      0x313ce567\n      gt\n      tag_25\n      jumpi\n      dup1\n      0x313ce567\n      eq\n      tag_8\n      jumpi\n      dup1\n      0x70a08231\n      eq\n      tag_9\n      jumpi\n      dup1\n      0x715018a6\n      eq\n      tag_10\n      jumpi\n      dup1\n      0x79ba5097\n      eq\n      tag_11\n      jumpi\n      dup1\n      0x867904b4\n      eq\n      tag_12\n      jumpi\n      jump(tag_2)\n    tag_25:\n      dup1\n      0x06fdde03\n      eq\n      tag_3\n      jumpi\n      dup1\n      0x095ea7b3\n      eq\n      tag_4\n      jumpi\n      dup1\n      0x0e136b19\n      eq\n      tag_5\n      jumpi\n      dup1\n      0x18160ddd\n      eq\n      tag_6\n      jumpi\n      dup1\n      0x23b872dd\n      eq\n      tag_7\n      jumpi\n      jump(tag_2)\n    tag_1:\n      jumpi(tag_2, calldatasize)\n      stop\n    tag_2:\n        /* \"contracts/UpgradableProxy.sol\":772:783  _fallback() */\n      tag_30\n        /* \"contracts/UpgradableProxy.sol\":772:781  _fallback */\n      tag_31\n        /* \"contracts/UpgradableProxy.sol\":772:783  _fallback() */\n      jump\t// in\n    tag_30:\n        /* \"contracts/Token.sol\":1862:4282  contract RuthenToken is StandartToken, UpgradableProxy, Ownable2Step {... */\n      stop\n        /* \"contracts/Token.sol\":1937:1955  string public name */\n    tag_3:\n      callvalue\n      dup1\n      iszero\n      tag_32\n      jumpi\n      0x00\n      dup1\n      revert\n    tag_32:\n      pop\n      tag_33\n      tag_34\n      jump\t// in\n    tag_33:\n      mload(0x40)\n      tag_35\n      swap2\n      swap1\n      tag_36\n      jump\t// in\n    tag_35:\n      mload(0x40)\n      dup1\n      swap2\n      sub\n      swap1\n      return\n        /* \"contracts/Token.sol\":3279:3515  function approve(address spender, uint256 value) public override {... */\n    tag_4:\n      callvalue\n      dup1\n      iszero\n      tag_37\n      jumpi\n      0x00\n      dup1\n      revert\n    tag_37:\n      pop\n      tag_38\n      0x04\n      dup1\n      calldatasize\n      sub\n      dup2\n      add\n      swap1\n      tag_39\n      swap2\n      swap1\n      tag_40\n      jump\t// in\n    tag_39:\n      tag_41\n      jump\t// in\n    tag_38:\n      stop\n        /* \"contracts/UpgradableProxy.sol\":248:350  function deprecated() public view returns (bool) {... */\n    tag_5:\n      callvalue\n      dup1\n      iszero\n      tag_42\n      jumpi\n      0x00\n      dup1\n      revert\n    tag_42:\n      pop\n      tag_43\n      tag_44\n      jump\t// in\n    tag_43:\n      mload(0x40)\n      tag_45\n      swap2\n      swap1\n      tag_46\n      jump\t// in\n    tag_45:\n      mload(0x40)\n      dup1\n      swap2\n      sub\n      swap1\n      return\n        /* \"contracts/Token.sol\":1987:2013  uint256 public totalSupply */\n    tag_6:\n      callvalue\n      dup1\n      iszero\n      tag_47\n      jumpi\n      0x00\n      dup1\n      revert\n    tag_47:\n      pop\n      tag_48\n      tag_49\n      jump\t// in\n    tag_48:\n      mload(0x40)\n      tag_50\n      swap2\n      swap1\n      tag_51\n      jump\t// in\n    tag_50:\n      mload(0x40)\n      dup1\n      swap2\n      sub\n      swap1\n      return\n        /* \"contracts/Token.sol\":3521:3813  function transferFrom(... */\n    tag_7:\n      callvalue\n      dup1\n      iszero\n      tag_52\n      jumpi\n      0x00\n      dup1\n      revert\n    tag_52:\n      pop\n      tag_53\n      0x04\n      dup1\n      calldatasize\n      sub\n      dup2\n      add\n      swap1\n      tag_54\n      swap2\n      swap1\n      tag_55\n      jump\t// in\n    tag_54:\n      tag_56\n      jump\t// in\n    tag_53:\n      stop\n        /* \"contracts/Token.sol\":2019:2040  uint8 public decimals */\n    tag_8:\n      callvalue\n      dup1\n      iszero\n      tag_57\n      jumpi\n      0x00\n      dup1\n      revert\n    tag_57:\n      pop\n      tag_58\n      tag_59\n      jump\t// in\n    tag_58:\n      mload(0x40)\n      tag_60\n      swap2\n      swap1\n      tag_61\n      jump\t// in\n    tag_60:\n      mload(0x40)\n      dup1\n      swap2\n      sub\n      swap1\n      return\n        /* \"contracts/Token.sol\":2472:2722  function balanceOf(address account) public view override returns (uint256) {... */\n    tag_9:\n      callvalue\n      dup1\n      iszero\n      tag_62\n      jumpi\n      0x00\n      dup1\n      revert\n    tag_62:\n      pop\n      tag_63\n      0x04\n      dup1\n      calldatasize\n      sub\n      dup2\n      add\n      swap1\n      tag_64\n      swap2\n      swap1\n      tag_65\n      jump\t// in\n    tag_64:\n      tag_66\n      jump\t// in\n    tag_63:\n      mload(0x40)\n      tag_67\n      swap2\n      swap1\n      tag_51\n      jump\t// in\n    tag_67:\n      mload(0x40)\n      dup1\n      swap2\n      sub\n      swap1\n      return\n        /* \"@openzeppelin/contracts/access/Ownable.sol\":2293:2394  function renounceOwnership() public virtual onlyOwner {... */\n    tag_10:\n      callvalue\n      dup1\n      iszero\n      tag_68\n      jumpi\n      0x00\n      dup1\n      revert\n    tag_68:\n      pop\n      tag_69\n      tag_70\n      jump\t// in\n    tag_69:\n      stop\n        /* \"@openzeppelin/contracts/access/Ownable2Step.sol\":1761:1990  function acceptOwnership() public virtual {... */\n    tag_11:\n      callvalue\n      dup1\n      iszero\n      tag_71\n      jumpi\n      0x00\n      dup1\n      revert\n    tag_71:\n      pop\n      tag_72\n      tag_73\n      jump\t// in\n    tag_72:\n      stop\n        /* \"contracts/Token.sol\":3946:4116  function issue(address account, uint256 value) external {... */\n    tag_12:\n      callvalue\n      dup1\n      iszero\n      tag_74\n      jumpi\n      0x00\n      dup1\n      revert\n    tag_74:\n      pop\n      tag_75\n      0x04\n      dup1\n      calldatasize\n      sub\n      dup2\n      add\n      swap1\n      tag_76\n      swap2\n      swap1\n      tag_40\n      jump\t// in\n    tag_76:\n      tag_77\n      jump\t// in\n    tag_75:\n      stop\n        /* \"@openzeppelin/contracts/access/Ownable.sol\":1638:1723  function owner() public view virtual returns (address) {... */\n    tag_13:\n      callvalue\n      dup1\n      iszero\n      tag_78\n      jumpi\n      0x00\n      dup1\n      revert\n    tag_78:\n      pop\n      tag_79\n      tag_80\n      jump\t// in\n    tag_79:\n      mload(0x40)\n      tag_81\n      swap2\n      swap1\n      tag_82\n      jump\t// in\n    tag_81:\n      mload(0x40)\n      dup1\n      swap2\n      sub\n      swap1\n      return\n        /* \"contracts/Token.sol\":1961:1981  string public symbol */\n    tag_14:\n      callvalue\n      dup1\n      iszero\n      tag_83\n      jumpi\n      0x00\n      dup1\n      revert\n    tag_83:\n      pop\n      tag_84\n      tag_85\n      jump\t// in\n    tag_84:\n      mload(0x40)\n      tag_86\n      swap2\n      swap1\n      tag_36\n      jump\t// in\n    tag_86:\n      mload(0x40)\n      dup1\n      swap2\n      sub\n      swap1\n      return\n        /* \"contracts/Token.sol\":2728:2952  function transfer(address to, uint256 value) public override {... */\n    tag_15:\n      callvalue\n      dup1\n      iszero\n      tag_87\n      jumpi\n      0x00\n      dup1\n      revert\n    tag_87:\n      pop\n      tag_88\n      0x04\n      dup1\n      calldatasize\n      sub\n      dup2\n      add\n      swap1\n      tag_89\n      swap2\n      swap1\n      tag_40\n      jump\t// in\n    tag_89:\n      tag_90\n      jump\t// in\n    tag_88:\n      stop\n        /* \"contracts/Token.sol\":4122:4280  function redeem(uint256 value) external {... */\n    tag_16:\n      callvalue\n      dup1\n      iszero\n      tag_91\n      jumpi\n      0x00\n      dup1\n      revert\n    tag_91:\n      pop\n      tag_92\n      0x04\n      dup1\n      calldatasize\n      sub\n      dup2\n      add\n      swap1\n      tag_93\n      swap2\n      swap1\n      tag_94\n      jump\t// in\n    tag_93:\n      tag_95\n      jump\t// in\n    tag_92:\n      stop\n        /* \"contracts/Token.sol\":2958:3273  function allowance(address owner, address spender)... */\n    tag_17:\n      callvalue\n      dup1\n      iszero\n      tag_96\n      jumpi\n      0x00\n      dup1\n      revert\n    tag_96:\n      pop\n      tag_97\n      0x04\n      dup1\n      calldatasize\n      sub\n      dup2\n      add\n      swap1\n      tag_98\n      swap2\n      swap1\n      tag_99\n      jump\t// in\n    tag_98:\n      tag_100\n      jump\t// in\n    tag_97:\n      mload(0x40)\n      tag_101\n      swap2\n      swap1\n      tag_51\n      jump\t// in\n    tag_101:\n      mload(0x40)\n      dup1\n      swap2\n      sub\n      swap1\n      return\n        /* \"@openzeppelin/contracts/access/Ownable2Step.sol\":874:973  function pendingOwner() public view virtual returns (address) {... */\n    tag_18:\n      callvalue\n      dup1\n      iszero\n      tag_102\n      jumpi\n      0x00\n      dup1\n      revert\n    tag_102:\n      pop\n      tag_103\n      tag_104\n      jump\t// in\n    tag_103:\n      mload(0x40)\n      tag_105\n      swap2\n      swap1\n      tag_82\n      jump\t// in\n    tag_105:\n      mload(0x40)\n      dup1\n      swap2\n      sub\n      swap1\n      return\n        /* \"contracts/Token.sol\":3819:3940  function upgradeContract(address upgradedContract) external onlyOwner {... */\n    tag_19:\n      callvalue\n      dup1\n      iszero\n      tag_106\n      jumpi\n      0x00\n      dup1\n      revert\n    tag_106:\n      pop\n      tag_107\n      0x04\n      dup1\n      calldatasize\n      sub\n      dup2\n      add\n      swap1\n      tag_108\n      swap2\n      swap1\n      tag_65\n      jump\t// in\n    tag_108:\n      tag_109\n      jump\t// in\n    tag_107:\n      stop\n        /* \"@openzeppelin/contracts/access/Ownable2Step.sol\":1166:1344  function transferOwnership(address newOwner) public virtual override onlyOwner {... */\n    tag_20:\n      callvalue\n      dup1\n      iszero\n      tag_110\n      jumpi\n      0x00\n      dup1\n      revert\n    tag_110:\n      pop\n      tag_111\n      0x04\n      dup1\n      calldatasize\n      sub\n      dup2\n      add\n      swap1\n      tag_112\n      swap2\n      swap1\n      tag_65\n      jump\t// in\n    tag_112:\n      tag_113\n      jump\t// in\n    tag_111:\n      stop\n        /* \"contracts/UpgradableProxy.sol\":158:186  address public upgradedToken */\n    tag_21:\n      callvalue\n      dup1\n      iszero\n      tag_114\n      jumpi\n      0x00\n      dup1\n      revert\n    tag_114:\n      pop\n      tag_115\n      tag_116\n      jump\t// in\n    tag_115:\n      mload(0x40)\n      tag_117\n      swap2\n      swap1\n      tag_82\n      jump\t// in\n    tag_117:\n      mload(0x40)\n      dup1\n      swap2\n      sub\n      swap1\n      return\n        /* \"contracts/Token.sol\":2047:2085  string public constant VERSION = \"0.1\" */\n    tag_22:\n      callvalue\n      dup1\n      iszero\n      tag_118\n      jumpi\n      0x00\n      dup1\n      revert\n    tag_118:\n      pop\n      tag_119\n      tag_120\n      jump\t// in\n    tag_119:\n      mload(0x40)\n      tag_121\n      swap2\n      swap1\n      tag_36\n      jump\t// in\n    tag_121:\n      mload(0x40)\n      dup1\n      swap2\n      sub\n      swap1\n      return\n        /* \"@openzeppelin/contracts/proxy/Proxy.sol\":2323:2406  function _fallback() internal virtual {... */\n    tag_31:\n        /* \"@openzeppelin/contracts/proxy/Proxy.sol\":2371:2399  _delegate(_implementation()) */\n      tag_123\n        /* \"@openzeppelin/contracts/proxy/Proxy.sol\":2381:2398  _implementation() */\n      tag_124\n        /* \"@openzeppelin/contracts/proxy/Proxy.sol\":2381:2396  _implementation */\n      tag_125\n        /* \"@openzeppelin/contracts/proxy/Proxy.sol\":2381:2398  _implementation() */\n      jump\t// in\n    tag_124:\n        /* \"@openzeppelin/contracts/proxy/Proxy.sol\":2371:2380  _delegate */\n      tag_126\n        /* \"@openzeppelin/contracts/proxy/Proxy.sol\":2371:2399  _delegate(_implementation()) */\n      jump\t// in\n    tag_123:\n        /* \"@openzeppelin/contracts/proxy/Proxy.sol\":2323:2406  function _fallback() internal virtual {... */\n      jump\t// out\n        /* \"contracts/Token.sol\":1937:1955  string public name */\n    tag_34:\n      0x05\n      dup1\n      sload\n      tag_127\n      swap1\n      tag_128\n      jump\t// in\n    tag_127:\n      dup1\n      0x1f\n      add\n      0x20\n      dup1\n      swap2\n      div\n      mul\n      0x20\n      add\n      mload(0x40)\n      swap1\n      dup2\n      add\n      0x40\n      mstore\n      dup1\n      swap3\n      swap2\n      swap1\n      dup2\n      dup2\n      mstore\n      0x20\n      add\n      dup3\n      dup1\n      sload\n      tag_129\n      swap1\n      tag_128\n      jump\t// in\n    tag_129:\n      dup1\n      iszero\n      tag_130\n      jumpi\n      dup1\n      0x1f\n      lt\n      tag_131\n      jumpi\n      0x0100\n      dup1\n      dup4\n      sload\n      div\n      mul\n      dup4\n      mstore\n      swap2\n      0x20\n      add\n      swap2\n      jump(tag_130)\n    tag_131:\n      dup3\n      add\n      swap2\n      swap1\n      0x00\n      mstore\n      keccak256(0x00, 0x20)\n      swap1\n    tag_132:\n      dup2\n      sload\n      dup2\n      mstore\n      swap1\n      0x01\n      add\n      swap1\n      0x20\n      add\n      dup1\n      dup4\n      gt\n      tag_132\n      jumpi\n      dup3\n      swap1\n      sub\n      0x1f\n      and\n      dup3\n      add\n      swap2\n    tag_130:\n      pop\n      pop\n      pop\n      pop\n      pop\n      dup2\n      jump\t// out\n        /* \"contracts/Token.sol\":3279:3515  function approve(address spender, uint256 value) public override {... */\n    tag_41:\n        /* \"contracts/Token.sol\":3358:3370  deprecated() */\n      tag_134\n        /* \"contracts/Token.sol\":3358:3368  deprecated */\n      tag_44\n        /* \"contracts/Token.sol\":3358:3370  deprecated() */\n      jump\t// in\n    tag_134:\n        /* \"contracts/Token.sol\":3354:3509  if (deprecated()) {... */\n      iszero\n      tag_135\n      jumpi\n        /* \"contracts/Token.sol\":3400:3413  upgradedToken */\n      0x02\n      0x00\n      swap1\n      sload\n      swap1\n      0x0100\n      exp\n      swap1\n      div\n      0xffffffffffffffffffffffffffffffffffffffff\n      and\n        /* \"contracts/Token.sol\":3386:3422  StandartToken(upgradedToken).approve */\n      0xffffffffffffffffffffffffffffffffffffffff\n      and\n      0x095ea7b3\n        /* \"contracts/Token.sol\":3423:3430  spender */\n      dup4\n        /* \"contracts/Token.sol\":3432:3437  value */\n      dup4\n        /* \"contracts/Token.sol\":3386:3438  StandartToken(upgradedToken).approve(spender, value) */\n      mload(0x40)\n      dup4\n      0xffffffff\n      and\n      0xe0\n      shl\n      dup2\n      mstore\n      0x04\n      add\n      tag_136\n      swap3\n      swap2\n      swap1\n      tag_137\n      jump\t// in\n    tag_136:\n      0x00\n      mload(0x40)\n      dup1\n      dup4\n      sub\n      dup2\n      0x00\n      dup8\n      dup1\n      extcodesize\n      iszero\n      dup1\n      iszero\n      tag_138\n      jumpi\n      0x00\n      dup1\n      revert\n    tag_138:\n      pop\n      gas\n      call\n      iszero\n      dup1\n      iszero\n      tag_140\n      jumpi\n      returndatasize\n      0x00\n      dup1\n      returndatacopy\n      revert(0x00, returndatasize)\n    tag_140:\n      pop\n      pop\n      pop\n      pop\n        /* \"contracts/Token.sol\":3354:3509  if (deprecated()) {... */\n      jump(tag_141)\n    tag_135:\n        /* \"contracts/Token.sol\":3469:3498  super.approve(spender, value) */\n      tag_142\n        /* \"contracts/Token.sol\":3483:3490  spender */\n      dup3\n        /* \"contracts/Token.sol\":3492:3497  value */\n      dup3\n        /* \"contracts/Token.sol\":3469:3482  super.approve */\n      tag_143\n        /* \"contracts/Token.sol\":3469:3498  super.approve(spender, value) */\n      jump\t// in\n    tag_142:\n        /* \"contracts/Token.sol\":3354:3509  if (deprecated()) {... */\n    tag_141:\n        /* \"contracts/Token.sol\":3279:3515  function approve(address spender, uint256 value) public override {... */\n      pop\n      pop\n      jump\t// out\n        /* \"contracts/UpgradableProxy.sol\":248:350  function deprecated() public view returns (bool) {... */\n    tag_44:\n        /* \"contracts/UpgradableProxy.sol\":291:295  bool */\n      0x00\n        /* \"contracts/UpgradableProxy.sol\":340:341  0 */\n      dup1\n        /* \"contracts/UpgradableProxy.sol\":315:342  upgradedToken != address(0) */\n      0xffffffffffffffffffffffffffffffffffffffff\n      and\n        /* \"contracts/UpgradableProxy.sol\":315:328  upgradedToken */\n      0x02\n      0x00\n      swap1\n      sload\n      swap1\n      0x0100\n      exp\n      swap1\n      div\n      0xffffffffffffffffffffffffffffffffffffffff\n      and\n        /* \"contracts/UpgradableProxy.sol\":315:342  upgradedToken != address(0) */\n      0xffffffffffffffffffffffffffffffffffffffff\n      and\n      eq\n      iszero\n        /* \"contracts/UpgradableProxy.sol\":307:343  return (upgradedToken != address(0)) */\n      swap1\n      pop\n        /* \"contracts/UpgradableProxy.sol\":248:350  function deprecated() public view returns (bool) {... */\n      swap1\n      jump\t// out\n        /* \"contracts/Token.sol\":1987:2013  uint256 public totalSupply */\n    tag_49:\n      sload(0x07)\n      dup2\n      jump\t// out\n        /* \"contracts/Token.sol\":3521:3813  function transferFrom(... */\n    tag_56:\n        /* \"contracts/Token.sol\":3644:3656  deprecated() */\n      tag_146\n        /* \"contracts/Token.sol\":3644:3654  deprecated */\n      tag_44\n        /* \"contracts/Token.sol\":3644:3656  deprecated() */\n      jump\t// in\n    tag_146:\n        /* \"contracts/Token.sol\":3640:3807  if (deprecated()) {... */\n      iszero\n      tag_147\n      jumpi\n        /* \"contracts/Token.sol\":3686:3699  upgradedToken */\n      0x02\n      0x00\n      swap1\n      sload\n      swap1\n      0x0100\n      exp\n      swap1\n      div\n      0xffffffffffffffffffffffffffffffffffffffff\n      and\n        /* \"contracts/Token.sol\":3672:3713  StandartToken(upgradedToken).transferFrom */\n      0xffffffffffffffffffffffffffffffffffffffff\n      and\n      0x23b872dd\n        /* \"contracts/Token.sol\":3714:3718  from */\n      dup5\n        /* \"contracts/Token.sol\":3720:3722  to */\n      dup5\n        /* \"contracts/Token.sol\":3724:3729  value */\n      dup5\n        /* \"contracts/Token.sol\":3672:3730  StandartToken(upgradedToken).transferFrom(from, to, value) */\n      mload(0x40)\n      dup5\n      0xffffffff\n      and\n      0xe0\n      shl\n      dup2\n      mstore\n      0x04\n      add\n      tag_148\n      swap4\n      swap3\n      swap2\n      swap1\n      tag_149\n      jump\t// in\n    tag_148:\n      0x00\n      mload(0x40)\n      dup1\n      dup4\n      sub\n      dup2\n      0x00\n      dup8\n      dup1\n      extcodesize\n      iszero\n      dup1\n      iszero\n      tag_150\n      jumpi\n      0x00\n      dup1\n      revert\n    tag_150:\n      pop\n      gas\n      call\n      iszero\n      dup1\n      iszero\n      tag_152\n      jumpi\n      returndatasize\n      0x00\n      dup1\n      returndatacopy\n      revert(0x00, returndatasize)\n    tag_152:\n      pop\n      pop\n      pop\n      pop\n        /* \"contracts/Token.sol\":3640:3807  if (deprecated()) {... */\n      jump(tag_153)\n    tag_147:\n        /* \"contracts/Token.sol\":3761:3796  super.transferFrom(from, to, value) */\n      tag_154\n        /* \"contracts/Token.sol\":3780:3784  from */\n      dup4\n        /* \"contracts/Token.sol\":3786:3788  to */\n      dup4\n        /* \"contracts/Token.sol\":3790:3795  value */\n      dup4\n        /* \"contracts/Token.sol\":3761:3779  super.transferFrom */\n      tag_155\n        /* \"contracts/Token.sol\":3761:3796  super.transferFrom(from, to, value) */\n      jump\t// in\n    tag_154:\n        /* \"contracts/Token.sol\":3640:3807  if (deprecated()) {... */\n    tag_153:\n        /* \"contracts/Token.sol\":3521:3813  function transferFrom(... */\n      pop\n      pop\n      pop\n      jump\t// out\n        /* \"contracts/Token.sol\":2019:2040  uint8 public decimals */\n    tag_59:\n      0x08\n      0x00\n      swap1\n      sload\n      swap1\n      0x0100\n      exp\n      swap1\n      div\n      0xff\n      and\n      dup2\n      jump\t// out\n        /* \"contracts/Token.sol\":2472:2722  function balanceOf(address account) public view override returns (uint256) {... */\n    tag_66:\n        /* \"contracts/Token.sol\":2538:2545  uint256 */\n      0x00\n        /* \"contracts/Token.sol\":2561:2573  deprecated() */\n      tag_157\n        /* \"contracts/Token.sol\":2561:2571  deprecated */\n      tag_44\n        /* \"contracts/Token.sol\":2561:2573  deprecated() */\n      jump\t// in\n    tag_157:\n        /* \"contracts/Token.sol\":2557:2716  if (deprecated()) {... */\n      iszero\n      tag_158\n      jumpi\n        /* \"contracts/Token.sol\":2610:2623  upgradedToken */\n      0x02\n      0x00\n      swap1\n      sload\n      swap1\n      0x0100\n      exp\n      swap1\n      div\n      0xffffffffffffffffffffffffffffffffffffffff\n      and\n        /* \"contracts/Token.sol\":2596:2634  StandartToken(upgradedToken).balanceOf */\n      0xffffffffffffffffffffffffffffffffffffffff\n      and\n      0x70a08231\n        /* \"contracts/Token.sol\":2635:2642  account */\n      dup4\n        /* \"contracts/Token.sol\":2596:2643  StandartToken(upgradedToken).balanceOf(account) */\n      mload(0x40)\n      dup3\n      0xffffffff\n      and\n      0xe0\n      shl\n      dup2\n      mstore\n      0x04\n      add\n      tag_159\n      swap2\n      swap1\n      tag_82\n      jump\t// in\n    tag_159:\n      0x20\n      mload(0x40)\n      dup1\n      dup4\n      sub\n      dup2\n      dup7\n      gas\n      staticcall\n      iszero\n      dup1\n      iszero\n      tag_161\n      jumpi\n      returndatasize\n      0x00\n      dup1\n      returndatacopy\n      revert(0x00, returndatasize)\n    tag_161:\n      pop\n      pop\n      pop\n      pop\n      mload(0x40)\n      returndatasize\n      not(0x1f)\n      0x1f\n      dup3\n      add\n      and\n      dup3\n      add\n      dup1\n      0x40\n      mstore\n      pop\n      dup2\n      add\n      swap1\n      tag_162\n      swap2\n      swap1\n      tag_163\n      jump\t// in\n    tag_162:\n        /* \"contracts/Token.sol\":2589:2643  return StandartToken(upgradedToken).balanceOf(account) */\n      swap1\n      pop\n      jump(tag_156)\n        /* \"contracts/Token.sol\":2557:2716  if (deprecated()) {... */\n    tag_158:\n        /* \"contracts/Token.sol\":2681:2705  super.balanceOf(account) */\n      tag_165\n        /* \"contracts/Token.sol\":2697:2704  account */\n      dup3\n        /* \"contracts/Token.sol\":2681:2696  super.balanceOf */\n      tag_166\n        /* \"contracts/Token.sol\":2681:2705  super.balanceOf(account) */\n      jump\t// in\n    tag_165:\n        /* \"contracts/Token.sol\":2674:2705  return super.balanceOf(account) */\n      swap1\n      pop\n        /* \"contracts/Token.sol\":2472:2722  function balanceOf(address account) public view override returns (uint256) {... */\n    tag_156:\n      swap2\n      swap1\n      pop\n      jump\t// out\n        /* \"@openzeppelin/contracts/access/Ownable.sol\":2293:2394  function renounceOwnership() public virtual onlyOwner {... */\n    tag_70:\n        /* \"@openzeppelin/contracts/access/Ownable.sol\":1531:1544  _checkOwner() */\n      tag_168\n        /* \"@openzeppelin/contracts/access/Ownable.sol\":1531:1542  _checkOwner */\n      tag_169\n        /* \"@openzeppelin/contracts/access/Ownable.sol\":1531:1544  _checkOwner() */\n      jump\t// in\n    tag_168:\n        /* \"@openzeppelin/contracts/access/Ownable.sol\":2357:2387  _transferOwnership(address(0)) */\n      tag_171\n        /* \"@openzeppelin/contracts/access/Ownable.sol\":2384:2385  0 */\n      0x00\n        /* \"@openzeppelin/contracts/access/Ownable.sol\":2357:2375  _transferOwnership */\n      tag_172\n        /* \"@openzeppelin/contracts/access/Ownable.sol\":2357:2387  _transferOwnership(address(0)) */\n      jump\t// in\n    tag_171:\n        /* \"@openzeppelin/contracts/access/Ownable.sol\":2293:2394  function renounceOwnership() public virtual onlyOwner {... */\n      jump\t// out\n        /* \"@openzeppelin/contracts/access/Ownable2Step.sol\":1761:1990  function acceptOwnership() public virtual {... */\n    tag_73:\n        /* \"@openzeppelin/contracts/access/Ownable2Step.sol\":1813:1827  address sender */\n      0x00\n        /* \"@openzeppelin/contracts/access/Ownable2Step.sol\":1830:1842  _msgSender() */\n      tag_174\n        /* \"@openzeppelin/contracts/access/Ownable2Step.sol\":1830:1840  _msgSender */\n      tag_175\n        /* \"@openzeppelin/contracts/access/Ownable2Step.sol\":1830:1842  _msgSender() */\n      jump\t// in\n    tag_174:\n        /* \"@openzeppelin/contracts/access/Ownable2Step.sol\":1813:1842  address sender = _msgSender() */\n      swap1\n      pop\n        /* \"@openzeppelin/contracts/access/Ownable2Step.sol\":1874:1880  sender */\n      dup1\n        /* \"@openzeppelin/contracts/access/Ownable2Step.sol\":1856:1880  pendingOwner() != sender */\n      0xffffffffffffffffffffffffffffffffffffffff\n      and\n        /* \"@openzeppelin/contracts/access/Ownable2Step.sol\":1856:1870  pendingOwner() */\n      tag_176\n        /* \"@openzeppelin/contracts/access/Ownable2Step.sol\":1856:1868  pendingOwner */\n      tag_104\n        /* \"@openzeppelin/contracts/access/Ownable2Step.sol\":1856:1870  pendingOwner() */\n      jump\t// in\n    tag_176:\n        /* \"@openzeppelin/contracts/access/Ownable2Step.sol\":1856:1880  pendingOwner() != sender */\n      0xffffffffffffffffffffffffffffffffffffffff\n      and\n      eq\n        /* \"@openzeppelin/contracts/access/Ownable2Step.sol\":1852:1948  if (pendingOwner() != sender) {... */\n      tag_177\n      jumpi\n        /* \"@openzeppelin/contracts/access/Ownable2Step.sol\":1930:1936  sender */\n      dup1\n        /* \"@openzeppelin/contracts/access/Ownable2Step.sol\":1903:1937  OwnableUnauthorizedAccount(sender) */\n      mload(0x40)\n      0x118cdaa700000000000000000000000000000000000000000000000000000000\n      dup2\n      mstore\n      0x04\n      add\n      tag_178\n      swap2\n      swap1\n      tag_82\n      jump\t// in\n    tag_178:\n      mload(0x40)\n      dup1\n      swap2\n      sub\n      swap1\n      revert\n        /* \"@openzeppelin/contracts/access/Ownable2Step.sol\":1852:1948  if (pendingOwner() != sender) {... */\n    tag_177:\n        /* \"@openzeppelin/contracts/access/Ownable2Step.sol\":1957:1983  _transferOwnership(sender) */\n      tag_179\n        /* \"@openzeppelin/contracts/access/Ownable2Step.sol\":1976:1982  sender */\n      dup2\n        /* \"@openzeppelin/contracts/access/Ownable2Step.sol\":1957:1975  _transferOwnership */\n      tag_172\n        /* \"@openzeppelin/contracts/access/Ownable2Step.sol\":1957:1983  _transferOwnership(sender) */\n      jump\t// in\n    tag_179:\n        /* \"@openzeppelin/contracts/access/Ownable2Step.sol\":1803:1990  {... */\n      pop\n        /* \"@openzeppelin/contracts/access/Ownable2Step.sol\":1761:1990  function acceptOwnership() public virtual {... */\n      jump\t// out\n        /* \"contracts/Token.sol\":3946:4116  function issue(address account, uint256 value) external {... */\n    tag_77:\n        /* \"contracts/Token.sol\":4027:4032  value */\n      dup1\n        /* \"contracts/Token.sol\":4012:4023  totalSupply */\n      0x07\n      0x00\n        /* \"contracts/Token.sol\":4012:4032  totalSupply += value */\n      dup3\n      dup3\n      sload\n      tag_181\n      swap2\n      swap1\n      tag_182\n      jump\t// in\n    tag_181:\n      swap3\n      pop\n      pop\n      dup2\n      swap1\n      sstore\n      pop\n        /* \"contracts/Token.sol\":4047:4059  Issue(value) */\n      0xcb8241adb0c3fdb35b70c24ce35c5eb0c17af7431c99f827d44a445ca624176a\n        /* \"contracts/Token.sol\":4053:4058  value */\n      dup2\n        /* \"contracts/Token.sol\":4047:4059  Issue(value) */\n      mload(0x40)\n      tag_183\n      swap2\n      swap1\n      tag_51\n      jump\t// in\n    tag_183:\n      mload(0x40)\n      dup1\n      swap2\n      sub\n      swap1\n      log1\n        /* \"contracts/Token.sol\":4069:4109  _transfer(address(this), account, value) */\n      tag_184\n        /* \"contracts/Token.sol\":4087:4091  this */\n      address\n        /* \"contracts/Token.sol\":4094:4101  account */\n      dup4\n        /* \"contracts/Token.sol\":4103:4108  value */\n      dup4\n        /* \"contracts/Token.sol\":4069:4078  _transfer */\n      tag_185\n        /* \"contracts/Token.sol\":4069:4109  _transfer(address(this), account, value) */\n      jump\t// in\n    tag_184:\n        /* \"contracts/Token.sol\":3946:4116  function issue(address account, uint256 value) external {... */\n      pop\n      pop\n      jump\t// out\n        /* \"@openzeppelin/contracts/access/Ownable.sol\":1638:1723  function owner() public view virtual returns (address) {... */\n    tag_80:\n        /* \"@openzeppelin/contracts/access/Ownable.sol\":1684:1691  address */\n      0x00\n        /* \"@openzeppelin/contracts/access/Ownable.sol\":1710:1716  _owner */\n      0x03\n      0x00\n      swap1\n      sload\n      swap1\n      0x0100\n      exp\n      swap1\n      div\n      0xffffffffffffffffffffffffffffffffffffffff\n      and\n        /* \"@openzeppelin/contracts/access/Ownable.sol\":1703:1716  return _owner */\n      swap1\n      pop\n        /* \"@openzeppelin/contracts/access/Ownable.sol\":1638:1723  function owner() public view virtual returns (address) {... */\n      swap1\n      jump\t// out\n        /* \"contracts/Token.sol\":1961:1981  string public symbol */\n    tag_85:\n      0x06\n      dup1\n      sload\n      tag_187\n      swap1\n      tag_128\n      jump\t// in\n    tag_187:\n      dup1\n      0x1f\n      add\n      0x20\n      dup1\n      swap2\n      div\n      mul\n      0x20\n      add\n      mload(0x40)\n      swap1\n      dup2\n      add\n      0x40\n      mstore\n      dup1\n      swap3\n      swap2\n      swap1\n      dup2\n      dup2\n      mstore\n      0x20\n      add\n      dup3\n      dup1\n      sload\n      tag_188\n      swap1\n      tag_128\n      jump\t// in\n    tag_188:\n      dup1\n      iszero\n      tag_189\n      jumpi\n      dup1\n      0x1f\n      lt\n      tag_190\n      jumpi\n      0x0100\n      dup1\n      dup4\n      sload\n      div\n      mul\n      dup4\n      mstore\n      swap2\n      0x20\n      add\n      swap2\n      jump(tag_189)\n    tag_190:\n      dup3\n      add\n      swap2\n      swap1\n      0x00\n      mstore\n      keccak256(0x00, 0x20)\n      swap1\n    tag_191:\n      dup2\n      sload\n      dup2\n      mstore\n      swap1\n      0x01\n      add\n      swap1\n      0x20\n      add\n      dup1\n      dup4\n      gt\n      tag_191\n      jumpi\n      dup3\n      swap1\n      sub\n      0x1f\n      and\n      dup3\n      add\n      swap2\n    tag_189:\n      pop\n      pop\n      pop\n      pop\n      pop\n      dup2\n      jump\t// out\n        /* \"contracts/Token.sol\":2728:2952  function transfer(address to, uint256 value) public override {... */\n    tag_90:\n        /* \"contracts/Token.sol\":2803:2815  deprecated() */\n      tag_193\n        /* \"contracts/Token.sol\":2803:2813  deprecated */\n      tag_44\n        /* \"contracts/Token.sol\":2803:2815  deprecated() */\n      jump\t// in\n    tag_193:\n        /* \"contracts/Token.sol\":2799:2946  if (deprecated()) {... */\n      iszero\n      tag_194\n      jumpi\n        /* \"contracts/Token.sol\":2845:2858  upgradedToken */\n      0x02\n      0x00\n      swap1\n      sload\n      swap1\n      0x0100\n      exp\n      swap1\n      div\n      0xffffffffffffffffffffffffffffffffffffffff\n      and\n        /* \"contracts/Token.sol\":2831:2868  StandartToken(upgradedToken).transfer */\n      0xffffffffffffffffffffffffffffffffffffffff\n      and\n      0xa9059cbb\n        /* \"contracts/Token.sol\":2869:2871  to */\n      dup4\n        /* \"contracts/Token.sol\":2873:2878  value */\n      dup4\n        /* \"contracts/Token.sol\":2831:2879  StandartToken(upgradedToken).transfer(to, value) */\n      mload(0x40)\n      dup4\n      0xffffffff\n      and\n      0xe0\n      shl\n      dup2\n      mstore\n      0x04\n      add\n      tag_195\n      swap3\n      swap2\n      swap1\n      tag_137\n      jump\t// in\n    tag_195:\n      0x00\n      mload(0x40)\n      dup1\n      dup4\n      sub\n      dup2\n      0x00\n      dup8\n      dup1\n      extcodesize\n      iszero\n      dup1\n      iszero\n      tag_196\n      jumpi\n      0x00\n      dup1\n      revert\n    tag_196:\n      pop\n      gas\n      call\n      iszero\n      dup1\n      iszero\n      tag_198\n      jumpi\n      returndatasize\n      0x00\n      dup1\n      returndatacopy\n      revert(0x00, returndatasize)\n    tag_198:\n      pop\n      pop\n      pop\n      pop\n        /* \"contracts/Token.sol\":2799:2946  if (deprecated()) {... */\n      jump(tag_199)\n    tag_194:\n        /* \"contracts/Token.sol\":2910:2935  super.transfer(to, value) */\n      tag_200\n        /* \"contracts/Token.sol\":2925:2927  to */\n      dup3\n        /* \"contracts/Token.sol\":2929:2934  value */\n      dup3\n        /* \"contracts/Token.sol\":2910:2924  super.transfer */\n      tag_201\n        /* \"contracts/Token.sol\":2910:2935  super.transfer(to, value) */\n      jump\t// in\n    tag_200:\n        /* \"contracts/Token.sol\":2799:2946  if (deprecated()) {... */\n    tag_199:\n        /* \"contracts/Token.sol\":2728:2952  function transfer(address to, uint256 value) public override {... */\n      pop\n      pop\n      jump\t// out\n        /* \"contracts/Token.sol\":4122:4280  function redeem(uint256 value) external {... */\n    tag_95:\n        /* \"contracts/Token.sol\":4187:4192  value */\n      dup1\n        /* \"contracts/Token.sol\":4172:4183  totalSupply */\n      0x07\n      0x00\n        /* \"contracts/Token.sol\":4172:4192  totalSupply -= value */\n      dup3\n      dup3\n      sload\n      tag_203\n      swap2\n      swap1\n      tag_204\n      jump\t// in\n    tag_203:\n      swap3\n      pop\n      pop\n      dup2\n      swap1\n      sstore\n      pop\n        /* \"contracts/Token.sol\":4207:4220  Redeem(value) */\n      0x702d5967f45f6513a38ffc42d6ba9bf230bd40e8f53b16363c7eb4fd2deb9a44\n        /* \"contracts/Token.sol\":4214:4219  value */\n      dup2\n        /* \"contracts/Token.sol\":4207:4220  Redeem(value) */\n      mload(0x40)\n      tag_205\n      swap2\n      swap1\n      tag_51\n      jump\t// in\n    tag_205:\n      mload(0x40)\n      dup1\n      swap2\n      sub\n      swap1\n      log1\n        /* \"contracts/Token.sol\":4230:4273  _transfer(msg.sender, address(this), value) */\n      tag_206\n        /* \"contracts/Token.sol\":4240:4250  msg.sender */\n      caller\n        /* \"contracts/Token.sol\":4260:4264  this */\n      address\n        /* \"contracts/Token.sol\":4267:4272  value */\n      dup4\n        /* \"contracts/Token.sol\":4230:4239  _transfer */\n      tag_185\n        /* \"contracts/Token.sol\":4230:4273  _transfer(msg.sender, address(this), value) */\n      jump\t// in\n    tag_206:\n        /* \"contracts/Token.sol\":4122:4280  function redeem(uint256 value) external {... */\n      pop\n      jump\t// out\n        /* \"contracts/Token.sol\":2958:3273  function allowance(address owner, address spender)... */\n    tag_100:\n        /* \"contracts/Token.sol\":3071:3078  uint256 */\n      0x00\n        /* \"contracts/Token.sol\":3098:3110  deprecated() */\n      tag_208\n        /* \"contracts/Token.sol\":3098:3108  deprecated */\n      tag_44\n        /* \"contracts/Token.sol\":3098:3110  deprecated() */\n      jump\t// in\n    tag_208:\n        /* \"contracts/Token.sol\":3094:3267  if (deprecated()) {... */\n      iszero\n      tag_209\n      jumpi\n        /* \"contracts/Token.sol\":3147:3160  upgradedToken */\n      0x02\n      0x00\n      swap1\n      sload\n      swap1\n      0x0100\n      exp\n      swap1\n      div\n      0xffffffffffffffffffffffffffffffffffffffff\n      and\n        /* \"contracts/Token.sol\":3133:3171  StandartToken(upgradedToken).allowance */\n      0xffffffffffffffffffffffffffffffffffffffff\n      and\n      0xdd62ed3e\n        /* \"contracts/Token.sol\":3172:3177  owner */\n      dup5\n        /* \"contracts/Token.sol\":3179:3186  spender */\n      dup5\n        /* \"contracts/Token.sol\":3133:3187  StandartToken(upgradedToken).allowance(owner, spender) */\n      mload(0x40)\n      dup4\n      0xffffffff\n      and\n      0xe0\n      shl\n      dup2\n      mstore\n      0x04\n      add\n      tag_210\n      swap3\n      swap2\n      swap1\n      tag_211\n      jump\t// in\n    tag_210:\n      0x20\n      mload(0x40)\n      dup1\n      dup4\n      sub\n      dup2\n      dup7\n      gas\n      staticcall\n      iszero\n      dup1\n      iszero\n      tag_213\n      jumpi\n      returndatasize\n      0x00\n      dup1\n      returndatacopy\n      revert(0x00, returndatasize)\n    tag_213:\n      pop\n      pop\n      pop\n      pop\n      mload(0x40)\n      returndatasize\n      not(0x1f)\n      0x1f\n      dup3\n      add\n      and\n      dup3\n      add\n      dup1\n      0x40\n      mstore\n      pop\n      dup2\n      add\n      swap1\n      tag_214\n      swap2\n      swap1\n      tag_163\n      jump\t// in\n    tag_214:\n        /* \"contracts/Token.sol\":3126:3187  return StandartToken(upgradedToken).allowance(owner, spender) */\n      swap1\n      pop\n      jump(tag_207)\n        /* \"contracts/Token.sol\":3094:3267  if (deprecated()) {... */\n    tag_209:\n        /* \"contracts/Token.sol\":3225:3256  super.allowance(owner, spender) */\n      tag_216\n        /* \"contracts/Token.sol\":3241:3246  owner */\n      dup4\n        /* \"contracts/Token.sol\":3248:3255  spender */\n      dup4\n        /* \"contracts/Token.sol\":3225:3240  super.allowance */\n      tag_217\n        /* \"contracts/Token.sol\":3225:3256  super.allowance(owner, spender) */\n      jump\t// in\n    tag_216:\n        /* \"contracts/Token.sol\":3218:3256  return super.allowance(owner, spender) */\n      swap1\n      pop\n        /* \"contracts/Token.sol\":2958:3273  function allowance(address owner, address spender)... */\n    tag_207:\n      swap3\n      swap2\n      pop\n      pop\n      jump\t// out\n        /* \"@openzeppelin/contracts/access/Ownable2Step.sol\":874:973  function pendingOwner() public view virtual returns (address) {... */\n    tag_104:\n        /* \"@openzeppelin/contracts/access/Ownable2Step.sol\":927:934  address */\n      0x00\n        /* \"@openzeppelin/contracts/access/Ownable2Step.sol\":953:966  _pendingOwner */\n      0x04\n      0x00\n      swap1\n      sload\n      swap1\n      0x0100\n      exp\n      swap1\n      div\n      0xffffffffffffffffffffffffffffffffffffffff\n      and\n        /* \"@openzeppelin/contracts/access/Ownable2Step.sol\":946:966  return _pendingOwner */\n      swap1\n      pop\n        /* \"@openzeppelin/contracts/access/Ownable2Step.sol\":874:973  function pendingOwner() public view virtual returns (address) {... */\n      swap1\n      jump\t// out\n        /* \"contracts/Token.sol\":3819:3940  function upgradeContract(address upgradedContract) external onlyOwner {... */\n    tag_109:\n        /* \"@openzeppelin/contracts/access/Ownable.sol\":1531:1544  _checkOwner() */\n      tag_220\n        /* \"@openzeppelin/contracts/access/Ownable.sol\":1531:1542  _checkOwner */\n      tag_169\n        /* \"@openzeppelin/contracts/access/Ownable.sol\":1531:1544  _checkOwner() */\n      jump\t// in\n    tag_220:\n        /* \"contracts/Token.sol\":3899:3933  _upgradeContract(upgradedContract) */\n      tag_222\n        /* \"contracts/Token.sol\":3916:3932  upgradedContract */\n      dup2\n        /* \"contracts/Token.sol\":3899:3915  _upgradeContract */\n      tag_223\n        /* \"contracts/Token.sol\":3899:3933  _upgradeContract(upgradedContract) */\n      jump\t// in\n    tag_222:\n        /* \"contracts/Token.sol\":3819:3940  function upgradeContract(address upgradedContract) external onlyOwner {... */\n      pop\n      jump\t// out\n        /* \"@openzeppelin/contracts/access/Ownable2Step.sol\":1166:1344  function transferOwnership(address newOwner) public virtual override onlyOwner {... */\n    tag_113:\n        /* \"@openzeppelin/contracts/access/Ownable.sol\":1531:1544  _checkOwner() */\n      tag_225\n        /* \"@openzeppelin/contracts/access/Ownable.sol\":1531:1542  _checkOwner */\n      tag_169\n        /* \"@openzeppelin/contracts/access/Ownable.sol\":1531:1544  _checkOwner() */\n      jump\t// in\n    tag_225:\n        /* \"@openzeppelin/contracts/access/Ownable2Step.sol\":1271:1279  newOwner */\n      dup1\n        /* \"@openzeppelin/contracts/access/Ownable2Step.sol\":1255:1268  _pendingOwner */\n      0x04\n      0x00\n        /* \"@openzeppelin/contracts/access/Ownable2Step.sol\":1255:1279  _pendingOwner = newOwner */\n      0x0100\n      exp\n      dup2\n      sload\n      dup2\n      0xffffffffffffffffffffffffffffffffffffffff\n      mul\n      not\n      and\n      swap1\n      dup4\n      0xffffffffffffffffffffffffffffffffffffffff\n      and\n      mul\n      or\n      swap1\n      sstore\n      pop\n        /* \"@openzeppelin/contracts/access/Ownable2Step.sol\":1328:1336  newOwner */\n      dup1\n        /* \"@openzeppelin/contracts/access/Ownable2Step.sol\":1294:1337  OwnershipTransferStarted(owner(), newOwner) */\n      0xffffffffffffffffffffffffffffffffffffffff\n      and\n        /* \"@openzeppelin/contracts/access/Ownable2Step.sol\":1319:1326  owner() */\n      tag_227\n        /* \"@openzeppelin/contracts/access/Ownable2Step.sol\":1319:1324  owner */\n      tag_80\n        /* \"@openzeppelin/contracts/access/Ownable2Step.sol\":1319:1326  owner() */\n      jump\t// in\n    tag_227:\n        /* \"@openzeppelin/contracts/access/Ownable2Step.sol\":1294:1337  OwnershipTransferStarted(owner(), newOwner) */\n      0xffffffffffffffffffffffffffffffffffffffff\n      and\n      0x38d16b8cac22d99fc7c124b9cd0de2d3fa1faef420bfe791d8c362d765e22700\n      mload(0x40)\n      mload(0x40)\n      dup1\n      swap2\n      sub\n      swap1\n      log3\n        /* \"@openzeppelin/contracts/access/Ownable2Step.sol\":1166:1344  function transferOwnership(address newOwner) public virtual override onlyOwner {... */\n      pop\n      jump\t// out\n        /* \"contracts/UpgradableProxy.sol\":158:186  address public upgradedToken */\n    tag_116:\n      0x02\n      0x00\n      swap1\n      sload\n      swap1\n      0x0100\n      exp\n      swap1\n      div\n      0xffffffffffffffffffffffffffffffffffffffff\n      and\n      dup2\n      jump\t// out\n        /* \"contracts/Token.sol\":2047:2085  string public constant VERSION = \"0.1\" */\n    tag_120:\n      mload(0x40)\n      dup1\n      0x40\n      add\n      0x40\n      mstore\n      dup1\n      0x03\n      dup2\n      mstore\n      0x20\n      add\n      0x302e310000000000000000000000000000000000000000000000000000000000\n      dup2\n      mstore\n      pop\n      dup2\n      jump\t// out\n        /* \"contracts/UpgradableProxy.sol\":521:719  function _implementation() internal view override returns (address) {... */\n    tag_125:\n        /* \"contracts/UpgradableProxy.sol\":580:587  address */\n      0x00\n        /* \"contracts/UpgradableProxy.sol\":603:615  deprecated() */\n      tag_229\n        /* \"contracts/UpgradableProxy.sol\":603:613  deprecated */\n      tag_44\n        /* \"contracts/UpgradableProxy.sol\":603:615  deprecated() */\n      jump\t// in\n    tag_229:\n        /* \"contracts/UpgradableProxy.sol\":599:713  if (deprecated()) {... */\n      iszero\n      tag_230\n      jumpi\n        /* \"contracts/UpgradableProxy.sol\":638:651  upgradedToken */\n      0x02\n      0x00\n      swap1\n      sload\n      swap1\n      0x0100\n      exp\n      swap1\n      div\n      0xffffffffffffffffffffffffffffffffffffffff\n      and\n        /* \"contracts/UpgradableProxy.sol\":631:651  return upgradedToken */\n      swap1\n      pop\n      jump(tag_228)\n        /* \"contracts/UpgradableProxy.sol\":599:713  if (deprecated()) {... */\n    tag_230:\n        /* \"contracts/UpgradableProxy.sol\":697:701  this */\n      address\n        /* \"contracts/UpgradableProxy.sol\":682:702  return address(this) */\n      swap1\n      pop\n        /* \"contracts/UpgradableProxy.sol\":521:719  function _implementation() internal view override returns (address) {... */\n    tag_228:\n      swap1\n      jump\t// out\n        /* \"@openzeppelin/contracts/proxy/Proxy.sol\":949:1844  function _delegate(address implementation) internal virtual {... */\n    tag_126:\n        /* \"@openzeppelin/contracts/proxy/Proxy.sol\":1287:1301  calldatasize() */\n      calldatasize\n        /* \"@openzeppelin/contracts/proxy/Proxy.sol\":1284:1285  0 */\n      0x00\n        /* \"@openzeppelin/contracts/proxy/Proxy.sol\":1281:1282  0 */\n      dup1\n        /* \"@openzeppelin/contracts/proxy/Proxy.sol\":1268:1302  calldatacopy(0, 0, calldatasize()) */\n      calldatacopy\n        /* \"@openzeppelin/contracts/proxy/Proxy.sol\":1501:1502  0 */\n      0x00\n        /* \"@openzeppelin/contracts/proxy/Proxy.sol\":1498:1499  0 */\n      dup1\n        /* \"@openzeppelin/contracts/proxy/Proxy.sol\":1482:1496  calldatasize() */\n      calldatasize\n        /* \"@openzeppelin/contracts/proxy/Proxy.sol\":1479:1480  0 */\n      0x00\n        /* \"@openzeppelin/contracts/proxy/Proxy.sol\":1463:1477  implementation */\n      dup5\n        /* \"@openzeppelin/contracts/proxy/Proxy.sol\":1456:1461  gas() */\n      gas\n        /* \"@openzeppelin/contracts/proxy/Proxy.sol\":1443:1503  delegatecall(gas(), implementation, 0, calldatasize(), 0, 0) */\n      delegatecall\n        /* \"@openzeppelin/contracts/proxy/Proxy.sol\":1577:1593  returndatasize() */\n      returndatasize\n        /* \"@openzeppelin/contracts/proxy/Proxy.sol\":1574:1575  0 */\n      0x00\n        /* \"@openzeppelin/contracts/proxy/Proxy.sol\":1571:1572  0 */\n      dup1\n        /* \"@openzeppelin/contracts/proxy/Proxy.sol\":1556:1594  returndatacopy(0, 0, returndatasize()) */\n      returndatacopy\n        /* \"@openzeppelin/contracts/proxy/Proxy.sol\":1615:1621  result */\n      dup1\n        /* \"@openzeppelin/contracts/proxy/Proxy.sol\":1687:1688  0 */\n      0x00\n        /* \"@openzeppelin/contracts/proxy/Proxy.sol\":1682:1748  case 0 {... */\n      dup2\n      eq\n      tag_234\n      jumpi\n        /* \"@openzeppelin/contracts/proxy/Proxy.sol\":1797:1813  returndatasize() */\n      returndatasize\n        /* \"@openzeppelin/contracts/proxy/Proxy.sol\":1794:1795  0 */\n      0x00\n        /* \"@openzeppelin/contracts/proxy/Proxy.sol\":1787:1814  return(0, returndatasize()) */\n      return\n        /* \"@openzeppelin/contracts/proxy/Proxy.sol\":1682:1748  case 0 {... */\n    tag_234:\n        /* \"@openzeppelin/contracts/proxy/Proxy.sol\":1717:1733  returndatasize() */\n      returndatasize\n        /* \"@openzeppelin/contracts/proxy/Proxy.sol\":1714:1715  0 */\n      0x00\n        /* \"@openzeppelin/contracts/proxy/Proxy.sol\":1707:1734  revert(0, returndatasize()) */\n      revert\n        /* \"contracts/Token.sol\":1323:1535  function approve(address spender, uint256 value) public virtual {... */\n    tag_143:\n        /* \"contracts/Token.sol\":1424:1425  0 */\n      0x00\n        /* \"contracts/Token.sol\":1405:1426  spender != address(0) */\n      0xffffffffffffffffffffffffffffffffffffffff\n      and\n        /* \"contracts/Token.sol\":1405:1412  spender */\n      dup3\n        /* \"contracts/Token.sol\":1405:1426  spender != address(0) */\n      0xffffffffffffffffffffffffffffffffffffffff\n      and\n      sub\n        /* \"contracts/Token.sol\":1397:1427  require(spender != address(0)) */\n      tag_236\n      jumpi\n      0x00\n      dup1\n      revert\n    tag_236:\n        /* \"contracts/Token.sol\":1472:1477  value */\n      dup1\n        /* \"contracts/Token.sol\":1437:1448  _allowances */\n      0x01\n        /* \"contracts/Token.sol\":1437:1460  _allowances[msg.sender] */\n      0x00\n        /* \"contracts/Token.sol\":1449:1459  msg.sender */\n      caller\n        /* \"contracts/Token.sol\":1437:1460  _allowances[msg.sender] */\n      0xffffffffffffffffffffffffffffffffffffffff\n      and\n      0xffffffffffffffffffffffffffffffffffffffff\n      and\n      dup2\n      mstore\n      0x20\n      add\n      swap1\n      dup2\n      mstore\n      0x20\n      add\n      0x00\n      keccak256\n        /* \"contracts/Token.sol\":1437:1469  _allowances[msg.sender][spender] */\n      0x00\n        /* \"contracts/Token.sol\":1461:1468  spender */\n      dup5\n        /* \"contracts/Token.sol\":1437:1469  _allowances[msg.sender][spender] */\n      0xffffffffffffffffffffffffffffffffffffffff\n      and\n      0xffffffffffffffffffffffffffffffffffffffff\n      and\n      dup2\n      mstore\n      0x20\n      add\n      swap1\n      dup2\n      mstore\n      0x20\n      add\n      0x00\n      keccak256\n        /* \"contracts/Token.sol\":1437:1477  _allowances[msg.sender][spender] = value */\n      dup2\n      swap1\n      sstore\n      pop\n        /* \"contracts/Token.sol\":1513:1520  spender */\n      dup2\n        /* \"contracts/Token.sol\":1492:1528  Approval(msg.sender, spender, value) */\n      0xffffffffffffffffffffffffffffffffffffffff\n      and\n        /* \"contracts/Token.sol\":1501:1511  msg.sender */\n      caller\n        /* \"contracts/Token.sol\":1492:1528  Approval(msg.sender, spender, value) */\n      0xffffffffffffffffffffffffffffffffffffffff\n      and\n      0x8c5be1e5ebec7d5bd14f71427d1e84f3dd0314c0f7b2291e5b200ac8c7c3b925\n        /* \"contracts/Token.sol\":1522:1527  value */\n      dup4\n        /* \"contracts/Token.sol\":1492:1528  Approval(msg.sender, spender, value) */\n      mload(0x40)\n      tag_237\n      swap2\n      swap1\n      tag_51\n      jump\t// in\n    tag_237:\n      mload(0x40)\n      dup1\n      swap2\n      sub\n      swap1\n      log3\n        /* \"contracts/Token.sol\":1323:1535  function approve(address spender, uint256 value) public virtual {... */\n      pop\n      pop\n      jump\t// out\n        /* \"contracts/Token.sol\":1541:1858  function transferFrom(... */\n    tag_155:\n        /* \"contracts/Token.sol\":1684:1685  0 */\n      0x00\n        /* \"contracts/Token.sol\":1668:1686  from != address(0) */\n      0xffffffffffffffffffffffffffffffffffffffff\n      and\n        /* \"contracts/Token.sol\":1668:1672  from */\n      dup4\n        /* \"contracts/Token.sol\":1668:1686  from != address(0) */\n      0xffffffffffffffffffffffffffffffffffffffff\n      and\n      eq\n      iszero\n        /* \"contracts/Token.sol\":1667:1709  (from != address(0)) && (to != address(0)) */\n      dup1\n      iszero\n      tag_239\n      jumpi\n      pop\n        /* \"contracts/Token.sol\":1706:1707  0 */\n      0x00\n        /* \"contracts/Token.sol\":1692:1708  to != address(0) */\n      0xffffffffffffffffffffffffffffffffffffffff\n      and\n        /* \"contracts/Token.sol\":1692:1694  to */\n      dup3\n        /* \"contracts/Token.sol\":1692:1708  to != address(0) */\n      0xffffffffffffffffffffffffffffffffffffffff\n      and\n      eq\n      iszero\n        /* \"contracts/Token.sol\":1667:1709  (from != address(0)) && (to != address(0)) */\n    tag_239:\n        /* \"contracts/Token.sol\":1659:1710  require((from != address(0)) && (to != address(0))) */\n      tag_240\n      jumpi\n      0x00\n      dup1\n      revert\n    tag_240:\n        /* \"contracts/Token.sol\":1761:1766  value */\n      dup1\n        /* \"contracts/Token.sol\":1728:1739  _allowances */\n      0x01\n        /* \"contracts/Token.sol\":1728:1745  _allowances[from] */\n      0x00\n        /* \"contracts/Token.sol\":1740:1744  from */\n      dup6\n        /* \"contracts/Token.sol\":1728:1745  _allowances[from] */\n      0xffffffffffffffffffffffffffffffffffffffff\n      and\n      0xffffffffffffffffffffffffffffffffffffffff\n      and\n      dup2\n      mstore\n      0x20\n      add\n      swap1\n      dup2\n      mstore\n      0x20\n      add\n      0x00\n      keccak256\n        /* \"contracts/Token.sol\":1728:1757  _allowances[from][msg.sender] */\n      0x00\n        /* \"contracts/Token.sol\":1746:1756  msg.sender */\n      caller\n        /* \"contracts/Token.sol\":1728:1757  _allowances[from][msg.sender] */\n      0xffffffffffffffffffffffffffffffffffffffff\n      and\n      0xffffffffffffffffffffffffffffffffffffffff\n      and\n      dup2\n      mstore\n      0x20\n      add\n      swap1\n      dup2\n      mstore\n      0x20\n      add\n      0x00\n      keccak256\n      sload\n        /* \"contracts/Token.sol\":1728:1766  _allowances[from][msg.sender] >= value */\n      lt\n      iszero\n        /* \"contracts/Token.sol\":1720:1767  require(_allowances[from][msg.sender] >= value) */\n      tag_241\n      jumpi\n      0x00\n      dup1\n      revert\n    tag_241:\n        /* \"contracts/Token.sol\":1777:1803  _transfer(from, to, value) */\n      tag_242\n        /* \"contracts/Token.sol\":1787:1791  from */\n      dup4\n        /* \"contracts/Token.sol\":1793:1795  to */\n      dup4\n        /* \"contracts/Token.sol\":1797:1802  value */\n      dup4\n        /* \"contracts/Token.sol\":1777:1786  _transfer */\n      tag_185\n        /* \"contracts/Token.sol\":1777:1803  _transfer(from, to, value) */\n      jump\t// in\n    tag_242:\n        /* \"contracts/Token.sol\":1846:1851  value */\n      dup1\n        /* \"contracts/Token.sol\":1813:1824  _allowances */\n      0x01\n        /* \"contracts/Token.sol\":1813:1830  _allowances[from] */\n      0x00\n        /* \"contracts/Token.sol\":1825:1829  from */\n      dup6\n        /* \"contracts/Token.sol\":1813:1830  _allowances[from] */\n      0xffffffffffffffffffffffffffffffffffffffff\n      and\n      0xffffffffffffffffffffffffffffffffffffffff\n      and\n      dup2\n      mstore\n      0x20\n      add\n      swap1\n      dup2\n      mstore\n      0x20\n      add\n      0x00\n      keccak256\n        /* \"contracts/Token.sol\":1813:1842  _allowances[from][msg.sender] */\n      0x00\n        /* \"contracts/Token.sol\":1831:1841  msg.sender */\n      caller\n        /* \"contracts/Token.sol\":1813:1842  _allowances[from][msg.sender] */\n      0xffffffffffffffffffffffffffffffffffffffff\n      and\n      0xffffffffffffffffffffffffffffffffffffffff\n      and\n      dup2\n      mstore\n      0x20\n      add\n      swap1\n      dup2\n      mstore\n      0x20\n      add\n      0x00\n      keccak256\n      0x00\n        /* \"contracts/Token.sol\":1813:1851  _allowances[from][msg.sender] -= value */\n      dup3\n      dup3\n      sload\n      tag_243\n      swap2\n      swap1\n      tag_204\n      jump\t// in\n    tag_243:\n      swap3\n      pop\n      pop\n      dup2\n      swap1\n      sstore\n      pop\n        /* \"contracts/Token.sol\":1541:1858  function transferFrom(... */\n      pop\n      pop\n      pop\n      jump\t// out\n        /* \"contracts/Token.sol\":570:686  function balanceOf(address account) public view virtual returns (uint256) {... */\n    tag_166:\n        /* \"contracts/Token.sol\":635:642  uint256 */\n      0x00\n        /* \"contracts/Token.sol\":661:670  _balances */\n      dup1\n        /* \"contracts/Token.sol\":661:679  _balances[account] */\n      0x00\n        /* \"contracts/Token.sol\":671:678  account */\n      dup4\n        /* \"contracts/Token.sol\":661:679  _balances[account] */\n      0xffffffffffffffffffffffffffffffffffffffff\n      and\n      0xffffffffffffffffffffffffffffffffffffffff\n      and\n      dup2\n      mstore\n      0x20\n      add\n      swap1\n      dup2\n      mstore\n      0x20\n      add\n      0x00\n      keccak256\n      sload\n        /* \"contracts/Token.sol\":654:679  return _balances[account] */\n      swap1\n      pop\n        /* \"contracts/Token.sol\":570:686  function balanceOf(address account) public view virtual returns (uint256) {... */\n      swap2\n      swap1\n      pop\n      jump\t// out\n        /* \"@openzeppelin/contracts/access/Ownable.sol\":1796:1958  function _checkOwner() internal view virtual {... */\n    tag_169:\n        /* \"@openzeppelin/contracts/access/Ownable.sol\":1866:1878  _msgSender() */\n      tag_246\n        /* \"@openzeppelin/contracts/access/Ownable.sol\":1866:1876  _msgSender */\n      tag_175\n        /* \"@openzeppelin/contracts/access/Ownable.sol\":1866:1878  _msgSender() */\n      jump\t// in\n    tag_246:\n        /* \"@openzeppelin/contracts/access/Ownable.sol\":1855:1878  owner() != _msgSender() */\n      0xffffffffffffffffffffffffffffffffffffffff\n      and\n        /* \"@openzeppelin/contracts/access/Ownable.sol\":1855:1862  owner() */\n      tag_247\n        /* \"@openzeppelin/contracts/access/Ownable.sol\":1855:1860  owner */\n      tag_80\n        /* \"@openzeppelin/contracts/access/Ownable.sol\":1855:1862  owner() */\n      jump\t// in\n    tag_247:\n        /* \"@openzeppelin/contracts/access/Ownable.sol\":1855:1878  owner() != _msgSender() */\n      0xffffffffffffffffffffffffffffffffffffffff\n      and\n      eq\n        /* \"@openzeppelin/contracts/access/Ownable.sol\":1851:1952  if (owner() != _msgSender()) {... */\n      tag_248\n      jumpi\n        /* \"@openzeppelin/contracts/access/Ownable.sol\":1928:1940  _msgSender() */\n      tag_249\n        /* \"@openzeppelin/contracts/access/Ownable.sol\":1928:1938  _msgSender */\n      tag_175\n        /* \"@openzeppelin/contracts/access/Ownable.sol\":1928:1940  _msgSender() */\n      jump\t// in\n    tag_249:\n        /* \"@openzeppelin/contracts/access/Ownable.sol\":1901:1941  OwnableUnauthorizedAccount(_msgSender()) */\n      mload(0x40)\n      0x118cdaa700000000000000000000000000000000000000000000000000000000\n      dup2\n      mstore\n      0x04\n      add\n      tag_250\n      swap2\n      swap1\n      tag_82\n      jump\t// in\n    tag_250:\n      mload(0x40)\n      dup1\n      swap2\n      sub\n      swap1\n      revert\n        /* \"@openzeppelin/contracts/access/Ownable.sol\":1851:1952  if (owner() != _msgSender()) {... */\n    tag_248:\n        /* \"@openzeppelin/contracts/access/Ownable.sol\":1796:1958  function _checkOwner() internal view virtual {... */\n      jump\t// out\n        /* \"@openzeppelin/contracts/access/Ownable2Step.sol\":1528:1681  function _transferOwnership(address newOwner) internal virtual override {... */\n    tag_172:\n        /* \"@openzeppelin/contracts/access/Ownable2Step.sol\":1617:1630  _pendingOwner */\n      0x04\n      0x00\n        /* \"@openzeppelin/contracts/access/Ownable2Step.sol\":1610:1630  delete _pendingOwner */\n      0x0100\n      exp\n      dup2\n      sload\n      swap1\n      0xffffffffffffffffffffffffffffffffffffffff\n      mul\n      not\n      and\n      swap1\n      sstore\n        /* \"@openzeppelin/contracts/access/Ownable2Step.sol\":1640:1674  super._transferOwnership(newOwner) */\n      tag_252\n        /* \"@openzeppelin/contracts/access/Ownable2Step.sol\":1665:1673  newOwner */\n      dup2\n        /* \"@openzeppelin/contracts/access/Ownable2Step.sol\":1640:1664  super._transferOwnership */\n      tag_253\n        /* \"@openzeppelin/contracts/access/Ownable2Step.sol\":1640:1674  super._transferOwnership(newOwner) */\n      jump\t// in\n    tag_252:\n        /* \"@openzeppelin/contracts/access/Ownable2Step.sol\":1528:1681  function _transferOwnership(address newOwner) internal virtual override {... */\n      pop\n      jump\t// out\n        /* \"@openzeppelin/contracts/utils/Context.sol\":656:752  function _msgSender() internal view virtual returns (address) {... */\n    tag_175:\n        /* \"@openzeppelin/contracts/utils/Context.sol\":709:716  address */\n      0x00\n        /* \"@openzeppelin/contracts/utils/Context.sol\":735:745  msg.sender */\n      caller\n        /* \"@openzeppelin/contracts/utils/Context.sol\":728:745  return msg.sender */\n      swap1\n      pop\n        /* \"@openzeppelin/contracts/utils/Context.sol\":656:752  function _msgSender() internal view virtual returns (address) {... */\n      swap1\n      jump\t// out\n        /* \"contracts/Token.sol\":842:1135  function _transfer(... */\n    tag_185:\n        /* \"contracts/Token.sol\":973:977  this */\n      address\n        /* \"contracts/Token.sol\":959:978  to != address(this) */\n      0xffffffffffffffffffffffffffffffffffffffff\n      and\n        /* \"contracts/Token.sol\":959:961  to */\n      dup3\n        /* \"contracts/Token.sol\":959:978  to != address(this) */\n      0xffffffffffffffffffffffffffffffffffffffff\n      and\n      sub\n        /* \"contracts/Token.sol\":951:979  require(to != address(this)) */\n      tag_256\n      jumpi\n      0x00\n      dup1\n      revert\n    tag_256:\n        /* \"contracts/Token.sol\":1016:1021  value */\n      dup1\n        /* \"contracts/Token.sol\":997:1006  _balances */\n      0x00\n        /* \"contracts/Token.sol\":997:1012  _balances[from] */\n      dup1\n        /* \"contracts/Token.sol\":1007:1011  from */\n      dup6\n        /* \"contracts/Token.sol\":997:1012  _balances[from] */\n      0xffffffffffffffffffffffffffffffffffffffff\n      and\n      0xffffffffffffffffffffffffffffffffffffffff\n      and\n      dup2\n      mstore\n      0x20\n      add\n      swap1\n      dup2\n      mstore\n      0x20\n      add\n      0x00\n      keccak256\n      sload\n        /* \"contracts/Token.sol\":997:1021  _balances[from] >= value */\n      lt\n      iszero\n        /* \"contracts/Token.sol\":989:1022  require(_balances[from] >= value) */\n      tag_257\n      jumpi\n      0x00\n      dup1\n      revert\n    tag_257:\n        /* \"contracts/Token.sol\":1051:1056  value */\n      dup1\n        /* \"contracts/Token.sol\":1032:1041  _balances */\n      0x00\n        /* \"contracts/Token.sol\":1032:1047  _balances[from] */\n      dup1\n        /* \"contracts/Token.sol\":1042:1046  from */\n      dup6\n        /* \"contracts/Token.sol\":1032:1047  _balances[from] */\n      0xffffffffffffffffffffffffffffffffffffffff\n      and\n      0xffffffffffffffffffffffffffffffffffffffff\n      and\n      dup2\n      mstore\n      0x20\n      add\n      swap1\n      dup2\n      mstore\n      0x20\n      add\n      0x00\n      keccak256\n      0x00\n        /* \"contracts/Token.sol\":1032:1056  _balances[from] -= value */\n      dup3\n      dup3\n      sload\n      tag_258\n      swap2\n      swap1\n      tag_204\n      jump\t// in\n    tag_258:\n      swap3\n      pop\n      pop\n      dup2\n      swap1\n      sstore\n      pop\n        /* \"contracts/Token.sol\":1083:1088  value */\n      dup1\n        /* \"contracts/Token.sol\":1066:1075  _balances */\n      0x00\n        /* \"contracts/Token.sol\":1066:1079  _balances[to] */\n      dup1\n        /* \"contracts/Token.sol\":1076:1078  to */\n      dup5\n        /* \"contracts/Token.sol\":1066:1079  _balances[to] */\n      0xffffffffffffffffffffffffffffffffffffffff\n      and\n      0xffffffffffffffffffffffffffffffffffffffff\n      and\n      dup2\n      mstore\n      0x20\n      add\n      swap1\n      dup2\n      mstore\n      0x20\n      add\n      0x00\n      keccak256\n      0x00\n        /* \"contracts/Token.sol\":1066:1088  _balances[to] += value */\n      dup3\n      dup3\n      sload\n      tag_259\n      swap2\n      swap1\n      tag_182\n      jump\t// in\n    tag_259:\n      swap3\n      pop\n      pop\n      dup2\n      swap1\n      sstore\n      pop\n        /* \"contracts/Token.sol\":1118:1120  to */\n      dup2\n        /* \"contracts/Token.sol\":1103:1128  Transfer(from, to, value) */\n      0xffffffffffffffffffffffffffffffffffffffff\n      and\n        /* \"contracts/Token.sol\":1112:1116  from */\n      dup4\n        /* \"contracts/Token.sol\":1103:1128  Transfer(from, to, value) */\n      0xffffffffffffffffffffffffffffffffffffffff\n      and\n      0xddf252ad1be2c89b69c2b068fc378daa952ba7f163c4a11628f55a4df523b3ef\n        /* \"contracts/Token.sol\":1122:1127  value */\n      dup4\n        /* \"contracts/Token.sol\":1103:1128  Transfer(from, to, value) */\n      mload(0x40)\n      tag_260\n      swap2\n      swap1\n      tag_51\n      jump\t// in\n    tag_260:\n      mload(0x40)\n      dup1\n      swap2\n      sub\n      swap1\n      log3\n        /* \"contracts/Token.sol\":842:1135  function _transfer(... */\n      pop\n      pop\n      pop\n      jump\t// out\n        /* \"contracts/Token.sol\":692:836  function transfer(address to, uint256 value) public virtual {... */\n    tag_201:\n        /* \"contracts/Token.sol\":784:785  0 */\n      0x00\n        /* \"contracts/Token.sol\":770:786  to != address(0) */\n      0xffffffffffffffffffffffffffffffffffffffff\n      and\n        /* \"contracts/Token.sol\":770:772  to */\n      dup3\n        /* \"contracts/Token.sol\":770:786  to != address(0) */\n      0xffffffffffffffffffffffffffffffffffffffff\n      and\n      sub\n        /* \"contracts/Token.sol\":762:787  require(to != address(0)) */\n      tag_262\n      jumpi\n      0x00\n      dup1\n      revert\n    tag_262:\n        /* \"contracts/Token.sol\":797:829  _transfer(msg.sender, to, value) */\n      tag_263\n        /* \"contracts/Token.sol\":807:817  msg.sender */\n      caller\n        /* \"contracts/Token.sol\":819:821  to */\n      dup4\n        /* \"contracts/Token.sol\":823:828  value */\n      dup4\n        /* \"contracts/Token.sol\":797:806  _transfer */\n      tag_185\n        /* \"contracts/Token.sol\":797:829  _transfer(msg.sender, to, value) */\n      jump\t// in\n    tag_263:\n        /* \"contracts/Token.sol\":692:836  function transfer(address to, uint256 value) public virtual {... */\n      pop\n      pop\n      jump\t// out\n        /* \"contracts/Token.sol\":1141:1317  function allowance(address owner, address spender)... */\n    tag_217:\n        /* \"contracts/Token.sol\":1253:1260  uint256 */\n      0x00\n        /* \"contracts/Token.sol\":1283:1294  _allowances */\n      0x01\n        /* \"contracts/Token.sol\":1283:1301  _allowances[owner] */\n      0x00\n        /* \"contracts/Token.sol\":1295:1300  owner */\n      dup5\n        /* \"contracts/Token.sol\":1283:1301  _allowances[owner] */\n      0xffffffffffffffffffffffffffffffffffffffff\n      and\n      0xffffffffffffffffffffffffffffffffffffffff\n      and\n      dup2\n      mstore\n      0x20\n      add\n      swap1\n      dup2\n      mstore\n      0x20\n      add\n      0x00\n      keccak256\n        /* \"contracts/Token.sol\":1283:1310  _allowances[owner][spender] */\n      0x00\n        /* \"contracts/Token.sol\":1302:1309  spender */\n      dup4\n        /* \"contracts/Token.sol\":1283:1310  _allowances[owner][spender] */\n      0xffffffffffffffffffffffffffffffffffffffff\n      and\n      0xffffffffffffffffffffffffffffffffffffffff\n      and\n      dup2\n      mstore\n      0x20\n      add\n      swap1\n      dup2\n      mstore\n      0x20\n      add\n      0x00\n      keccak256\n      sload\n        /* \"contracts/Token.sol\":1276:1310  return _allowances[owner][spender] */\n      swap1\n      pop\n        /* \"contracts/Token.sol\":1141:1317  function allowance(address owner, address spender)... */\n      swap3\n      swap2\n      pop\n      pop\n      jump\t// out\n        /* \"contracts/UpgradableProxy.sol\":356:515  function _upgradeContract(address upgradedContract) internal {... */\n    tag_223:\n        /* \"contracts/UpgradableProxy.sol\":463:464  0 */\n      0x00\n        /* \"contracts/UpgradableProxy.sol\":435:465  upgradedContract != address(0) */\n      0xffffffffffffffffffffffffffffffffffffffff\n      and\n        /* \"contracts/UpgradableProxy.sol\":435:451  upgradedContract */\n      dup2\n        /* \"contracts/UpgradableProxy.sol\":435:465  upgradedContract != address(0) */\n      0xffffffffffffffffffffffffffffffffffffffff\n      and\n      sub\n        /* \"contracts/UpgradableProxy.sol\":427:466  require(upgradedContract != address(0)) */\n      tag_266\n      jumpi\n      0x00\n      dup1\n      revert\n    tag_266:\n        /* \"contracts/UpgradableProxy.sol\":492:508  upgradedContract */\n      dup1\n        /* \"contracts/UpgradableProxy.sol\":476:489  upgradedToken */\n      0x02\n      0x00\n        /* \"contracts/UpgradableProxy.sol\":476:508  upgradedToken = upgradedContract */\n      0x0100\n      exp\n      dup2\n      sload\n      dup2\n      0xffffffffffffffffffffffffffffffffffffffff\n      mul\n      not\n      and\n      swap1\n      dup4\n      0xffffffffffffffffffffffffffffffffffffffff\n      and\n      mul\n      or\n      swap1\n      sstore\n      pop\n        /* \"contracts/UpgradableProxy.sol\":356:515  function _upgradeContract(address upgradedContract) internal {... */\n      pop\n      jump\t// out\n        /* \"@openzeppelin/contracts/access/Ownable.sol\":2912:3099  function _transferOwnership(address newOwner) internal virtual {... */\n    tag_253:\n        /* \"@openzeppelin/contracts/access/Ownable.sol\":2985:3001  address oldOwner */\n      0x00\n        /* \"@openzeppelin/contracts/access/Ownable.sol\":3004:3010  _owner */\n      0x03\n      0x00\n      swap1\n      sload\n      swap1\n      0x0100\n      exp\n      swap1\n      div\n      0xffffffffffffffffffffffffffffffffffffffff\n      and\n        /* \"@openzeppelin/contracts/access/Ownable.sol\":2985:3010  address oldOwner = _owner */\n      swap1\n      pop\n        /* \"@openzeppelin/contracts/access/Ownable.sol\":3029:3037  newOwner */\n      dup2\n        /* \"@openzeppelin/contracts/access/Ownable.sol\":3020:3026  _owner */\n      0x03\n      0x00\n        /* \"@openzeppelin/contracts/access/Ownable.sol\":3020:3037  _owner = newOwner */\n      0x0100\n      exp\n      dup2\n      sload\n      dup2\n      0xffffffffffffffffffffffffffffffffffffffff\n      mul\n      not\n      and\n      swap1\n      dup4\n      0xffffffffffffffffffffffffffffffffffffffff\n      and\n      mul\n      or\n      swap1\n      sstore\n      pop\n        /* \"@openzeppelin/contracts/access/Ownable.sol\":3083:3091  newOwner */\n      dup2\n        /* \"@openzeppelin/contracts/access/Ownable.sol\":3052:3092  OwnershipTransferred(oldOwner, newOwner) */\n      0xffffffffffffffffffffffffffffffffffffffff\n      and\n        /* \"@openzeppelin/contracts/access/Ownable.sol\":3073:3081  oldOwner */\n      dup2\n        /* \"@openzeppelin/contracts/access/Ownable.sol\":3052:3092  OwnershipTransferred(oldOwner, newOwner) */\n      0xffffffffffffffffffffffffffffffffffffffff\n      and\n      0x8be0079c531659141344cd1fd0a4f28419497f9722a3daafe3b4186f6b6457e0\n      mload(0x40)\n      mload(0x40)\n      dup1\n      swap2\n      sub\n      swap1\n      log3\n        /* \"@openzeppelin/contracts/access/Ownable.sol\":2975:3099  {... */\n      pop\n        /* \"@openzeppelin/contracts/access/Ownable.sol\":2912:3099  function _transferOwnership(address newOwner) internal virtual {... */\n      pop\n      jump\t// out\n        /* \"#utility.yul\":7:106   */\n    tag_268:\n        /* \"#utility.yul\":59:65   */\n      0x00\n        /* \"#utility.yul\":93:98   */\n      dup2\n        /* \"#utility.yul\":87:99   */\n      mload\n        /* \"#utility.yul\":77:99   */\n      swap1\n      pop\n        /* \"#utility.yul\":7:106   */\n      swap2\n      swap1\n      pop\n      jump\t// out\n        /* \"#utility.yul\":112:281   */\n    tag_269:\n        /* \"#utility.yul\":196:207   */\n      0x00\n        /* \"#utility.yul\":230:236   */\n      dup3\n        /* \"#utility.yul\":225:228   */\n      dup3\n        /* \"#utility.yul\":218:237   */\n      mstore\n        /* \"#utility.yul\":270:274   */\n      0x20\n        /* \"#utility.yul\":265:268   */\n      dup3\n        /* \"#utility.yul\":261:275   */\n      add\n        /* \"#utility.yul\":246:275   */\n      swap1\n      pop\n        /* \"#utility.yul\":112:281   */\n      swap3\n      swap2\n      pop\n      pop\n      jump\t// out\n        /* \"#utility.yul\":287:533   */\n    tag_270:\n        /* \"#utility.yul\":368:369   */\n      0x00\n        /* \"#utility.yul\":378:491   */\n    tag_296:\n        /* \"#utility.yul\":392:398   */\n      dup4\n        /* \"#utility.yul\":389:390   */\n      dup2\n        /* \"#utility.yul\":386:399   */\n      lt\n        /* \"#utility.yul\":378:491   */\n      iszero\n      tag_298\n      jumpi\n        /* \"#utility.yul\":477:478   */\n      dup1\n        /* \"#utility.yul\":472:475   */\n      dup3\n        /* \"#utility.yul\":468:479   */\n      add\n        /* \"#utility.yul\":462:480   */\n      mload\n        /* \"#utility.yul\":458:459   */\n      dup2\n        /* \"#utility.yul\":453:456   */\n      dup5\n        /* \"#utility.yul\":449:460   */\n      add\n        /* \"#utility.yul\":442:481   */\n      mstore\n        /* \"#utility.yul\":414:416   */\n      0x20\n        /* \"#utility.yul\":411:412   */\n      dup2\n        /* \"#utility.yul\":407:417   */\n      add\n        /* \"#utility.yul\":402:417   */\n      swap1\n      pop\n        /* \"#utility.yul\":378:491   */\n      jump(tag_296)\n    tag_298:\n        /* \"#utility.yul\":525:526   */\n      0x00\n        /* \"#utility.yul\":516:522   */\n      dup5\n        /* \"#utility.yul\":511:514   */\n      dup5\n        /* \"#utility.yul\":507:523   */\n      add\n        /* \"#utility.yul\":500:527   */\n      mstore\n        /* \"#utility.yul\":349:533   */\n      pop\n        /* \"#utility.yul\":287:533   */\n      pop\n      pop\n      pop\n      jump\t// out\n        /* \"#utility.yul\":539:641   */\n    tag_271:\n        /* \"#utility.yul\":580:586   */\n      0x00\n        /* \"#utility.yul\":631:633   */\n      0x1f\n        /* \"#utility.yul\":627:634   */\n      not\n        /* \"#utility.yul\":622:624   */\n      0x1f\n        /* \"#utility.yul\":615:620   */\n      dup4\n        /* \"#utility.yul\":611:625   */\n      add\n        /* \"#utility.yul\":607:635   */\n      and\n        /* \"#utility.yul\":597:635   */\n      swap1\n      pop\n        /* \"#utility.yul\":539:641   */\n      swap2\n      swap1\n      pop\n      jump\t// out\n        /* \"#utility.yul\":647:1024   */\n    tag_272:\n        /* \"#utility.yul\":735:738   */\n      0x00\n        /* \"#utility.yul\":763:802   */\n      tag_301\n        /* \"#utility.yul\":796:801   */\n      dup3\n        /* \"#utility.yul\":763:802   */\n      tag_268\n      jump\t// in\n    tag_301:\n        /* \"#utility.yul\":818:889   */\n      tag_302\n        /* \"#utility.yul\":882:888   */\n      dup2\n        /* \"#utility.yul\":877:880   */\n      dup6\n        /* \"#utility.yul\":818:889   */\n      tag_269\n      jump\t// in\n    tag_302:\n        /* \"#utility.yul\":811:889   */\n      swap4\n      pop\n        /* \"#utility.yul\":898:963   */\n      tag_303\n        /* \"#utility.yul\":956:962   */\n      dup2\n        /* \"#utility.yul\":951:954   */\n      dup6\n        /* \"#utility.yul\":944:948   */\n      0x20\n        /* \"#utility.yul\":937:942   */\n      dup7\n        /* \"#utility.yul\":933:949   */\n      add\n        /* \"#utility.yul\":898:963   */\n      tag_270\n      jump\t// in\n    tag_303:\n        /* \"#utility.yul\":988:1017   */\n      tag_304\n        /* \"#utility.yul\":1010:1016   */\n      dup2\n        /* \"#utility.yul\":988:1017   */\n      tag_271\n      jump\t// in\n    tag_304:\n        /* \"#utility.yul\":983:986   */\n      dup5\n        /* \"#utility.yul\":979:1018   */\n      add\n        /* \"#utility.yul\":972:1018   */\n      swap2\n      pop\n        /* \"#utility.yul\":739:1024   */\n      pop\n        /* \"#utility.yul\":647:1024   */\n      swap3\n      swap2\n      pop\n      pop\n      jump\t// out\n        /* \"#utility.yul\":1030:1343   */\n    tag_36:\n        /* \"#utility.yul\":1143:1147   */\n      0x00\n        /* \"#utility.yul\":1181:1183   */\n      0x20\n        /* \"#utility.yul\":1170:1179   */\n      dup3\n        /* \"#utility.yul\":1166:1184   */\n      add\n        /* \"#utility.yul\":1158:1184   */\n      swap1\n      pop\n        /* \"#utility.yul\":1230:1239   */\n      dup2\n        /* \"#utility.yul\":1224:1228   */\n      dup2\n        /* \"#utility.yul\":1220:1240   */\n      sub\n        /* \"#utility.yul\":1216:1217   */\n      0x00\n        /* \"#utility.yul\":1205:1214   */\n      dup4\n        /* \"#utility.yul\":1201:1218   */\n      add\n        /* \"#utility.yul\":1194:1241   */\n      mstore\n        /* \"#utility.yul\":1258:1336   */\n      tag_306\n        /* \"#utility.yul\":1331:1335   */\n      dup2\n        /* \"#utility.yul\":1322:1328   */\n      dup5\n        /* \"#utility.yul\":1258:1336   */\n      tag_272\n      jump\t// in\n    tag_306:\n        /* \"#utility.yul\":1250:1336   */\n      swap1\n      pop\n        /* \"#utility.yul\":1030:1343   */\n      swap3\n      swap2\n      pop\n      pop\n      jump\t// out\n        /* \"#utility.yul\":1430:1547   */\n    tag_274:\n        /* \"#utility.yul\":1539:1540   */\n      0x00\n        /* \"#utility.yul\":1536:1537   */\n      dup1\n        /* \"#utility.yul\":1529:1541   */\n      revert\n        /* \"#utility.yul\":1676:1802   */\n    tag_276:\n        /* \"#utility.yul\":1713:1720   */\n      0x00\n        /* \"#utility.yul\":1753:1795   */\n      0xffffffffffffffffffffffffffffffffffffffff\n        /* \"#utility.yul\":1746:1751   */\n      dup3\n        /* \"#utility.yul\":1742:1796   */\n      and\n        /* \"#utility.yul\":1731:1796   */\n      swap1\n      pop\n        /* \"#utility.yul\":1676:1802   */\n      swap2\n      swap1\n      pop\n      jump\t// out\n        /* \"#utility.yul\":1808:1904   */\n    tag_277:\n        /* \"#utility.yul\":1845:1852   */\n      0x00\n        /* \"#utility.yul\":1874:1898   */\n      tag_312\n        /* \"#utility.yul\":1892:1897   */\n      dup3\n        /* \"#utility.yul\":1874:1898   */\n      tag_276\n      jump\t// in\n    tag_312:\n        /* \"#utility.yul\":1863:1898   */\n      swap1\n      pop\n        /* \"#utility.yul\":1808:1904   */\n      swap2\n      swap1\n      pop\n      jump\t// out\n        /* \"#utility.yul\":1910:2032   */\n    tag_278:\n        /* \"#utility.yul\":1983:2007   */\n      tag_314\n        /* \"#utility.yul\":2001:2006   */\n      dup2\n        /* \"#utility.yul\":1983:2007   */\n      tag_277\n      jump\t// in\n    tag_314:\n        /* \"#utility.yul\":1976:1981   */\n      dup2\n        /* \"#utility.yul\":1973:2008   */\n      eq\n        /* \"#utility.yul\":1963:2026   */\n      tag_315\n      jumpi\n        /* \"#utility.yul\":2022:2023   */\n      0x00\n        /* \"#utility.yul\":2019:2020   */\n      dup1\n        /* \"#utility.yul\":2012:2024   */\n      revert\n        /* \"#utility.yul\":1963:2026   */\n    tag_315:\n        /* \"#utility.yul\":1910:2032   */\n      pop\n      jump\t// out\n        /* \"#utility.yul\":2038:2177   */\n    tag_279:\n        /* \"#utility.yul\":2084:2089   */\n      0x00\n        /* \"#utility.yul\":2122:2128   */\n      dup2\n        /* \"#utility.yul\":2109:2129   */\n      calldataload\n        /* \"#utility.yul\":2100:2129   */\n      swap1\n      pop\n        /* \"#utility.yul\":2138:2171   */\n      tag_317\n        /* \"#utility.yul\":2165:2170   */\n      dup2\n        /* \"#utility.yul\":2138:2171   */\n      tag_278\n      jump\t// in\n    tag_317:\n        /* \"#utility.yul\":2038:2177   */\n      swap3\n      swap2\n      pop\n      pop\n      jump\t// out\n        /* \"#utility.yul\":2183:2260   */\n    tag_280:\n        /* \"#utility.yul\":2220:2227   */\n      0x00\n        /* \"#utility.yul\":2249:2254   */\n      dup2\n        /* \"#utility.yul\":2238:2254   */\n      swap1\n      pop\n        /* \"#utility.yul\":2183:2260   */\n      swap2\n      swap1\n      pop\n      jump\t// out\n        /* \"#utility.yul\":2266:2388   */\n    tag_281:\n        /* \"#utility.yul\":2339:2363   */\n      tag_320\n        /* \"#utility.yul\":2357:2362   */\n      dup2\n        /* \"#utility.yul\":2339:2363   */\n      tag_280\n      jump\t// in\n    tag_320:\n        /* \"#utility.yul\":2332:2337   */\n      dup2\n        /* \"#utility.yul\":2329:2364   */\n      eq\n        /* \"#utility.yul\":2319:2382   */\n      tag_321\n      jumpi\n        /* \"#utility.yul\":2378:2379   */\n      0x00\n        /* \"#utility.yul\":2375:2376   */\n      dup1\n        /* \"#utility.yul\":2368:2380   */\n      revert\n        /* \"#utility.yul\":2319:2382   */\n    tag_321:\n        /* \"#utility.yul\":2266:2388   */\n      pop\n      jump\t// out\n        /* \"#utility.yul\":2394:2533   */\n    tag_282:\n        /* \"#utility.yul\":2440:2445   */\n      0x00\n        /* \"#utility.yul\":2478:2484   */\n      dup2\n        /* \"#utility.yul\":2465:2485   */\n      calldataload\n        /* \"#utility.yul\":2456:2485   */\n      swap1\n      pop\n        /* \"#utility.yul\":2494:2527   */\n      tag_323\n        /* \"#utility.yul\":2521:2526   */\n      dup2\n        /* \"#utility.yul\":2494:2527   */\n      tag_281\n      jump\t// in\n    tag_323:\n        /* \"#utility.yul\":2394:2533   */\n      swap3\n      swap2\n      pop\n      pop\n      jump\t// out\n        /* \"#utility.yul\":2539:3013   */\n    tag_40:\n        /* \"#utility.yul\":2607:2613   */\n      0x00\n        /* \"#utility.yul\":2615:2621   */\n      dup1\n        /* \"#utility.yul\":2664:2666   */\n      0x40\n        /* \"#utility.yul\":2652:2661   */\n      dup4\n        /* \"#utility.yul\":2643:2650   */\n      dup6\n        /* \"#utility.yul\":2639:2662   */\n      sub\n        /* \"#utility.yul\":2635:2667   */\n      slt\n        /* \"#utility.yul\":2632:2751   */\n      iszero\n      tag_325\n      jumpi\n        /* \"#utility.yul\":2670:2749   */\n      tag_326\n      tag_274\n      jump\t// in\n    tag_326:\n        /* \"#utility.yul\":2632:2751   */\n    tag_325:\n        /* \"#utility.yul\":2790:2791   */\n      0x00\n        /* \"#utility.yul\":2815:2868   */\n      tag_327\n        /* \"#utility.yul\":2860:2867   */\n      dup6\n        /* \"#utility.yul\":2851:2857   */\n      dup3\n        /* \"#utility.yul\":2840:2849   */\n      dup7\n        /* \"#utility.yul\":2836:2858   */\n      add\n        /* \"#utility.yul\":2815:2868   */\n      tag_279\n      jump\t// in\n    tag_327:\n        /* \"#utility.yul\":2805:2868   */\n      swap3\n      pop\n        /* \"#utility.yul\":2761:2878   */\n      pop\n        /* \"#utility.yul\":2917:2919   */\n      0x20\n        /* \"#utility.yul\":2943:2996   */\n      tag_328\n        /* \"#utility.yul\":2988:2995   */\n      dup6\n        /* \"#utility.yul\":2979:2985   */\n      dup3\n        /* \"#utility.yul\":2968:2977   */\n      dup7\n        /* \"#utility.yul\":2964:2986   */\n      add\n        /* \"#utility.yul\":2943:2996   */\n      tag_282\n      jump\t// in\n    tag_328:\n        /* \"#utility.yul\":2933:2996   */\n      swap2\n      pop\n        /* \"#utility.yul\":2888:3006   */\n      pop\n        /* \"#utility.yul\":2539:3013   */\n      swap3\n      pop\n      swap3\n      swap1\n      pop\n      jump\t// out\n        /* \"#utility.yul\":3019:3109   */\n    tag_283:\n        /* \"#utility.yul\":3053:3060   */\n      0x00\n        /* \"#utility.yul\":3096:3101   */\n      dup2\n        /* \"#utility.yul\":3089:3102   */\n      iszero\n        /* \"#utility.yul\":3082:3103   */\n      iszero\n        /* \"#utility.yul\":3071:3103   */\n      swap1\n      pop\n        /* \"#utility.yul\":3019:3109   */\n      swap2\n      swap1\n      pop\n      jump\t// out\n        /* \"#utility.yul\":3115:3224   */\n    tag_284:\n        /* \"#utility.yul\":3196:3217   */\n      tag_331\n        /* \"#utility.yul\":3211:3216   */\n      dup2\n        /* \"#utility.yul\":3196:3217   */\n      tag_283\n      jump\t// in\n    tag_331:\n        /* \"#utility.yul\":3191:3194   */\n      dup3\n        /* \"#utility.yul\":3184:3218   */\n      mstore\n        /* \"#utility.yul\":3115:3224   */\n      pop\n      pop\n      jump\t// out\n        /* \"#utility.yul\":3230:3440   */\n    tag_46:\n        /* \"#utility.yul\":3317:3321   */\n      0x00\n        /* \"#utility.yul\":3355:3357   */\n      0x20\n        /* \"#utility.yul\":3344:3353   */\n      dup3\n        /* \"#utility.yul\":3340:3358   */\n      add\n        /* \"#utility.yul\":3332:3358   */\n      swap1\n      pop\n        /* \"#utility.yul\":3368:3433   */\n      tag_333\n        /* \"#utility.yul\":3430:3431   */\n      0x00\n        /* \"#utility.yul\":3419:3428   */\n      dup4\n        /* \"#utility.yul\":3415:3432   */\n      add\n        /* \"#utility.yul\":3406:3412   */\n      dup5\n        /* \"#utility.yul\":3368:3433   */\n      tag_284\n      jump\t// in\n    tag_333:\n        /* \"#utility.yul\":3230:3440   */\n      swap3\n      swap2\n      pop\n      pop\n      jump\t// out\n        /* \"#utility.yul\":3446:3564   */\n    tag_285:\n        /* \"#utility.yul\":3533:3557   */\n      tag_335\n        /* \"#utility.yul\":3551:3556   */\n      dup2\n        /* \"#utility.yul\":3533:3557   */\n      tag_280\n      jump\t// in\n    tag_335:\n        /* \"#utility.yul\":3528:3531   */\n      dup3\n        /* \"#utility.yul\":3521:3558   */\n      mstore\n        /* \"#utility.yul\":3446:3564   */\n      pop\n      pop\n      jump\t// out\n        /* \"#utility.yul\":3570:3792   */\n    tag_51:\n        /* \"#utility.yul\":3663:3667   */\n      0x00\n        /* \"#utility.yul\":3701:3703   */\n      0x20\n        /* \"#utility.yul\":3690:3699   */\n      dup3\n        /* \"#utility.yul\":3686:3704   */\n      add\n        /* \"#utility.yul\":3678:3704   */\n      swap1\n      pop\n        /* \"#utility.yul\":3714:3785   */\n      tag_337\n        /* \"#utility.yul\":3782:3783   */\n      0x00\n        /* \"#utility.yul\":3771:3780   */\n      dup4\n        /* \"#utility.yul\":3767:3784   */\n      add\n        /* \"#utility.yul\":3758:3764   */\n      dup5\n        /* \"#utility.yul\":3714:3785   */\n      tag_285\n      jump\t// in\n    tag_337:\n        /* \"#utility.yul\":3570:3792   */\n      swap3\n      swap2\n      pop\n      pop\n      jump\t// out\n        /* \"#utility.yul\":3798:4417   */\n    tag_55:\n        /* \"#utility.yul\":3875:3881   */\n      0x00\n        /* \"#utility.yul\":3883:3889   */\n      dup1\n        /* \"#utility.yul\":3891:3897   */\n      0x00\n        /* \"#utility.yul\":3940:3942   */\n      0x60\n        /* \"#utility.yul\":3928:3937   */\n      dup5\n        /* \"#utility.yul\":3919:3926   */\n      dup7\n        /* \"#utility.yul\":3915:3938   */\n      sub\n        /* \"#utility.yul\":3911:3943   */\n      slt\n        /* \"#utility.yul\":3908:4027   */\n      iszero\n      tag_339\n      jumpi\n        /* \"#utility.yul\":3946:4025   */\n      tag_340\n      tag_274\n      jump\t// in\n    tag_340:\n        /* \"#utility.yul\":3908:4027   */\n    tag_339:\n        /* \"#utility.yul\":4066:4067   */\n      0x00\n        /* \"#utility.yul\":4091:4144   */\n      tag_341\n        /* \"#utility.yul\":4136:4143   */\n      dup7\n        /* \"#utility.yul\":4127:4133   */\n      dup3\n        /* \"#utility.yul\":4116:4125   */\n      dup8\n        /* \"#utility.yul\":4112:4134   */\n      add\n        /* \"#utility.yul\":4091:4144   */\n      tag_279\n      jump\t// in\n    tag_341:\n        /* \"#utility.yul\":4081:4144   */\n      swap4\n      pop\n        /* \"#utility.yul\":4037:4154   */\n      pop\n        /* \"#utility.yul\":4193:4195   */\n      0x20\n        /* \"#utility.yul\":4219:4272   */\n      tag_342\n        /* \"#utility.yul\":4264:4271   */\n      dup7\n        /* \"#utility.yul\":4255:4261   */\n      dup3\n        /* \"#utility.yul\":4244:4253   */\n      dup8\n        /* \"#utility.yul\":4240:4262   */\n      add\n        /* \"#utility.yul\":4219:4272   */\n      tag_279\n      jump\t// in\n    tag_342:\n        /* \"#utility.yul\":4209:4272   */\n      swap3\n      pop\n        /* \"#utility.yul\":4164:4282   */\n      pop\n        /* \"#utility.yul\":4321:4323   */\n      0x40\n        /* \"#utility.yul\":4347:4400   */\n      tag_343\n        /* \"#utility.yul\":4392:4399   */\n      dup7\n        /* \"#utility.yul\":4383:4389   */\n      dup3\n        /* \"#utility.yul\":4372:4381   */\n      dup8\n        /* \"#utility.yul\":4368:4390   */\n      add\n        /* \"#utility.yul\":4347:4400   */\n      tag_282\n      jump\t// in\n    tag_343:\n        /* \"#utility.yul\":4337:4400   */\n      swap2\n      pop\n        /* \"#utility.yul\":4292:4410   */\n      pop\n        /* \"#utility.yul\":3798:4417   */\n      swap3\n      pop\n      swap3\n      pop\n      swap3\n      jump\t// out\n        /* \"#utility.yul\":4423:4509   */\n    tag_286:\n        /* \"#utility.yul\":4458:4465   */\n      0x00\n        /* \"#utility.yul\":4498:4502   */\n      0xff\n        /* \"#utility.yul\":4491:4496   */\n      dup3\n        /* \"#utility.yul\":4487:4503   */\n      and\n        /* \"#utility.yul\":4476:4503   */\n      swap1\n      pop\n        /* \"#utility.yul\":4423:4509   */\n      swap2\n      swap1\n      pop\n      jump\t// out\n        /* \"#utility.yul\":4515:4627   */\n    tag_287:\n        /* \"#utility.yul\":4598:4620   */\n      tag_346\n        /* \"#utility.yul\":4614:4619   */\n      dup2\n        /* \"#utility.yul\":4598:4620   */\n      tag_286\n      jump\t// in\n    tag_346:\n        /* \"#utility.yul\":4593:4596   */\n      dup3\n        /* \"#utility.yul\":4586:4621   */\n      mstore\n        /* \"#utility.yul\":4515:4627   */\n      pop\n      pop\n      jump\t// out\n        /* \"#utility.yul\":4633:4847   */\n    tag_61:\n        /* \"#utility.yul\":4722:4726   */\n      0x00\n        /* \"#utility.yul\":4760:4762   */\n      0x20\n        /* \"#utility.yul\":4749:4758   */\n      dup3\n        /* \"#utility.yul\":4745:4763   */\n      add\n        /* \"#utility.yul\":4737:4763   */\n      swap1\n      pop\n        /* \"#utility.yul\":4773:4840   */\n      tag_348\n        /* \"#utility.yul\":4837:4838   */\n      0x00\n        /* \"#utility.yul\":4826:4835   */\n      dup4\n        /* \"#utility.yul\":4822:4839   */\n      add\n        /* \"#utility.yul\":4813:4819   */\n      dup5\n        /* \"#utility.yul\":4773:4840   */\n      tag_287\n      jump\t// in\n    tag_348:\n        /* \"#utility.yul\":4633:4847   */\n      swap3\n      swap2\n      pop\n      pop\n      jump\t// out\n        /* \"#utility.yul\":4853:5182   */\n    tag_65:\n        /* \"#utility.yul\":4912:4918   */\n      0x00\n        /* \"#utility.yul\":4961:4963   */\n      0x20\n        /* \"#utility.yul\":4949:4958   */\n      dup3\n        /* \"#utility.yul\":4940:4947   */\n      dup5\n        /* \"#utility.yul\":4936:4959   */\n      sub\n        /* \"#utility.yul\":4932:4964   */\n      slt\n        /* \"#utility.yul\":4929:5048   */\n      iszero\n      tag_350\n      jumpi\n        /* \"#utility.yul\":4967:5046   */\n      tag_351\n      tag_274\n      jump\t// in\n    tag_351:\n        /* \"#utility.yul\":4929:5048   */\n    tag_350:\n        /* \"#utility.yul\":5087:5088   */\n      0x00\n        /* \"#utility.yul\":5112:5165   */\n      tag_352\n        /* \"#utility.yul\":5157:5164   */\n      dup5\n        /* \"#utility.yul\":5148:5154   */\n      dup3\n        /* \"#utility.yul\":5137:5146   */\n      dup6\n        /* \"#utility.yul\":5133:5155   */\n      add\n        /* \"#utility.yul\":5112:5165   */\n      tag_279\n      jump\t// in\n    tag_352:\n        /* \"#utility.yul\":5102:5165   */\n      swap2\n      pop\n        /* \"#utility.yul\":5058:5175   */\n      pop\n        /* \"#utility.yul\":4853:5182   */\n      swap3\n      swap2\n      pop\n      pop\n      jump\t// out\n        /* \"#utility.yul\":5188:5306   */\n    tag_288:\n        /* \"#utility.yul\":5275:5299   */\n      tag_354\n        /* \"#utility.yul\":5293:5298   */\n      dup2\n        /* \"#utility.yul\":5275:5299   */\n      tag_277\n      jump\t// in\n    tag_354:\n        /* \"#utility.yul\":5270:5273   */\n      dup3\n        /* \"#utility.yul\":5263:5300   */\n      mstore\n        /* \"#utility.yul\":5188:5306   */\n      pop\n      pop\n      jump\t// out\n        /* \"#utility.yul\":5312:5534   */\n    tag_82:\n        /* \"#utility.yul\":5405:5409   */\n      0x00\n        /* \"#utility.yul\":5443:5445   */\n      0x20\n        /* \"#utility.yul\":5432:5441   */\n      dup3\n        /* \"#utility.yul\":5428:5446   */\n      add\n        /* \"#utility.yul\":5420:5446   */\n      swap1\n      pop\n        /* \"#utility.yul\":5456:5527   */\n      tag_356\n        /* \"#utility.yul\":5524:5525   */\n      0x00\n        /* \"#utility.yul\":5513:5522   */\n      dup4\n        /* \"#utility.yul\":5509:5526   */\n      add\n        /* \"#utility.yul\":5500:5506   */\n      dup5\n        /* \"#utility.yul\":5456:5527   */\n      tag_288\n      jump\t// in\n    tag_356:\n        /* \"#utility.yul\":5312:5534   */\n      swap3\n      swap2\n      pop\n      pop\n      jump\t// out\n        /* \"#utility.yul\":5540:5869   */\n    tag_94:\n        /* \"#utility.yul\":5599:5605   */\n      0x00\n        /* \"#utility.yul\":5648:5650   */\n      0x20\n        /* \"#utility.yul\":5636:5645   */\n      dup3\n        /* \"#utility.yul\":5627:5634   */\n      dup5\n        /* \"#utility.yul\":5623:5646   */\n      sub\n        /* \"#utility.yul\":5619:5651   */\n      slt\n        /* \"#utility.yul\":5616:5735   */\n      iszero\n      tag_358\n      jumpi\n        /* \"#utility.yul\":5654:5733   */\n      tag_359\n      tag_274\n      jump\t// in\n    tag_359:\n        /* \"#utility.yul\":5616:5735   */\n    tag_358:\n        /* \"#utility.yul\":5774:5775   */\n      0x00\n        /* \"#utility.yul\":5799:5852   */\n      tag_360\n        /* \"#utility.yul\":5844:5851   */\n      dup5\n        /* \"#utility.yul\":5835:5841   */\n      dup3\n        /* \"#utility.yul\":5824:5833   */\n      dup6\n        /* \"#utility.yul\":5820:5842   */\n      add\n        /* \"#utility.yul\":5799:5852   */\n      tag_282\n      jump\t// in\n    tag_360:\n        /* \"#utility.yul\":5789:5852   */\n      swap2\n      pop\n        /* \"#utility.yul\":5745:5862   */\n      pop\n        /* \"#utility.yul\":5540:5869   */\n      swap3\n      swap2\n      pop\n      pop\n      jump\t// out\n        /* \"#utility.yul\":5875:6349   */\n    tag_99:\n        /* \"#utility.yul\":5943:5949   */\n      0x00\n        /* \"#utility.yul\":5951:5957   */\n      dup1\n        /* \"#utility.yul\":6000:6002   */\n      0x40\n        /* \"#utility.yul\":5988:5997   */\n      dup4\n        /* \"#utility.yul\":5979:5986   */\n      dup6\n        /* \"#utility.yul\":5975:5998   */\n      sub\n        /* \"#utility.yul\":5971:6003   */\n      slt\n        /* \"#utility.yul\":5968:6087   */\n      iszero\n      tag_362\n      jumpi\n        /* \"#utility.yul\":6006:6085   */\n      tag_363\n      tag_274\n      jump\t// in\n    tag_363:\n        /* \"#utility.yul\":5968:6087   */\n    tag_362:\n        /* \"#utility.yul\":6126:6127   */\n      0x00\n        /* \"#utility.yul\":6151:6204   */\n      tag_364\n        /* \"#utility.yul\":6196:6203   */\n      dup6\n        /* \"#utility.yul\":6187:6193   */\n      dup3\n        /* \"#utility.yul\":6176:6185   */\n      dup7\n        /* \"#utility.yul\":6172:6194   */\n      add\n        /* \"#utility.yul\":6151:6204   */\n      tag_279\n      jump\t// in\n    tag_364:\n        /* \"#utility.yul\":6141:6204   */\n      swap3\n      pop\n        /* \"#utility.yul\":6097:6214   */\n      pop\n        /* \"#utility.yul\":6253:6255   */\n      0x20\n        /* \"#utility.yul\":6279:6332   */\n      tag_365\n        /* \"#utility.yul\":6324:6331   */\n      dup6\n        /* \"#utility.yul\":6315:6321   */\n      dup3\n        /* \"#utility.yul\":6304:6313   */\n      dup7\n        /* \"#utility.yul\":6300:6322   */\n      add\n        /* \"#utility.yul\":6279:6332   */\n      tag_279\n      jump\t// in\n    tag_365:\n        /* \"#utility.yul\":6269:6332   */\n      swap2\n      pop\n        /* \"#utility.yul\":6224:6342   */\n      pop\n        /* \"#utility.yul\":5875:6349   */\n      swap3\n      pop\n      swap3\n      swap1\n      pop\n      jump\t// out\n        /* \"#utility.yul\":6355:6535   */\n    tag_289:\n        /* \"#utility.yul\":6403:6480   */\n      0x4e487b7100000000000000000000000000000000000000000000000000000000\n        /* \"#utility.yul\":6400:6401   */\n      0x00\n        /* \"#utility.yul\":6393:6481   */\n      mstore\n        /* \"#utility.yul\":6500:6504   */\n      0x22\n        /* \"#utility.yul\":6497:6498   */\n      0x04\n        /* \"#utility.yul\":6490:6505   */\n      mstore\n        /* \"#utility.yul\":6524:6528   */\n      0x24\n        /* \"#utility.yul\":6521:6522   */\n      0x00\n        /* \"#utility.yul\":6514:6529   */\n      revert\n        /* \"#utility.yul\":6541:6861   */\n    tag_128:\n        /* \"#utility.yul\":6585:6591   */\n      0x00\n        /* \"#utility.yul\":6622:6623   */\n      0x02\n        /* \"#utility.yul\":6616:6620   */\n      dup3\n        /* \"#utility.yul\":6612:6624   */\n      div\n        /* \"#utility.yul\":6602:6624   */\n      swap1\n      pop\n        /* \"#utility.yul\":6669:6670   */\n      0x01\n        /* \"#utility.yul\":6663:6667   */\n      dup3\n        /* \"#utility.yul\":6659:6671   */\n      and\n        /* \"#utility.yul\":6690:6708   */\n      dup1\n        /* \"#utility.yul\":6680:6761   */\n      tag_368\n      jumpi\n        /* \"#utility.yul\":6746:6750   */\n      0x7f\n        /* \"#utility.yul\":6738:6744   */\n      dup3\n        /* \"#utility.yul\":6734:6751   */\n      and\n        /* \"#utility.yul\":6724:6751   */\n      swap2\n      pop\n        /* \"#utility.yul\":6680:6761   */\n    tag_368:\n        /* \"#utility.yul\":6808:6810   */\n      0x20\n        /* \"#utility.yul\":6800:6806   */\n      dup3\n        /* \"#utility.yul\":6797:6811   */\n      lt\n        /* \"#utility.yul\":6777:6795   */\n      dup2\n        /* \"#utility.yul\":6774:6812   */\n      sub\n        /* \"#utility.yul\":6771:6855   */\n      tag_369\n      jumpi\n        /* \"#utility.yul\":6827:6845   */\n      tag_370\n      tag_289\n      jump\t// in\n    tag_370:\n        /* \"#utility.yul\":6771:6855   */\n    tag_369:\n        /* \"#utility.yul\":6592:6861   */\n      pop\n        /* \"#utility.yul\":6541:6861   */\n      swap2\n      swap1\n      pop\n      jump\t// out\n        /* \"#utility.yul\":6867:7199   */\n    tag_137:\n        /* \"#utility.yul\":6988:6992   */\n      0x00\n        /* \"#utility.yul\":7026:7028   */\n      0x40\n        /* \"#utility.yul\":7015:7024   */\n      dup3\n        /* \"#utility.yul\":7011:7029   */\n      add\n        /* \"#utility.yul\":7003:7029   */\n      swap1\n      pop\n        /* \"#utility.yul\":7039:7110   */\n      tag_372\n        /* \"#utility.yul\":7107:7108   */\n      0x00\n        /* \"#utility.yul\":7096:7105   */\n      dup4\n        /* \"#utility.yul\":7092:7109   */\n      add\n        /* \"#utility.yul\":7083:7089   */\n      dup6\n        /* \"#utility.yul\":7039:7110   */\n      tag_288\n      jump\t// in\n    tag_372:\n        /* \"#utility.yul\":7120:7192   */\n      tag_373\n        /* \"#utility.yul\":7188:7190   */\n      0x20\n        /* \"#utility.yul\":7177:7186   */\n      dup4\n        /* \"#utility.yul\":7173:7191   */\n      add\n        /* \"#utility.yul\":7164:7170   */\n      dup5\n        /* \"#utility.yul\":7120:7192   */\n      tag_285\n      jump\t// in\n    tag_373:\n        /* \"#utility.yul\":6867:7199   */\n      swap4\n      swap3\n      pop\n      pop\n      pop\n      jump\t// out\n        /* \"#utility.yul\":7205:7647   */\n    tag_149:\n        /* \"#utility.yul\":7354:7358   */\n      0x00\n        /* \"#utility.yul\":7392:7394   */\n      0x60\n        /* \"#utility.yul\":7381:7390   */\n      dup3\n        /* \"#utility.yul\":7377:7395   */\n      add\n        /* \"#utility.yul\":7369:7395   */\n      swap1\n      pop\n        /* \"#utility.yul\":7405:7476   */\n      tag_375\n        /* \"#utility.yul\":7473:7474   */\n      0x00\n        /* \"#utility.yul\":7462:7471   */\n      dup4\n        /* \"#utility.yul\":7458:7475   */\n      add\n        /* \"#utility.yul\":7449:7455   */\n      dup7\n        /* \"#utility.yul\":7405:7476   */\n      tag_288\n      jump\t// in\n    tag_375:\n        /* \"#utility.yul\":7486:7558   */\n      tag_376\n        /* \"#utility.yul\":7554:7556   */\n      0x20\n        /* \"#utility.yul\":7543:7552   */\n      dup4\n        /* \"#utility.yul\":7539:7557   */\n      add\n        /* \"#utility.yul\":7530:7536   */\n      dup6\n        /* \"#utility.yul\":7486:7558   */\n      tag_288\n      jump\t// in\n    tag_376:\n        /* \"#utility.yul\":7568:7640   */\n      tag_377\n        /* \"#utility.yul\":7636:7638   */\n      0x40\n        /* \"#utility.yul\":7625:7634   */\n      dup4\n        /* \"#utility.yul\":7621:7639   */\n      add\n        /* \"#utility.yul\":7612:7618   */\n      dup5\n        /* \"#utility.yul\":7568:7640   */\n      tag_285\n      jump\t// in\n    tag_377:\n        /* \"#utility.yul\":7205:7647   */\n      swap5\n      swap4\n      pop\n      pop\n      pop\n      pop\n      jump\t// out\n        /* \"#utility.yul\":7653:7796   */\n    tag_290:\n        /* \"#utility.yul\":7710:7715   */\n      0x00\n        /* \"#utility.yul\":7741:7747   */\n      dup2\n        /* \"#utility.yul\":7735:7748   */\n      mload\n        /* \"#utility.yul\":7726:7748   */\n      swap1\n      pop\n        /* \"#utility.yul\":7757:7790   */\n      tag_379\n        /* \"#utility.yul\":7784:7789   */\n      dup2\n        /* \"#utility.yul\":7757:7790   */\n      tag_281\n      jump\t// in\n    tag_379:\n        /* \"#utility.yul\":7653:7796   */\n      swap3\n      swap2\n      pop\n      pop\n      jump\t// out\n        /* \"#utility.yul\":7802:8153   */\n    tag_163:\n        /* \"#utility.yul\":7872:7878   */\n      0x00\n        /* \"#utility.yul\":7921:7923   */\n      0x20\n        /* \"#utility.yul\":7909:7918   */\n      dup3\n        /* \"#utility.yul\":7900:7907   */\n      dup5\n        /* \"#utility.yul\":7896:7919   */\n      sub\n        /* \"#utility.yul\":7892:7924   */\n      slt\n        /* \"#utility.yul\":7889:8008   */\n      iszero\n      tag_381\n      jumpi\n        /* \"#utility.yul\":7927:8006   */\n      tag_382\n      tag_274\n      jump\t// in\n    tag_382:\n        /* \"#utility.yul\":7889:8008   */\n    tag_381:\n        /* \"#utility.yul\":8047:8048   */\n      0x00\n        /* \"#utility.yul\":8072:8136   */\n      tag_383\n        /* \"#utility.yul\":8128:8135   */\n      dup5\n        /* \"#utility.yul\":8119:8125   */\n      dup3\n        /* \"#utility.yul\":8108:8117   */\n      dup6\n        /* \"#utility.yul\":8104:8126   */\n      add\n        /* \"#utility.yul\":8072:8136   */\n      tag_290\n      jump\t// in\n    tag_383:\n        /* \"#utility.yul\":8062:8136   */\n      swap2\n      pop\n        /* \"#utility.yul\":8018:8146   */\n      pop\n        /* \"#utility.yul\":7802:8153   */\n      swap3\n      swap2\n      pop\n      pop\n      jump\t// out\n        /* \"#utility.yul\":8159:8339   */\n    tag_291:\n        /* \"#utility.yul\":8207:8284   */\n      0x4e487b7100000000000000000000000000000000000000000000000000000000\n        /* \"#utility.yul\":8204:8205   */\n      0x00\n        /* \"#utility.yul\":8197:8285   */\n      mstore\n        /* \"#utility.yul\":8304:8308   */\n      0x11\n        /* \"#utility.yul\":8301:8302   */\n      0x04\n        /* \"#utility.yul\":8294:8309   */\n      mstore\n        /* \"#utility.yul\":8328:8332   */\n      0x24\n        /* \"#utility.yul\":8325:8326   */\n      0x00\n        /* \"#utility.yul\":8318:8333   */\n      revert\n        /* \"#utility.yul\":8345:8536   */\n    tag_182:\n        /* \"#utility.yul\":8385:8388   */\n      0x00\n        /* \"#utility.yul\":8404:8424   */\n      tag_386\n        /* \"#utility.yul\":8422:8423   */\n      dup3\n        /* \"#utility.yul\":8404:8424   */\n      tag_280\n      jump\t// in\n    tag_386:\n        /* \"#utility.yul\":8399:8424   */\n      swap2\n      pop\n        /* \"#utility.yul\":8438:8458   */\n      tag_387\n        /* \"#utility.yul\":8456:8457   */\n      dup4\n        /* \"#utility.yul\":8438:8458   */\n      tag_280\n      jump\t// in\n    tag_387:\n        /* \"#utility.yul\":8433:8458   */\n      swap3\n      pop\n        /* \"#utility.yul\":8481:8482   */\n      dup3\n        /* \"#utility.yul\":8478:8479   */\n      dup3\n        /* \"#utility.yul\":8474:8483   */\n      add\n        /* \"#utility.yul\":8467:8483   */\n      swap1\n      pop\n        /* \"#utility.yul\":8502:8505   */\n      dup1\n        /* \"#utility.yul\":8499:8500   */\n      dup3\n        /* \"#utility.yul\":8496:8506   */\n      gt\n        /* \"#utility.yul\":8493:8529   */\n      iszero\n      tag_388\n      jumpi\n        /* \"#utility.yul\":8509:8527   */\n      tag_389\n      tag_291\n      jump\t// in\n    tag_389:\n        /* \"#utility.yul\":8493:8529   */\n    tag_388:\n        /* \"#utility.yul\":8345:8536   */\n      swap3\n      swap2\n      pop\n      pop\n      jump\t// out\n        /* \"#utility.yul\":8542:8736   */\n    tag_204:\n        /* \"#utility.yul\":8582:8586   */\n      0x00\n        /* \"#utility.yul\":8602:8622   */\n      tag_391\n        /* \"#utility.yul\":8620:8621   */\n      dup3\n        /* \"#utility.yul\":8602:8622   */\n      tag_280\n      jump\t// in\n    tag_391:\n        /* \"#utility.yul\":8597:8622   */\n      swap2\n      pop\n        /* \"#utility.yul\":8636:8656   */\n      tag_392\n        /* \"#utility.yul\":8654:8655   */\n      dup4\n        /* \"#utility.yul\":8636:8656   */\n      tag_280\n      jump\t// in\n    tag_392:\n        /* \"#utility.yul\":8631:8656   */\n      swap3\n      pop\n        /* \"#utility.yul\":8680:8681   */\n      dup3\n        /* \"#utility.yul\":8677:8678   */\n      dup3\n        /* \"#utility.yul\":8673:8682   */\n      sub\n        /* \"#utility.yul\":8665:8682   */\n      swap1\n      pop\n        /* \"#utility.yul\":8704:8705   */\n      dup2\n        /* \"#utility.yul\":8698:8702   */\n      dup2\n        /* \"#utility.yul\":8695:8706   */\n      gt\n        /* \"#utility.yul\":8692:8729   */\n      iszero\n      tag_393\n      jumpi\n        /* \"#utility.yul\":8709:8727   */\n      tag_394\n      tag_291\n      jump\t// in\n    tag_394:\n        /* \"#utility.yul\":8692:8729   */\n    tag_393:\n        /* \"#utility.yul\":8542:8736   */\n      swap3\n      swap2\n      pop\n      pop\n      jump\t// out\n        /* \"#utility.yul\":8742:9074   */\n    tag_211:\n        /* \"#utility.yul\":8863:8867   */\n      0x00\n        /* \"#utility.yul\":8901:8903   */\n      0x40\n        /* \"#utility.yul\":8890:8899   */\n      dup3\n        /* \"#utility.yul\":8886:8904   */\n      add\n        /* \"#utility.yul\":8878:8904   */\n      swap1\n      pop\n        /* \"#utility.yul\":8914:8985   */\n      tag_396\n        /* \"#utility.yul\":8982:8983   */\n      0x00\n        /* \"#utility.yul\":8971:8980   */\n      dup4\n        /* \"#utility.yul\":8967:8984   */\n      add\n        /* \"#utility.yul\":8958:8964   */\n      dup6\n        /* \"#utility.yul\":8914:8985   */\n      tag_288\n      jump\t// in\n    tag_396:\n        /* \"#utility.yul\":8995:9067   */\n      tag_397\n        /* \"#utility.yul\":9063:9065   */\n      0x20\n        /* \"#utility.yul\":9052:9061   */\n      dup4\n        /* \"#utility.yul\":9048:9066   */\n      add\n        /* \"#utility.yul\":9039:9045   */\n      dup5\n        /* \"#utility.yul\":8995:9067   */\n      tag_288\n      jump\t// in\n    tag_397:\n        /* \"#utility.yul\":8742:9074   */\n      swap4\n      swap3\n      pop\n      pop\n      pop\n      jump\t// out\n\n    auxdata: 0xa26469706673582212206d2e59da16f86324f25271abcb975251a03c6bc07be4156c57448c6637f048d064736f6c63430008160033\n}\n",
				"bytecode": {
					"linkReferences": {},
					"object": "608060405234801562000010575f80fd5b506040516200215b3803806200215b833981810160405281019062000036919062000460565b805f73ffffffffffffffffffffffffffffffffffffffff168173ffffffffffffffffffffffffffffffffffffffff1603620000aa575f6040517f1e4fbdf7000000000000000000000000000000000000000000000000000000008152600401620000a1919062000533565b60405180910390fd5b620000bb816200010c60201b60201c565b508460059081620000cd91906200077c565b508360069081620000df91906200077c565b50826007819055508160085f6101000a81548160ff021916908360ff160217905550505050505062000860565b60045f6101000a81549073ffffffffffffffffffffffffffffffffffffffff021916905562000141816200014460201b60201c565b50565b5f60035f9054906101000a900473ffffffffffffffffffffffffffffffffffffffff1690508160035f6101000a81548173ffffffffffffffffffffffffffffffffffffffff021916908373ffffffffffffffffffffffffffffffffffffffff1602179055508173ffffffffffffffffffffffffffffffffffffffff168173ffffffffffffffffffffffffffffffffffffffff167f8be0079c531659141344cd1fd0a4f28419497f9722a3daafe3b4186f6b6457e060405160405180910390a35050565b5f604051905090565b5f80fd5b5f80fd5b5f80fd5b5f80fd5b5f601f19601f8301169050919050565b7f4e487b71000000000000000000000000000000000000000000000000000000005f52604160045260245ffd5b620002688262000220565b810181811067ffffffffffffffff821117156200028a576200028962000230565b5b80604052505050565b5f6200029e62000207565b9050620002ac82826200025d565b919050565b5f67ffffffffffffffff821115620002ce57620002cd62000230565b5b620002d98262000220565b9050602081019050919050565b5f5b8381101562000305578082015181840152602081019050620002e8565b5f8484015250505050565b5f620003266200032084620002b1565b62000293565b9050828152602081018484840111156200034557620003446200021c565b5b62000352848285620002e6565b509392505050565b5f82601f83011262000371576200037062000218565b5b81516200038384826020860162000310565b91505092915050565b5f819050919050565b620003a0816200038c565b8114620003ab575f80fd5b50565b5f81519050620003be8162000395565b92915050565b5f60ff82169050919050565b620003db81620003c4565b8114620003e6575f80fd5b50565b5f81519050620003f981620003d0565b92915050565b5f73ffffffffffffffffffffffffffffffffffffffff82169050919050565b5f6200042a82620003ff565b9050919050565b6200043c816200041e565b811462000447575f80fd5b50565b5f815190506200045a8162000431565b92915050565b5f805f805f60a086880312156200047c576200047b62000210565b5b5f86015167ffffffffffffffff8111156200049c576200049b62000214565b5b620004aa888289016200035a565b955050602086015167ffffffffffffffff811115620004ce57620004cd62000214565b5b620004dc888289016200035a565b9450506040620004ef88828901620003ae565b93505060606200050288828901620003e9565b925050608062000515888289016200044a565b9150509295509295909350565b6200052d816200041e565b82525050565b5f602082019050620005485f83018462000522565b92915050565b5f81519050919050565b7f4e487b71000000000000000000000000000000000000000000000000000000005f52602260045260245ffd5b5f60028204905060018216806200059d57607f821691505b602082108103620005b357620005b262000558565b5b50919050565b5f819050815f5260205f209050919050565b5f6020601f8301049050919050565b5f82821b905092915050565b5f60088302620006177fffffffffffffffffffffffffffffffffffffffffffffffffffffffffffffffff82620005da565b620006238683620005da565b95508019841693508086168417925050509392505050565b5f819050919050565b5f620006646200065e62000658846200038c565b6200063b565b6200038c565b9050919050565b5f819050919050565b6200067f8362000644565b620006976200068e826200066b565b848454620005e6565b825550505050565b5f90565b620006ad6200069f565b620006ba81848462000674565b505050565b5b81811015620006e157620006d55f82620006a3565b600181019050620006c0565b5050565b601f8211156200073057620006fa81620005b9565b6200070584620005cb565b8101602085101562000715578190505b6200072d6200072485620005cb565b830182620006bf565b50505b505050565b5f82821c905092915050565b5f620007525f198460080262000735565b1980831691505092915050565b5f6200076c838362000741565b9150826002028217905092915050565b62000787826200054e565b67ffffffffffffffff811115620007a357620007a262000230565b5b620007af825462000585565b620007bc828285620006e5565b5f60209050601f831160018114620007f2575f8415620007dd578287015190505b620007e985826200075f565b86555062000858565b601f1984166200080286620005b9565b5f5b828110156200082b5784890151825560018201915060208501945060208101905062000804565b868310156200084b578489015162000847601f89168262000741565b8355505b6001600288020188555050505b505050505050565b6118ed806200086e5f395ff3fe608060405260043610610122575f3560e01c80638da5cb5b1161009f578063e30c397811610063578063e30c39781461039b578063eb2c0223146103c5578063f2fde38b146103ed578063f62babdf14610415578063ffa1ad741461043f57610129565b80638da5cb5b146102bb57806395d89b41146102e5578063a9059cbb1461030f578063db006a7514610337578063dd62ed3e1461035f57610129565b8063313ce567116100e6578063313ce5671461020157806370a082311461022b578063715018a61461026757806379ba50971461027d578063867904b41461029357610129565b806306fdde0314610133578063095ea7b31461015d5780630e136b191461018557806318160ddd146101af57806323b872dd146101d957610129565b3661012957005b610131610469565b005b34801561013e575f80fd5b5061014761047b565b604051610154919061147b565b60405180910390f35b348015610168575f80fd5b50610183600480360381019061017e919061152c565b610507565b005b348015610190575f80fd5b506101996105b1565b6040516101a69190611584565b60405180910390f35b3480156101ba575f80fd5b506101c3610608565b6040516101d091906115ac565b60405180910390f35b3480156101e4575f80fd5b506101ff60048036038101906101fa91906115c5565b61060e565b005b34801561020c575f80fd5b506102156106bc565b6040516102229190611630565b60405180910390f35b348015610236575f80fd5b50610251600480360381019061024c9190611649565b6106ce565b60405161025e91906115ac565b60405180910390f35b348015610272575f80fd5b5061027b61078d565b005b348015610288575f80fd5b506102916107a0565b005b34801561029e575f80fd5b506102b960048036038101906102b4919061152c565b61082e565b005b3480156102c6575f80fd5b506102cf61088c565b6040516102dc9190611683565b60405180910390f35b3480156102f0575f80fd5b506102f96108b4565b604051610306919061147b565b60405180910390f35b34801561031a575f80fd5b506103356004803603810190610330919061152c565b610940565b005b348015610342575f80fd5b5061035d6004803603810190610358919061169c565b6109ea565b005b34801561036a575f80fd5b50610385600480360381019061038091906116c7565b610a47565b60405161039291906115ac565b60405180910390f35b3480156103a6575f80fd5b506103af610b0a565b6040516103bc9190611683565b60405180910390f35b3480156103d0575f80fd5b506103eb60048036038101906103e69190611649565b610b32565b005b3480156103f8575f80fd5b50610413600480360381019061040e9190611649565b610b46565b005b348015610420575f80fd5b50610429610bf2565b6040516104369190611683565b60405180910390f35b34801561044a575f80fd5b50610453610c17565b604051610460919061147b565b60405180910390f35b610479610474610c50565b610c8e565b565b6005805461048890611732565b80601f01602080910402602001604051908101604052809291908181526020018280546104b490611732565b80156104ff5780601f106104d6576101008083540402835291602001916104ff565b820191905f5260205f20905b8154815290600101906020018083116104e257829003601f168201915b505050505081565b61050f6105b1565b156105a25760025f9054906101000a900473ffffffffffffffffffffffffffffffffffffffff1673ffffffffffffffffffffffffffffffffffffffff1663095ea7b383836040518363ffffffff1660e01b8152600401610570929190611762565b5f604051808303815f87803b158015610587575f80fd5b505af1158015610599573d5f803e3d5ffd5b505050506105ad565b6105ac8282610cad565b5b5050565b5f8073ffffffffffffffffffffffffffffffffffffffff1660025f9054906101000a900473ffffffffffffffffffffffffffffffffffffffff1673ffffffffffffffffffffffffffffffffffffffff161415905090565b60075481565b6106166105b1565b156106ab5760025f9054906101000a900473ffffffffffffffffffffffffffffffffffffffff1673ffffffffffffffffffffffffffffffffffffffff166323b872dd8484846040518463ffffffff1660e01b815260040161067993929190611789565b5f604051808303815f87803b158015610690575f80fd5b505af11580156106a2573d5f803e3d5ffd5b505050506106b7565b6106b6838383610dca565b5b505050565b60085f9054906101000a900460ff1681565b5f6106d76105b1565b1561077c5760025f9054906101000a900473ffffffffffffffffffffffffffffffffffffffff1673ffffffffffffffffffffffffffffffffffffffff166370a08231836040518263ffffffff1660e01b81526004016107369190611683565b602060405180830381865afa158015610751573d5f803e3d5ffd5b505050506040513d601f19601f8201168201806040525081019061077591906117d2565b9050610788565b61078582610f5c565b90505b919050565b610795610fa1565b61079e5f611028565b565b5f6107a9611058565b90508073ffffffffffffffffffffffffffffffffffffffff166107ca610b0a565b73ffffffffffffffffffffffffffffffffffffffff161461082257806040517f118cdaa70000000000000000000000000000000000000000000000000000000081526004016108199190611683565b60405180910390fd5b61082b81611028565b50565b8060075f82825461083f919061182a565b925050819055507fcb8241adb0c3fdb35b70c24ce35c5eb0c17af7431c99f827d44a445ca624176a8160405161087591906115ac565b60405180910390a161088830838361105f565b5050565b5f60035f9054906101000a900473ffffffffffffffffffffffffffffffffffffffff16905090565b600680546108c190611732565b80601f01602080910402602001604051908101604052809291908181526020018280546108ed90611732565b80156109385780601f1061090f57610100808354040283529160200191610938565b820191905f5260205f20905b81548152906001019060200180831161091b57829003601f168201915b505050505081565b6109486105b1565b156109db5760025f9054906101000a900473ffffffffffffffffffffffffffffffffffffffff1673ffffffffffffffffffffffffffffffffffffffff1663a9059cbb83836040518363ffffffff1660e01b81526004016109a9929190611762565b5f604051808303815f87803b1580156109c0575f80fd5b505af11580156109d2573d5f803e3d5ffd5b505050506109e6565b6109e582826111ec565b5b5050565b8060075f8282546109fb919061185d565b925050819055507f702d5967f45f6513a38ffc42d6ba9bf230bd40e8f53b16363c7eb4fd2deb9a4481604051610a3191906115ac565b60405180910390a1610a4433308361105f565b50565b5f610a506105b1565b15610af75760025f9054906101000a900473ffffffffffffffffffffffffffffffffffffffff1673ffffffffffffffffffffffffffffffffffffffff1663dd62ed3e84846040518363ffffffff1660e01b8152600401610ab1929190611890565b602060405180830381865afa158015610acc573d5f803e3d5ffd5b505050506040513d601f19601f82011682018060405250810190610af091906117d2565b9050610b04565b610b018383611232565b90505b92915050565b5f60045f9054906101000a900473ffffffffffffffffffffffffffffffffffffffff16905090565b610b3a610fa1565b610b43816112b4565b50565b610b4e610fa1565b8060045f6101000a81548173ffffffffffffffffffffffffffffffffffffffff021916908373ffffffffffffffffffffffffffffffffffffffff1602179055508073ffffffffffffffffffffffffffffffffffffffff16610bad61088c565b73ffffffffffffffffffffffffffffffffffffffff167f38d16b8cac22d99fc7c124b9cd0de2d3fa1faef420bfe791d8c362d765e2270060405160405180910390a350565b60025f9054906101000a900473ffffffffffffffffffffffffffffffffffffffff1681565b6040518060400160405280600381526020017f302e31000000000000000000000000000000000000000000000000000000000081525081565b5f610c596105b1565b15610c875760025f9054906101000a900473ffffffffffffffffffffffffffffffffffffffff169050610c8b565b3090505b90565b365f80375f80365f845af43d5f803e805f8114610ca9573d5ff35b3d5ffd5b5f73ffffffffffffffffffffffffffffffffffffffff168273ffffffffffffffffffffffffffffffffffffffff1603610ce4575f80fd5b8060015f3373ffffffffffffffffffffffffffffffffffffffff1673ffffffffffffffffffffffffffffffffffffffff1681526020019081526020015f205f8473ffffffffffffffffffffffffffffffffffffffff1673ffffffffffffffffffffffffffffffffffffffff1681526020019081526020015f20819055508173ffffffffffffffffffffffffffffffffffffffff163373ffffffffffffffffffffffffffffffffffffffff167f8c5be1e5ebec7d5bd14f71427d1e84f3dd0314c0f7b2291e5b200ac8c7c3b92583604051610dbe91906115ac565b60405180910390a35050565b5f73ffffffffffffffffffffffffffffffffffffffff168373ffffffffffffffffffffffffffffffffffffffff1614158015610e3257505f73ffffffffffffffffffffffffffffffffffffffff168273ffffffffffffffffffffffffffffffffffffffff1614155b610e3a575f80fd5b8060015f8573ffffffffffffffffffffffffffffffffffffffff1673ffffffffffffffffffffffffffffffffffffffff1681526020019081526020015f205f3373ffffffffffffffffffffffffffffffffffffffff1673ffffffffffffffffffffffffffffffffffffffff1681526020019081526020015f20541015610ebe575f80fd5b610ec983838361105f565b8060015f8573ffffffffffffffffffffffffffffffffffffffff1673ffffffffffffffffffffffffffffffffffffffff1681526020019081526020015f205f3373ffffffffffffffffffffffffffffffffffffffff1673ffffffffffffffffffffffffffffffffffffffff1681526020019081526020015f205f828254610f50919061185d565b92505081905550505050565b5f805f8373ffffffffffffffffffffffffffffffffffffffff1673ffffffffffffffffffffffffffffffffffffffff1681526020019081526020015f20549050919050565b610fa9611058565b73ffffffffffffffffffffffffffffffffffffffff16610fc761088c565b73ffffffffffffffffffffffffffffffffffffffff161461102657610fea611058565b6040517f118cdaa700000000000000000000000000000000000000000000000000000000815260040161101d9190611683565b60405180910390fd5b565b60045f6101000a81549073ffffffffffffffffffffffffffffffffffffffff02191690556110558161132e565b50565b5f33905090565b3073ffffffffffffffffffffffffffffffffffffffff168273ffffffffffffffffffffffffffffffffffffffff1603611096575f80fd5b805f808573ffffffffffffffffffffffffffffffffffffffff1673ffffffffffffffffffffffffffffffffffffffff1681526020019081526020015f205410156110de575f80fd5b805f808573ffffffffffffffffffffffffffffffffffffffff1673ffffffffffffffffffffffffffffffffffffffff1681526020019081526020015f205f828254611129919061185d565b92505081905550805f808473ffffffffffffffffffffffffffffffffffffffff1673ffffffffffffffffffffffffffffffffffffffff1681526020019081526020015f205f82825461117b919061182a565b925050819055508173ffffffffffffffffffffffffffffffffffffffff168373ffffffffffffffffffffffffffffffffffffffff167fddf252ad1be2c89b69c2b068fc378daa952ba7f163c4a11628f55a4df523b3ef836040516111df91906115ac565b60405180910390a3505050565b5f73ffffffffffffffffffffffffffffffffffffffff168273ffffffffffffffffffffffffffffffffffffffff1603611223575f80fd5b61122e33838361105f565b5050565b5f60015f8473ffffffffffffffffffffffffffffffffffffffff1673ffffffffffffffffffffffffffffffffffffffff1681526020019081526020015f205f8373ffffffffffffffffffffffffffffffffffffffff1673ffffffffffffffffffffffffffffffffffffffff1681526020019081526020015f2054905092915050565b5f73ffffffffffffffffffffffffffffffffffffffff168173ffffffffffffffffffffffffffffffffffffffff16036112eb575f80fd5b8060025f6101000a81548173ffffffffffffffffffffffffffffffffffffffff021916908373ffffffffffffffffffffffffffffffffffffffff16021790555050565b5f60035f9054906101000a900473ffffffffffffffffffffffffffffffffffffffff1690508160035f6101000a81548173ffffffffffffffffffffffffffffffffffffffff021916908373ffffffffffffffffffffffffffffffffffffffff1602179055508173ffffffffffffffffffffffffffffffffffffffff168173ffffffffffffffffffffffffffffffffffffffff167f8be0079c531659141344cd1fd0a4f28419497f9722a3daafe3b4186f6b6457e060405160405180910390a35050565b5f81519050919050565b5f82825260208201905092915050565b5f5b8381101561142857808201518184015260208101905061140d565b5f8484015250505050565b5f601f19601f8301169050919050565b5f61144d826113f1565b61145781856113fb565b935061146781856020860161140b565b61147081611433565b840191505092915050565b5f6020820190508181035f8301526114938184611443565b905092915050565b5f80fd5b5f73ffffffffffffffffffffffffffffffffffffffff82169050919050565b5f6114c88261149f565b9050919050565b6114d8816114be565b81146114e2575f80fd5b50565b5f813590506114f3816114cf565b92915050565b5f819050919050565b61150b816114f9565b8114611515575f80fd5b50565b5f8135905061152681611502565b92915050565b5f80604083850312156115425761154161149b565b5b5f61154f858286016114e5565b925050602061156085828601611518565b9150509250929050565b5f8115159050919050565b61157e8161156a565b82525050565b5f6020820190506115975f830184611575565b92915050565b6115a6816114f9565b82525050565b5f6020820190506115bf5f83018461159d565b92915050565b5f805f606084860312156115dc576115db61149b565b5b5f6115e9868287016114e5565b93505060206115fa868287016114e5565b925050604061160b86828701611518565b9150509250925092565b5f60ff82169050919050565b61162a81611615565b82525050565b5f6020820190506116435f830184611621565b92915050565b5f6020828403121561165e5761165d61149b565b5b5f61166b848285016114e5565b91505092915050565b61167d816114be565b82525050565b5f6020820190506116965f830184611674565b92915050565b5f602082840312156116b1576116b061149b565b5b5f6116be84828501611518565b91505092915050565b5f80604083850312156116dd576116dc61149b565b5b5f6116ea858286016114e5565b92505060206116fb858286016114e5565b9150509250929050565b7f4e487b71000000000000000000000000000000000000000000000000000000005f52602260045260245ffd5b5f600282049050600182168061174957607f821691505b60208210810361175c5761175b611705565b5b50919050565b5f6040820190506117755f830185611674565b611782602083018461159d565b9392505050565b5f60608201905061179c5f830186611674565b6117a96020830185611674565b6117b6604083018461159d565b949350505050565b5f815190506117cc81611502565b92915050565b5f602082840312156117e7576117e661149b565b5b5f6117f4848285016117be565b91505092915050565b7f4e487b71000000000000000000000000000000000000000000000000000000005f52601160045260245ffd5b5f611834826114f9565b915061183f836114f9565b9250828201905080821115611857576118566117fd565b5b92915050565b5f611867826114f9565b9150611872836114f9565b925082820390508181111561188a576118896117fd565b5b92915050565b5f6040820190506118a35f830185611674565b6118b06020830184611674565b939250505056fea26469706673582212206d2e59da16f86324f25271abcb975251a03c6bc07be4156c57448c6637f048d064736f6c63430008160033",
					"opcodes": "PUSH1 0x80 PUSH1 0x40 MSTORE CALLVALUE DUP1 ISZERO PUSH3 0x10 JUMPI PUSH0 DUP1 REVERT JUMPDEST POP PUSH1 0x40 MLOAD PUSH3 0x215B CODESIZE SUB DUP1 PUSH3 0x215B DUP4 CODECOPY DUP2 DUP2 ADD PUSH1 0x40 MSTORE DUP2 ADD SWAP1 PUSH3 0x36 SWAP2 SWAP1 PUSH3 0x460 JUMP JUMPDEST DUP1 PUSH0 PUSH20 0xFFFFFFFFFFFFFFFFFFFFFFFFFFFFFFFFFFFFFFFF AND DUP2 PUSH20 0xFFFFFFFFFFFFFFFFFFFFFFFFFFFFFFFFFFFFFFFF AND SUB PUSH3 0xAA JUMPI PUSH0 PUSH1 0x40 MLOAD PUSH32 0x1E4FBDF700000000000000000000000000000000000000000000000000000000 DUP2 MSTORE PUSH1 0x4 ADD PUSH3 0xA1 SWAP2 SWAP1 PUSH3 0x533 JUMP JUMPDEST PUSH1 0x40 MLOAD DUP1 SWAP2 SUB SWAP1 REVERT JUMPDEST PUSH3 0xBB DUP2 PUSH3 0x10C PUSH1 0x20 SHL PUSH1 0x20 SHR JUMP JUMPDEST POP DUP5 PUSH1 0x5 SWAP1 DUP2 PUSH3 0xCD SWAP2 SWAP1 PUSH3 0x77C JUMP JUMPDEST POP DUP4 PUSH1 0x6 SWAP1 DUP2 PUSH3 0xDF SWAP2 SWAP1 PUSH3 0x77C JUMP JUMPDEST POP DUP3 PUSH1 0x7 DUP2 SWAP1 SSTORE POP DUP2 PUSH1 0x8 PUSH0 PUSH2 0x100 EXP DUP2 SLOAD DUP2 PUSH1 0xFF MUL NOT AND SWAP1 DUP4 PUSH1 0xFF AND MUL OR SWAP1 SSTORE POP POP POP POP POP POP PUSH3 0x860 JUMP JUMPDEST PUSH1 0x4 PUSH0 PUSH2 0x100 EXP DUP2 SLOAD SWAP1 PUSH20 0xFFFFFFFFFFFFFFFFFFFFFFFFFFFFFFFFFFFFFFFF MUL NOT AND SWAP1 SSTORE PUSH3 0x141 DUP2 PUSH3 0x144 PUSH1 0x20 SHL PUSH1 0x20 SHR JUMP JUMPDEST POP JUMP JUMPDEST PUSH0 PUSH1 0x3 PUSH0 SWAP1 SLOAD SWAP1 PUSH2 0x100 EXP SWAP1 DIV PUSH20 0xFFFFFFFFFFFFFFFFFFFFFFFFFFFFFFFFFFFFFFFF AND SWAP1 POP DUP2 PUSH1 0x3 PUSH0 PUSH2 0x100 EXP DUP2 SLOAD DUP2 PUSH20 0xFFFFFFFFFFFFFFFFFFFFFFFFFFFFFFFFFFFFFFFF MUL NOT AND SWAP1 DUP4 PUSH20 0xFFFFFFFFFFFFFFFFFFFFFFFFFFFFFFFFFFFFFFFF AND MUL OR SWAP1 SSTORE POP DUP2 PUSH20 0xFFFFFFFFFFFFFFFFFFFFFFFFFFFFFFFFFFFFFFFF AND DUP2 PUSH20 0xFFFFFFFFFFFFFFFFFFFFFFFFFFFFFFFFFFFFFFFF AND PUSH32 0x8BE0079C531659141344CD1FD0A4F28419497F9722A3DAAFE3B4186F6B6457E0 PUSH1 0x40 MLOAD PUSH1 0x40 MLOAD DUP1 SWAP2 SUB SWAP1 LOG3 POP POP JUMP JUMPDEST PUSH0 PUSH1 0x40 MLOAD SWAP1 POP SWAP1 JUMP JUMPDEST PUSH0 DUP1 REVERT JUMPDEST PUSH0 DUP1 REVERT JUMPDEST PUSH0 DUP1 REVERT JUMPDEST PUSH0 DUP1 REVERT JUMPDEST PUSH0 PUSH1 0x1F NOT PUSH1 0x1F DUP4 ADD AND SWAP1 POP SWAP2 SWAP1 POP JUMP JUMPDEST PUSH32 0x4E487B7100000000000000000000000000000000000000000000000000000000 PUSH0 MSTORE PUSH1 0x41 PUSH1 0x4 MSTORE PUSH1 0x24 PUSH0 REVERT JUMPDEST PUSH3 0x268 DUP3 PUSH3 0x220 JUMP JUMPDEST DUP2 ADD DUP2 DUP2 LT PUSH8 0xFFFFFFFFFFFFFFFF DUP3 GT OR ISZERO PUSH3 0x28A JUMPI PUSH3 0x289 PUSH3 0x230 JUMP JUMPDEST JUMPDEST DUP1 PUSH1 0x40 MSTORE POP POP POP JUMP JUMPDEST PUSH0 PUSH3 0x29E PUSH3 0x207 JUMP JUMPDEST SWAP1 POP PUSH3 0x2AC DUP3 DUP3 PUSH3 0x25D JUMP JUMPDEST SWAP2 SWAP1 POP JUMP JUMPDEST PUSH0 PUSH8 0xFFFFFFFFFFFFFFFF DUP3 GT ISZERO PUSH3 0x2CE JUMPI PUSH3 0x2CD PUSH3 0x230 JUMP JUMPDEST JUMPDEST PUSH3 0x2D9 DUP3 PUSH3 0x220 JUMP JUMPDEST SWAP1 POP PUSH1 0x20 DUP2 ADD SWAP1 POP SWAP2 SWAP1 POP JUMP JUMPDEST PUSH0 JUMPDEST DUP4 DUP2 LT ISZERO PUSH3 0x305 JUMPI DUP1 DUP3 ADD MLOAD DUP2 DUP5 ADD MSTORE PUSH1 0x20 DUP2 ADD SWAP1 POP PUSH3 0x2E8 JUMP JUMPDEST PUSH0 DUP5 DUP5 ADD MSTORE POP POP POP POP JUMP JUMPDEST PUSH0 PUSH3 0x326 PUSH3 0x320 DUP5 PUSH3 0x2B1 JUMP JUMPDEST PUSH3 0x293 JUMP JUMPDEST SWAP1 POP DUP3 DUP2 MSTORE PUSH1 0x20 DUP2 ADD DUP5 DUP5 DUP5 ADD GT ISZERO PUSH3 0x345 JUMPI PUSH3 0x344 PUSH3 0x21C JUMP JUMPDEST JUMPDEST PUSH3 0x352 DUP5 DUP3 DUP6 PUSH3 0x2E6 JUMP JUMPDEST POP SWAP4 SWAP3 POP POP POP JUMP JUMPDEST PUSH0 DUP3 PUSH1 0x1F DUP4 ADD SLT PUSH3 0x371 JUMPI PUSH3 0x370 PUSH3 0x218 JUMP JUMPDEST JUMPDEST DUP2 MLOAD PUSH3 0x383 DUP5 DUP3 PUSH1 0x20 DUP7 ADD PUSH3 0x310 JUMP JUMPDEST SWAP2 POP POP SWAP3 SWAP2 POP POP JUMP JUMPDEST PUSH0 DUP2 SWAP1 POP SWAP2 SWAP1 POP JUMP JUMPDEST PUSH3 0x3A0 DUP2 PUSH3 0x38C JUMP JUMPDEST DUP2 EQ PUSH3 0x3AB JUMPI PUSH0 DUP1 REVERT JUMPDEST POP JUMP JUMPDEST PUSH0 DUP2 MLOAD SWAP1 POP PUSH3 0x3BE DUP2 PUSH3 0x395 JUMP JUMPDEST SWAP3 SWAP2 POP POP JUMP JUMPDEST PUSH0 PUSH1 0xFF DUP3 AND SWAP1 POP SWAP2 SWAP1 POP JUMP JUMPDEST PUSH3 0x3DB DUP2 PUSH3 0x3C4 JUMP JUMPDEST DUP2 EQ PUSH3 0x3E6 JUMPI PUSH0 DUP1 REVERT JUMPDEST POP JUMP JUMPDEST PUSH0 DUP2 MLOAD SWAP1 POP PUSH3 0x3F9 DUP2 PUSH3 0x3D0 JUMP JUMPDEST SWAP3 SWAP2 POP POP JUMP JUMPDEST PUSH0 PUSH20 0xFFFFFFFFFFFFFFFFFFFFFFFFFFFFFFFFFFFFFFFF DUP3 AND SWAP1 POP SWAP2 SWAP1 POP JUMP JUMPDEST PUSH0 PUSH3 0x42A DUP3 PUSH3 0x3FF JUMP JUMPDEST SWAP1 POP SWAP2 SWAP1 POP JUMP JUMPDEST PUSH3 0x43C DUP2 PUSH3 0x41E JUMP JUMPDEST DUP2 EQ PUSH3 0x447 JUMPI PUSH0 DUP1 REVERT JUMPDEST POP JUMP JUMPDEST PUSH0 DUP2 MLOAD SWAP1 POP PUSH3 0x45A DUP2 PUSH3 0x431 JUMP JUMPDEST SWAP3 SWAP2 POP POP JUMP JUMPDEST PUSH0 DUP1 PUSH0 DUP1 PUSH0 PUSH1 0xA0 DUP7 DUP9 SUB SLT ISZERO PUSH3 0x47C JUMPI PUSH3 0x47B PUSH3 0x210 JUMP JUMPDEST JUMPDEST PUSH0 DUP7 ADD MLOAD PUSH8 0xFFFFFFFFFFFFFFFF DUP2 GT ISZERO PUSH3 0x49C JUMPI PUSH3 0x49B PUSH3 0x214 JUMP JUMPDEST JUMPDEST PUSH3 0x4AA DUP9 DUP3 DUP10 ADD PUSH3 0x35A JUMP JUMPDEST SWAP6 POP POP PUSH1 0x20 DUP7 ADD MLOAD PUSH8 0xFFFFFFFFFFFFFFFF DUP2 GT ISZERO PUSH3 0x4CE JUMPI PUSH3 0x4CD PUSH3 0x214 JUMP JUMPDEST JUMPDEST PUSH3 0x4DC DUP9 DUP3 DUP10 ADD PUSH3 0x35A JUMP JUMPDEST SWAP5 POP POP PUSH1 0x40 PUSH3 0x4EF DUP9 DUP3 DUP10 ADD PUSH3 0x3AE JUMP JUMPDEST SWAP4 POP POP PUSH1 0x60 PUSH3 0x502 DUP9 DUP3 DUP10 ADD PUSH3 0x3E9 JUMP JUMPDEST SWAP3 POP POP PUSH1 0x80 PUSH3 0x515 DUP9 DUP3 DUP10 ADD PUSH3 0x44A JUMP JUMPDEST SWAP2 POP POP SWAP3 SWAP6 POP SWAP3 SWAP6 SWAP1 SWAP4 POP JUMP JUMPDEST PUSH3 0x52D DUP2 PUSH3 0x41E JUMP JUMPDEST DUP3 MSTORE POP POP JUMP JUMPDEST PUSH0 PUSH1 0x20 DUP3 ADD SWAP1 POP PUSH3 0x548 PUSH0 DUP4 ADD DUP5 PUSH3 0x522 JUMP JUMPDEST SWAP3 SWAP2 POP POP JUMP JUMPDEST PUSH0 DUP2 MLOAD SWAP1 POP SWAP2 SWAP1 POP JUMP JUMPDEST PUSH32 0x4E487B7100000000000000000000000000000000000000000000000000000000 PUSH0 MSTORE PUSH1 0x22 PUSH1 0x4 MSTORE PUSH1 0x24 PUSH0 REVERT JUMPDEST PUSH0 PUSH1 0x2 DUP3 DIV SWAP1 POP PUSH1 0x1 DUP3 AND DUP1 PUSH3 0x59D JUMPI PUSH1 0x7F DUP3 AND SWAP2 POP JUMPDEST PUSH1 0x20 DUP3 LT DUP2 SUB PUSH3 0x5B3 JUMPI PUSH3 0x5B2 PUSH3 0x558 JUMP JUMPDEST JUMPDEST POP SWAP2 SWAP1 POP JUMP JUMPDEST PUSH0 DUP2 SWAP1 POP DUP2 PUSH0 MSTORE PUSH1 0x20 PUSH0 KECCAK256 SWAP1 POP SWAP2 SWAP1 POP JUMP JUMPDEST PUSH0 PUSH1 0x20 PUSH1 0x1F DUP4 ADD DIV SWAP1 POP SWAP2 SWAP1 POP JUMP JUMPDEST PUSH0 DUP3 DUP3 SHL SWAP1 POP SWAP3 SWAP2 POP POP JUMP JUMPDEST PUSH0 PUSH1 0x8 DUP4 MUL PUSH3 0x617 PUSH32 0xFFFFFFFFFFFFFFFFFFFFFFFFFFFFFFFFFFFFFFFFFFFFFFFFFFFFFFFFFFFFFFFF DUP3 PUSH3 0x5DA JUMP JUMPDEST PUSH3 0x623 DUP7 DUP4 PUSH3 0x5DA JUMP JUMPDEST SWAP6 POP DUP1 NOT DUP5 AND SWAP4 POP DUP1 DUP7 AND DUP5 OR SWAP3 POP POP POP SWAP4 SWAP3 POP POP POP JUMP JUMPDEST PUSH0 DUP2 SWAP1 POP SWAP2 SWAP1 POP JUMP JUMPDEST PUSH0 PUSH3 0x664 PUSH3 0x65E PUSH3 0x658 DUP5 PUSH3 0x38C JUMP JUMPDEST PUSH3 0x63B JUMP JUMPDEST PUSH3 0x38C JUMP JUMPDEST SWAP1 POP SWAP2 SWAP1 POP JUMP JUMPDEST PUSH0 DUP2 SWAP1 POP SWAP2 SWAP1 POP JUMP JUMPDEST PUSH3 0x67F DUP4 PUSH3 0x644 JUMP JUMPDEST PUSH3 0x697 PUSH3 0x68E DUP3 PUSH3 0x66B JUMP JUMPDEST DUP5 DUP5 SLOAD PUSH3 0x5E6 JUMP JUMPDEST DUP3 SSTORE POP POP POP POP JUMP JUMPDEST PUSH0 SWAP1 JUMP JUMPDEST PUSH3 0x6AD PUSH3 0x69F JUMP JUMPDEST PUSH3 0x6BA DUP2 DUP5 DUP5 PUSH3 0x674 JUMP JUMPDEST POP POP POP JUMP JUMPDEST JUMPDEST DUP2 DUP2 LT ISZERO PUSH3 0x6E1 JUMPI PUSH3 0x6D5 PUSH0 DUP3 PUSH3 0x6A3 JUMP JUMPDEST PUSH1 0x1 DUP2 ADD SWAP1 POP PUSH3 0x6C0 JUMP JUMPDEST POP POP JUMP JUMPDEST PUSH1 0x1F DUP3 GT ISZERO PUSH3 0x730 JUMPI PUSH3 0x6FA DUP2 PUSH3 0x5B9 JUMP JUMPDEST PUSH3 0x705 DUP5 PUSH3 0x5CB JUMP JUMPDEST DUP2 ADD PUSH1 0x20 DUP6 LT ISZERO PUSH3 0x715 JUMPI DUP2 SWAP1 POP JUMPDEST PUSH3 0x72D PUSH3 0x724 DUP6 PUSH3 0x5CB JUMP JUMPDEST DUP4 ADD DUP3 PUSH3 0x6BF JUMP JUMPDEST POP POP JUMPDEST POP POP POP JUMP JUMPDEST PUSH0 DUP3 DUP3 SHR SWAP1 POP SWAP3 SWAP2 POP POP JUMP JUMPDEST PUSH0 PUSH3 0x752 PUSH0 NOT DUP5 PUSH1 0x8 MUL PUSH3 0x735 JUMP JUMPDEST NOT DUP1 DUP4 AND SWAP2 POP POP SWAP3 SWAP2 POP POP JUMP JUMPDEST PUSH0 PUSH3 0x76C DUP4 DUP4 PUSH3 0x741 JUMP JUMPDEST SWAP2 POP DUP3 PUSH1 0x2 MUL DUP3 OR SWAP1 POP SWAP3 SWAP2 POP POP JUMP JUMPDEST PUSH3 0x787 DUP3 PUSH3 0x54E JUMP JUMPDEST PUSH8 0xFFFFFFFFFFFFFFFF DUP2 GT ISZERO PUSH3 0x7A3 JUMPI PUSH3 0x7A2 PUSH3 0x230 JUMP JUMPDEST JUMPDEST PUSH3 0x7AF DUP3 SLOAD PUSH3 0x585 JUMP JUMPDEST PUSH3 0x7BC DUP3 DUP3 DUP6 PUSH3 0x6E5 JUMP JUMPDEST PUSH0 PUSH1 0x20 SWAP1 POP PUSH1 0x1F DUP4 GT PUSH1 0x1 DUP2 EQ PUSH3 0x7F2 JUMPI PUSH0 DUP5 ISZERO PUSH3 0x7DD JUMPI DUP3 DUP8 ADD MLOAD SWAP1 POP JUMPDEST PUSH3 0x7E9 DUP6 DUP3 PUSH3 0x75F JUMP JUMPDEST DUP7 SSTORE POP PUSH3 0x858 JUMP JUMPDEST PUSH1 0x1F NOT DUP5 AND PUSH3 0x802 DUP7 PUSH3 0x5B9 JUMP JUMPDEST PUSH0 JUMPDEST DUP3 DUP2 LT ISZERO PUSH3 0x82B JUMPI DUP5 DUP10 ADD MLOAD DUP3 SSTORE PUSH1 0x1 DUP3 ADD SWAP2 POP PUSH1 0x20 DUP6 ADD SWAP5 POP PUSH1 0x20 DUP2 ADD SWAP1 POP PUSH3 0x804 JUMP JUMPDEST DUP7 DUP4 LT ISZERO PUSH3 0x84B JUMPI DUP5 DUP10 ADD MLOAD PUSH3 0x847 PUSH1 0x1F DUP10 AND DUP3 PUSH3 0x741 JUMP JUMPDEST DUP4 SSTORE POP JUMPDEST PUSH1 0x1 PUSH1 0x2 DUP9 MUL ADD DUP9 SSTORE POP POP POP JUMPDEST POP POP POP POP POP POP JUMP JUMPDEST PUSH2 0x18ED DUP1 PUSH3 0x86E PUSH0 CODECOPY PUSH0 RETURN INVALID PUSH1 0x80 PUSH1 0x40 MSTORE PUSH1 0x4 CALLDATASIZE LT PUSH2 0x122 JUMPI PUSH0 CALLDATALOAD PUSH1 0xE0 SHR DUP1 PUSH4 0x8DA5CB5B GT PUSH2 0x9F JUMPI DUP1 PUSH4 0xE30C3978 GT PUSH2 0x63 JUMPI DUP1 PUSH4 0xE30C3978 EQ PUSH2 0x39B JUMPI DUP1 PUSH4 0xEB2C0223 EQ PUSH2 0x3C5 JUMPI DUP1 PUSH4 0xF2FDE38B EQ PUSH2 0x3ED JUMPI DUP1 PUSH4 0xF62BABDF EQ PUSH2 0x415 JUMPI DUP1 PUSH4 0xFFA1AD74 EQ PUSH2 0x43F JUMPI PUSH2 0x129 JUMP JUMPDEST DUP1 PUSH4 0x8DA5CB5B EQ PUSH2 0x2BB JUMPI DUP1 PUSH4 0x95D89B41 EQ PUSH2 0x2E5 JUMPI DUP1 PUSH4 0xA9059CBB EQ PUSH2 0x30F JUMPI DUP1 PUSH4 0xDB006A75 EQ PUSH2 0x337 JUMPI DUP1 PUSH4 0xDD62ED3E EQ PUSH2 0x35F JUMPI PUSH2 0x129 JUMP JUMPDEST DUP1 PUSH4 0x313CE567 GT PUSH2 0xE6 JUMPI DUP1 PUSH4 0x313CE567 EQ PUSH2 0x201 JUMPI DUP1 PUSH4 0x70A08231 EQ PUSH2 0x22B JUMPI DUP1 PUSH4 0x715018A6 EQ PUSH2 0x267 JUMPI DUP1 PUSH4 0x79BA5097 EQ PUSH2 0x27D JUMPI DUP1 PUSH4 0x867904B4 EQ PUSH2 0x293 JUMPI PUSH2 0x129 JUMP JUMPDEST DUP1 PUSH4 0x6FDDE03 EQ PUSH2 0x133 JUMPI DUP1 PUSH4 0x95EA7B3 EQ PUSH2 0x15D JUMPI DUP1 PUSH4 0xE136B19 EQ PUSH2 0x185 JUMPI DUP1 PUSH4 0x18160DDD EQ PUSH2 0x1AF JUMPI DUP1 PUSH4 0x23B872DD EQ PUSH2 0x1D9 JUMPI PUSH2 0x129 JUMP JUMPDEST CALLDATASIZE PUSH2 0x129 JUMPI STOP JUMPDEST PUSH2 0x131 PUSH2 0x469 JUMP JUMPDEST STOP JUMPDEST CALLVALUE DUP1 ISZERO PUSH2 0x13E JUMPI PUSH0 DUP1 REVERT JUMPDEST POP PUSH2 0x147 PUSH2 0x47B JUMP JUMPDEST PUSH1 0x40 MLOAD PUSH2 0x154 SWAP2 SWAP1 PUSH2 0x147B JUMP JUMPDEST PUSH1 0x40 MLOAD DUP1 SWAP2 SUB SWAP1 RETURN JUMPDEST CALLVALUE DUP1 ISZERO PUSH2 0x168 JUMPI PUSH0 DUP1 REVERT JUMPDEST POP PUSH2 0x183 PUSH1 0x4 DUP1 CALLDATASIZE SUB DUP2 ADD SWAP1 PUSH2 0x17E SWAP2 SWAP1 PUSH2 0x152C JUMP JUMPDEST PUSH2 0x507 JUMP JUMPDEST STOP JUMPDEST CALLVALUE DUP1 ISZERO PUSH2 0x190 JUMPI PUSH0 DUP1 REVERT JUMPDEST POP PUSH2 0x199 PUSH2 0x5B1 JUMP JUMPDEST PUSH1 0x40 MLOAD PUSH2 0x1A6 SWAP2 SWAP1 PUSH2 0x1584 JUMP JUMPDEST PUSH1 0x40 MLOAD DUP1 SWAP2 SUB SWAP1 RETURN JUMPDEST CALLVALUE DUP1 ISZERO PUSH2 0x1BA JUMPI PUSH0 DUP1 REVERT JUMPDEST POP PUSH2 0x1C3 PUSH2 0x608 JUMP JUMPDEST PUSH1 0x40 MLOAD PUSH2 0x1D0 SWAP2 SWAP1 PUSH2 0x15AC JUMP JUMPDEST PUSH1 0x40 MLOAD DUP1 SWAP2 SUB SWAP1 RETURN JUMPDEST CALLVALUE DUP1 ISZERO PUSH2 0x1E4 JUMPI PUSH0 DUP1 REVERT JUMPDEST POP PUSH2 0x1FF PUSH1 0x4 DUP1 CALLDATASIZE SUB DUP2 ADD SWAP1 PUSH2 0x1FA SWAP2 SWAP1 PUSH2 0x15C5 JUMP JUMPDEST PUSH2 0x60E JUMP JUMPDEST STOP JUMPDEST CALLVALUE DUP1 ISZERO PUSH2 0x20C JUMPI PUSH0 DUP1 REVERT JUMPDEST POP PUSH2 0x215 PUSH2 0x6BC JUMP JUMPDEST PUSH1 0x40 MLOAD PUSH2 0x222 SWAP2 SWAP1 PUSH2 0x1630 JUMP JUMPDEST PUSH1 0x40 MLOAD DUP1 SWAP2 SUB SWAP1 RETURN JUMPDEST CALLVALUE DUP1 ISZERO PUSH2 0x236 JUMPI PUSH0 DUP1 REVERT JUMPDEST POP PUSH2 0x251 PUSH1 0x4 DUP1 CALLDATASIZE SUB DUP2 ADD SWAP1 PUSH2 0x24C SWAP2 SWAP1 PUSH2 0x1649 JUMP JUMPDEST PUSH2 0x6CE JUMP JUMPDEST PUSH1 0x40 MLOAD PUSH2 0x25E SWAP2 SWAP1 PUSH2 0x15AC JUMP JUMPDEST PUSH1 0x40 MLOAD DUP1 SWAP2 SUB SWAP1 RETURN JUMPDEST CALLVALUE DUP1 ISZERO PUSH2 0x272 JUMPI PUSH0 DUP1 REVERT JUMPDEST POP PUSH2 0x27B PUSH2 0x78D JUMP JUMPDEST STOP JUMPDEST CALLVALUE DUP1 ISZERO PUSH2 0x288 JUMPI PUSH0 DUP1 REVERT JUMPDEST POP PUSH2 0x291 PUSH2 0x7A0 JUMP JUMPDEST STOP JUMPDEST CALLVALUE DUP1 ISZERO PUSH2 0x29E JUMPI PUSH0 DUP1 REVERT JUMPDEST POP PUSH2 0x2B9 PUSH1 0x4 DUP1 CALLDATASIZE SUB DUP2 ADD SWAP1 PUSH2 0x2B4 SWAP2 SWAP1 PUSH2 0x152C JUMP JUMPDEST PUSH2 0x82E JUMP JUMPDEST STOP JUMPDEST CALLVALUE DUP1 ISZERO PUSH2 0x2C6 JUMPI PUSH0 DUP1 REVERT JUMPDEST POP PUSH2 0x2CF PUSH2 0x88C JUMP JUMPDEST PUSH1 0x40 MLOAD PUSH2 0x2DC SWAP2 SWAP1 PUSH2 0x1683 JUMP JUMPDEST PUSH1 0x40 MLOAD DUP1 SWAP2 SUB SWAP1 RETURN JUMPDEST CALLVALUE DUP1 ISZERO PUSH2 0x2F0 JUMPI PUSH0 DUP1 REVERT JUMPDEST POP PUSH2 0x2F9 PUSH2 0x8B4 JUMP JUMPDEST PUSH1 0x40 MLOAD PUSH2 0x306 SWAP2 SWAP1 PUSH2 0x147B JUMP JUMPDEST PUSH1 0x40 MLOAD DUP1 SWAP2 SUB SWAP1 RETURN JUMPDEST CALLVALUE DUP1 ISZERO PUSH2 0x31A JUMPI PUSH0 DUP1 REVERT JUMPDEST POP PUSH2 0x335 PUSH1 0x4 DUP1 CALLDATASIZE SUB DUP2 ADD SWAP1 PUSH2 0x330 SWAP2 SWAP1 PUSH2 0x152C JUMP JUMPDEST PUSH2 0x940 JUMP JUMPDEST STOP JUMPDEST CALLVALUE DUP1 ISZERO PUSH2 0x342 JUMPI PUSH0 DUP1 REVERT JUMPDEST POP PUSH2 0x35D PUSH1 0x4 DUP1 CALLDATASIZE SUB DUP2 ADD SWAP1 PUSH2 0x358 SWAP2 SWAP1 PUSH2 0x169C JUMP JUMPDEST PUSH2 0x9EA JUMP JUMPDEST STOP JUMPDEST CALLVALUE DUP1 ISZERO PUSH2 0x36A JUMPI PUSH0 DUP1 REVERT JUMPDEST POP PUSH2 0x385 PUSH1 0x4 DUP1 CALLDATASIZE SUB DUP2 ADD SWAP1 PUSH2 0x380 SWAP2 SWAP1 PUSH2 0x16C7 JUMP JUMPDEST PUSH2 0xA47 JUMP JUMPDEST PUSH1 0x40 MLOAD PUSH2 0x392 SWAP2 SWAP1 PUSH2 0x15AC JUMP JUMPDEST PUSH1 0x40 MLOAD DUP1 SWAP2 SUB SWAP1 RETURN JUMPDEST CALLVALUE DUP1 ISZERO PUSH2 0x3A6 JUMPI PUSH0 DUP1 REVERT JUMPDEST POP PUSH2 0x3AF PUSH2 0xB0A JUMP JUMPDEST PUSH1 0x40 MLOAD PUSH2 0x3BC SWAP2 SWAP1 PUSH2 0x1683 JUMP JUMPDEST PUSH1 0x40 MLOAD DUP1 SWAP2 SUB SWAP1 RETURN JUMPDEST CALLVALUE DUP1 ISZERO PUSH2 0x3D0 JUMPI PUSH0 DUP1 REVERT JUMPDEST POP PUSH2 0x3EB PUSH1 0x4 DUP1 CALLDATASIZE SUB DUP2 ADD SWAP1 PUSH2 0x3E6 SWAP2 SWAP1 PUSH2 0x1649 JUMP JUMPDEST PUSH2 0xB32 JUMP JUMPDEST STOP JUMPDEST CALLVALUE DUP1 ISZERO PUSH2 0x3F8 JUMPI PUSH0 DUP1 REVERT JUMPDEST POP PUSH2 0x413 PUSH1 0x4 DUP1 CALLDATASIZE SUB DUP2 ADD SWAP1 PUSH2 0x40E SWAP2 SWAP1 PUSH2 0x1649 JUMP JUMPDEST PUSH2 0xB46 JUMP JUMPDEST STOP JUMPDEST CALLVALUE DUP1 ISZERO PUSH2 0x420 JUMPI PUSH0 DUP1 REVERT JUMPDEST POP PUSH2 0x429 PUSH2 0xBF2 JUMP JUMPDEST PUSH1 0x40 MLOAD PUSH2 0x436 SWAP2 SWAP1 PUSH2 0x1683 JUMP JUMPDEST PUSH1 0x40 MLOAD DUP1 SWAP2 SUB SWAP1 RETURN JUMPDEST CALLVALUE DUP1 ISZERO PUSH2 0x44A JUMPI PUSH0 DUP1 REVERT JUMPDEST POP PUSH2 0x453 PUSH2 0xC17 JUMP JUMPDEST PUSH1 0x40 MLOAD PUSH2 0x460 SWAP2 SWAP1 PUSH2 0x147B JUMP JUMPDEST PUSH1 0x40 MLOAD DUP1 SWAP2 SUB SWAP1 RETURN JUMPDEST PUSH2 0x479 PUSH2 0x474 PUSH2 0xC50 JUMP JUMPDEST PUSH2 0xC8E JUMP JUMPDEST JUMP JUMPDEST PUSH1 0x5 DUP1 SLOAD PUSH2 0x488 SWAP1 PUSH2 0x1732 JUMP JUMPDEST DUP1 PUSH1 0x1F ADD PUSH1 0x20 DUP1 SWAP2 DIV MUL PUSH1 0x20 ADD PUSH1 0x40 MLOAD SWAP1 DUP2 ADD PUSH1 0x40 MSTORE DUP1 SWAP3 SWAP2 SWAP1 DUP2 DUP2 MSTORE PUSH1 0x20 ADD DUP3 DUP1 SLOAD PUSH2 0x4B4 SWAP1 PUSH2 0x1732 JUMP JUMPDEST DUP1 ISZERO PUSH2 0x4FF JUMPI DUP1 PUSH1 0x1F LT PUSH2 0x4D6 JUMPI PUSH2 0x100 DUP1 DUP4 SLOAD DIV MUL DUP4 MSTORE SWAP2 PUSH1 0x20 ADD SWAP2 PUSH2 0x4FF JUMP JUMPDEST DUP3 ADD SWAP2 SWAP1 PUSH0 MSTORE PUSH1 0x20 PUSH0 KECCAK256 SWAP1 JUMPDEST DUP2 SLOAD DUP2 MSTORE SWAP1 PUSH1 0x1 ADD SWAP1 PUSH1 0x20 ADD DUP1 DUP4 GT PUSH2 0x4E2 JUMPI DUP3 SWAP1 SUB PUSH1 0x1F AND DUP3 ADD SWAP2 JUMPDEST POP POP POP POP POP DUP2 JUMP JUMPDEST PUSH2 0x50F PUSH2 0x5B1 JUMP JUMPDEST ISZERO PUSH2 0x5A2 JUMPI PUSH1 0x2 PUSH0 SWAP1 SLOAD SWAP1 PUSH2 0x100 EXP SWAP1 DIV PUSH20 0xFFFFFFFFFFFFFFFFFFFFFFFFFFFFFFFFFFFFFFFF AND PUSH20 0xFFFFFFFFFFFFFFFFFFFFFFFFFFFFFFFFFFFFFFFF AND PUSH4 0x95EA7B3 DUP4 DUP4 PUSH1 0x40 MLOAD DUP4 PUSH4 0xFFFFFFFF AND PUSH1 0xE0 SHL DUP2 MSTORE PUSH1 0x4 ADD PUSH2 0x570 SWAP3 SWAP2 SWAP1 PUSH2 0x1762 JUMP JUMPDEST PUSH0 PUSH1 0x40 MLOAD DUP1 DUP4 SUB DUP2 PUSH0 DUP8 DUP1 EXTCODESIZE ISZERO DUP1 ISZERO PUSH2 0x587 JUMPI PUSH0 DUP1 REVERT JUMPDEST POP GAS CALL ISZERO DUP1 ISZERO PUSH2 0x599 JUMPI RETURNDATASIZE PUSH0 DUP1 RETURNDATACOPY RETURNDATASIZE PUSH0 REVERT JUMPDEST POP POP POP POP PUSH2 0x5AD JUMP JUMPDEST PUSH2 0x5AC DUP3 DUP3 PUSH2 0xCAD JUMP JUMPDEST JUMPDEST POP POP JUMP JUMPDEST PUSH0 DUP1 PUSH20 0xFFFFFFFFFFFFFFFFFFFFFFFFFFFFFFFFFFFFFFFF AND PUSH1 0x2 PUSH0 SWAP1 SLOAD SWAP1 PUSH2 0x100 EXP SWAP1 DIV PUSH20 0xFFFFFFFFFFFFFFFFFFFFFFFFFFFFFFFFFFFFFFFF AND PUSH20 0xFFFFFFFFFFFFFFFFFFFFFFFFFFFFFFFFFFFFFFFF AND EQ ISZERO SWAP1 POP SWAP1 JUMP JUMPDEST PUSH1 0x7 SLOAD DUP2 JUMP JUMPDEST PUSH2 0x616 PUSH2 0x5B1 JUMP JUMPDEST ISZERO PUSH2 0x6AB JUMPI PUSH1 0x2 PUSH0 SWAP1 SLOAD SWAP1 PUSH2 0x100 EXP SWAP1 DIV PUSH20 0xFFFFFFFFFFFFFFFFFFFFFFFFFFFFFFFFFFFFFFFF AND PUSH20 0xFFFFFFFFFFFFFFFFFFFFFFFFFFFFFFFFFFFFFFFF AND PUSH4 0x23B872DD DUP5 DUP5 DUP5 PUSH1 0x40 MLOAD DUP5 PUSH4 0xFFFFFFFF AND PUSH1 0xE0 SHL DUP2 MSTORE PUSH1 0x4 ADD PUSH2 0x679 SWAP4 SWAP3 SWAP2 SWAP1 PUSH2 0x1789 JUMP JUMPDEST PUSH0 PUSH1 0x40 MLOAD DUP1 DUP4 SUB DUP2 PUSH0 DUP8 DUP1 EXTCODESIZE ISZERO DUP1 ISZERO PUSH2 0x690 JUMPI PUSH0 DUP1 REVERT JUMPDEST POP GAS CALL ISZERO DUP1 ISZERO PUSH2 0x6A2 JUMPI RETURNDATASIZE PUSH0 DUP1 RETURNDATACOPY RETURNDATASIZE PUSH0 REVERT JUMPDEST POP POP POP POP PUSH2 0x6B7 JUMP JUMPDEST PUSH2 0x6B6 DUP4 DUP4 DUP4 PUSH2 0xDCA JUMP JUMPDEST JUMPDEST POP POP POP JUMP JUMPDEST PUSH1 0x8 PUSH0 SWAP1 SLOAD SWAP1 PUSH2 0x100 EXP SWAP1 DIV PUSH1 0xFF AND DUP2 JUMP JUMPDEST PUSH0 PUSH2 0x6D7 PUSH2 0x5B1 JUMP JUMPDEST ISZERO PUSH2 0x77C JUMPI PUSH1 0x2 PUSH0 SWAP1 SLOAD SWAP1 PUSH2 0x100 EXP SWAP1 DIV PUSH20 0xFFFFFFFFFFFFFFFFFFFFFFFFFFFFFFFFFFFFFFFF AND PUSH20 0xFFFFFFFFFFFFFFFFFFFFFFFFFFFFFFFFFFFFFFFF AND PUSH4 0x70A08231 DUP4 PUSH1 0x40 MLOAD DUP3 PUSH4 0xFFFFFFFF AND PUSH1 0xE0 SHL DUP2 MSTORE PUSH1 0x4 ADD PUSH2 0x736 SWAP2 SWAP1 PUSH2 0x1683 JUMP JUMPDEST PUSH1 0x20 PUSH1 0x40 MLOAD DUP1 DUP4 SUB DUP2 DUP7 GAS STATICCALL ISZERO DUP1 ISZERO PUSH2 0x751 JUMPI RETURNDATASIZE PUSH0 DUP1 RETURNDATACOPY RETURNDATASIZE PUSH0 REVERT JUMPDEST POP POP POP POP PUSH1 0x40 MLOAD RETURNDATASIZE PUSH1 0x1F NOT PUSH1 0x1F DUP3 ADD AND DUP3 ADD DUP1 PUSH1 0x40 MSTORE POP DUP2 ADD SWAP1 PUSH2 0x775 SWAP2 SWAP1 PUSH2 0x17D2 JUMP JUMPDEST SWAP1 POP PUSH2 0x788 JUMP JUMPDEST PUSH2 0x785 DUP3 PUSH2 0xF5C JUMP JUMPDEST SWAP1 POP JUMPDEST SWAP2 SWAP1 POP JUMP JUMPDEST PUSH2 0x795 PUSH2 0xFA1 JUMP JUMPDEST PUSH2 0x79E PUSH0 PUSH2 0x1028 JUMP JUMPDEST JUMP JUMPDEST PUSH0 PUSH2 0x7A9 PUSH2 0x1058 JUMP JUMPDEST SWAP1 POP DUP1 PUSH20 0xFFFFFFFFFFFFFFFFFFFFFFFFFFFFFFFFFFFFFFFF AND PUSH2 0x7CA PUSH2 0xB0A JUMP JUMPDEST PUSH20 0xFFFFFFFFFFFFFFFFFFFFFFFFFFFFFFFFFFFFFFFF AND EQ PUSH2 0x822 JUMPI DUP1 PUSH1 0x40 MLOAD PUSH32 0x118CDAA700000000000000000000000000000000000000000000000000000000 DUP2 MSTORE PUSH1 0x4 ADD PUSH2 0x819 SWAP2 SWAP1 PUSH2 0x1683 JUMP JUMPDEST PUSH1 0x40 MLOAD DUP1 SWAP2 SUB SWAP1 REVERT JUMPDEST PUSH2 0x82B DUP2 PUSH2 0x1028 JUMP JUMPDEST POP JUMP JUMPDEST DUP1 PUSH1 0x7 PUSH0 DUP3 DUP3 SLOAD PUSH2 0x83F SWAP2 SWAP1 PUSH2 0x182A JUMP JUMPDEST SWAP3 POP POP DUP2 SWAP1 SSTORE POP PUSH32 0xCB8241ADB0C3FDB35B70C24CE35C5EB0C17AF7431C99F827D44A445CA624176A DUP2 PUSH1 0x40 MLOAD PUSH2 0x875 SWAP2 SWAP1 PUSH2 0x15AC JUMP JUMPDEST PUSH1 0x40 MLOAD DUP1 SWAP2 SUB SWAP1 LOG1 PUSH2 0x888 ADDRESS DUP4 DUP4 PUSH2 0x105F JUMP JUMPDEST POP POP JUMP JUMPDEST PUSH0 PUSH1 0x3 PUSH0 SWAP1 SLOAD SWAP1 PUSH2 0x100 EXP SWAP1 DIV PUSH20 0xFFFFFFFFFFFFFFFFFFFFFFFFFFFFFFFFFFFFFFFF AND SWAP1 POP SWAP1 JUMP JUMPDEST PUSH1 0x6 DUP1 SLOAD PUSH2 0x8C1 SWAP1 PUSH2 0x1732 JUMP JUMPDEST DUP1 PUSH1 0x1F ADD PUSH1 0x20 DUP1 SWAP2 DIV MUL PUSH1 0x20 ADD PUSH1 0x40 MLOAD SWAP1 DUP2 ADD PUSH1 0x40 MSTORE DUP1 SWAP3 SWAP2 SWAP1 DUP2 DUP2 MSTORE PUSH1 0x20 ADD DUP3 DUP1 SLOAD PUSH2 0x8ED SWAP1 PUSH2 0x1732 JUMP JUMPDEST DUP1 ISZERO PUSH2 0x938 JUMPI DUP1 PUSH1 0x1F LT PUSH2 0x90F JUMPI PUSH2 0x100 DUP1 DUP4 SLOAD DIV MUL DUP4 MSTORE SWAP2 PUSH1 0x20 ADD SWAP2 PUSH2 0x938 JUMP JUMPDEST DUP3 ADD SWAP2 SWAP1 PUSH0 MSTORE PUSH1 0x20 PUSH0 KECCAK256 SWAP1 JUMPDEST DUP2 SLOAD DUP2 MSTORE SWAP1 PUSH1 0x1 ADD SWAP1 PUSH1 0x20 ADD DUP1 DUP4 GT PUSH2 0x91B JUMPI DUP3 SWAP1 SUB PUSH1 0x1F AND DUP3 ADD SWAP2 JUMPDEST POP POP POP POP POP DUP2 JUMP JUMPDEST PUSH2 0x948 PUSH2 0x5B1 JUMP JUMPDEST ISZERO PUSH2 0x9DB JUMPI PUSH1 0x2 PUSH0 SWAP1 SLOAD SWAP1 PUSH2 0x100 EXP SWAP1 DIV PUSH20 0xFFFFFFFFFFFFFFFFFFFFFFFFFFFFFFFFFFFFFFFF AND PUSH20 0xFFFFFFFFFFFFFFFFFFFFFFFFFFFFFFFFFFFFFFFF AND PUSH4 0xA9059CBB DUP4 DUP4 PUSH1 0x40 MLOAD DUP4 PUSH4 0xFFFFFFFF AND PUSH1 0xE0 SHL DUP2 MSTORE PUSH1 0x4 ADD PUSH2 0x9A9 SWAP3 SWAP2 SWAP1 PUSH2 0x1762 JUMP JUMPDEST PUSH0 PUSH1 0x40 MLOAD DUP1 DUP4 SUB DUP2 PUSH0 DUP8 DUP1 EXTCODESIZE ISZERO DUP1 ISZERO PUSH2 0x9C0 JUMPI PUSH0 DUP1 REVERT JUMPDEST POP GAS CALL ISZERO DUP1 ISZERO PUSH2 0x9D2 JUMPI RETURNDATASIZE PUSH0 DUP1 RETURNDATACOPY RETURNDATASIZE PUSH0 REVERT JUMPDEST POP POP POP POP PUSH2 0x9E6 JUMP JUMPDEST PUSH2 0x9E5 DUP3 DUP3 PUSH2 0x11EC JUMP JUMPDEST JUMPDEST POP POP JUMP JUMPDEST DUP1 PUSH1 0x7 PUSH0 DUP3 DUP3 SLOAD PUSH2 0x9FB SWAP2 SWAP1 PUSH2 0x185D JUMP JUMPDEST SWAP3 POP POP DUP2 SWAP1 SSTORE POP PUSH32 0x702D5967F45F6513A38FFC42D6BA9BF230BD40E8F53B16363C7EB4FD2DEB9A44 DUP2 PUSH1 0x40 MLOAD PUSH2 0xA31 SWAP2 SWAP1 PUSH2 0x15AC JUMP JUMPDEST PUSH1 0x40 MLOAD DUP1 SWAP2 SUB SWAP1 LOG1 PUSH2 0xA44 CALLER ADDRESS DUP4 PUSH2 0x105F JUMP JUMPDEST POP JUMP JUMPDEST PUSH0 PUSH2 0xA50 PUSH2 0x5B1 JUMP JUMPDEST ISZERO PUSH2 0xAF7 JUMPI PUSH1 0x2 PUSH0 SWAP1 SLOAD SWAP1 PUSH2 0x100 EXP SWAP1 DIV PUSH20 0xFFFFFFFFFFFFFFFFFFFFFFFFFFFFFFFFFFFFFFFF AND PUSH20 0xFFFFFFFFFFFFFFFFFFFFFFFFFFFFFFFFFFFFFFFF AND PUSH4 0xDD62ED3E DUP5 DUP5 PUSH1 0x40 MLOAD DUP4 PUSH4 0xFFFFFFFF AND PUSH1 0xE0 SHL DUP2 MSTORE PUSH1 0x4 ADD PUSH2 0xAB1 SWAP3 SWAP2 SWAP1 PUSH2 0x1890 JUMP JUMPDEST PUSH1 0x20 PUSH1 0x40 MLOAD DUP1 DUP4 SUB DUP2 DUP7 GAS STATICCALL ISZERO DUP1 ISZERO PUSH2 0xACC JUMPI RETURNDATASIZE PUSH0 DUP1 RETURNDATACOPY RETURNDATASIZE PUSH0 REVERT JUMPDEST POP POP POP POP PUSH1 0x40 MLOAD RETURNDATASIZE PUSH1 0x1F NOT PUSH1 0x1F DUP3 ADD AND DUP3 ADD DUP1 PUSH1 0x40 MSTORE POP DUP2 ADD SWAP1 PUSH2 0xAF0 SWAP2 SWAP1 PUSH2 0x17D2 JUMP JUMPDEST SWAP1 POP PUSH2 0xB04 JUMP JUMPDEST PUSH2 0xB01 DUP4 DUP4 PUSH2 0x1232 JUMP JUMPDEST SWAP1 POP JUMPDEST SWAP3 SWAP2 POP POP JUMP JUMPDEST PUSH0 PUSH1 0x4 PUSH0 SWAP1 SLOAD SWAP1 PUSH2 0x100 EXP SWAP1 DIV PUSH20 0xFFFFFFFFFFFFFFFFFFFFFFFFFFFFFFFFFFFFFFFF AND SWAP1 POP SWAP1 JUMP JUMPDEST PUSH2 0xB3A PUSH2 0xFA1 JUMP JUMPDEST PUSH2 0xB43 DUP2 PUSH2 0x12B4 JUMP JUMPDEST POP JUMP JUMPDEST PUSH2 0xB4E PUSH2 0xFA1 JUMP JUMPDEST DUP1 PUSH1 0x4 PUSH0 PUSH2 0x100 EXP DUP2 SLOAD DUP2 PUSH20 0xFFFFFFFFFFFFFFFFFFFFFFFFFFFFFFFFFFFFFFFF MUL NOT AND SWAP1 DUP4 PUSH20 0xFFFFFFFFFFFFFFFFFFFFFFFFFFFFFFFFFFFFFFFF AND MUL OR SWAP1 SSTORE POP DUP1 PUSH20 0xFFFFFFFFFFFFFFFFFFFFFFFFFFFFFFFFFFFFFFFF AND PUSH2 0xBAD PUSH2 0x88C JUMP JUMPDEST PUSH20 0xFFFFFFFFFFFFFFFFFFFFFFFFFFFFFFFFFFFFFFFF AND PUSH32 0x38D16B8CAC22D99FC7C124B9CD0DE2D3FA1FAEF420BFE791D8C362D765E22700 PUSH1 0x40 MLOAD PUSH1 0x40 MLOAD DUP1 SWAP2 SUB SWAP1 LOG3 POP JUMP JUMPDEST PUSH1 0x2 PUSH0 SWAP1 SLOAD SWAP1 PUSH2 0x100 EXP SWAP1 DIV PUSH20 0xFFFFFFFFFFFFFFFFFFFFFFFFFFFFFFFFFFFFFFFF AND DUP2 JUMP JUMPDEST PUSH1 0x40 MLOAD DUP1 PUSH1 0x40 ADD PUSH1 0x40 MSTORE DUP1 PUSH1 0x3 DUP2 MSTORE PUSH1 0x20 ADD PUSH32 0x302E310000000000000000000000000000000000000000000000000000000000 DUP2 MSTORE POP DUP2 JUMP JUMPDEST PUSH0 PUSH2 0xC59 PUSH2 0x5B1 JUMP JUMPDEST ISZERO PUSH2 0xC87 JUMPI PUSH1 0x2 PUSH0 SWAP1 SLOAD SWAP1 PUSH2 0x100 EXP SWAP1 DIV PUSH20 0xFFFFFFFFFFFFFFFFFFFFFFFFFFFFFFFFFFFFFFFF AND SWAP1 POP PUSH2 0xC8B JUMP JUMPDEST ADDRESS SWAP1 POP JUMPDEST SWAP1 JUMP JUMPDEST CALLDATASIZE PUSH0 DUP1 CALLDATACOPY PUSH0 DUP1 CALLDATASIZE PUSH0 DUP5 GAS DELEGATECALL RETURNDATASIZE PUSH0 DUP1 RETURNDATACOPY DUP1 PUSH0 DUP2 EQ PUSH2 0xCA9 JUMPI RETURNDATASIZE PUSH0 RETURN JUMPDEST RETURNDATASIZE PUSH0 REVERT JUMPDEST PUSH0 PUSH20 0xFFFFFFFFFFFFFFFFFFFFFFFFFFFFFFFFFFFFFFFF AND DUP3 PUSH20 0xFFFFFFFFFFFFFFFFFFFFFFFFFFFFFFFFFFFFFFFF AND SUB PUSH2 0xCE4 JUMPI PUSH0 DUP1 REVERT JUMPDEST DUP1 PUSH1 0x1 PUSH0 CALLER PUSH20 0xFFFFFFFFFFFFFFFFFFFFFFFFFFFFFFFFFFFFFFFF AND PUSH20 0xFFFFFFFFFFFFFFFFFFFFFFFFFFFFFFFFFFFFFFFF AND DUP2 MSTORE PUSH1 0x20 ADD SWAP1 DUP2 MSTORE PUSH1 0x20 ADD PUSH0 KECCAK256 PUSH0 DUP5 PUSH20 0xFFFFFFFFFFFFFFFFFFFFFFFFFFFFFFFFFFFFFFFF AND PUSH20 0xFFFFFFFFFFFFFFFFFFFFFFFFFFFFFFFFFFFFFFFF AND DUP2 MSTORE PUSH1 0x20 ADD SWAP1 DUP2 MSTORE PUSH1 0x20 ADD PUSH0 KECCAK256 DUP2 SWAP1 SSTORE POP DUP2 PUSH20 0xFFFFFFFFFFFFFFFFFFFFFFFFFFFFFFFFFFFFFFFF AND CALLER PUSH20 0xFFFFFFFFFFFFFFFFFFFFFFFFFFFFFFFFFFFFFFFF AND PUSH32 0x8C5BE1E5EBEC7D5BD14F71427D1E84F3DD0314C0F7B2291E5B200AC8C7C3B925 DUP4 PUSH1 0x40 MLOAD PUSH2 0xDBE SWAP2 SWAP1 PUSH2 0x15AC JUMP JUMPDEST PUSH1 0x40 MLOAD DUP1 SWAP2 SUB SWAP1 LOG3 POP POP JUMP JUMPDEST PUSH0 PUSH20 0xFFFFFFFFFFFFFFFFFFFFFFFFFFFFFFFFFFFFFFFF AND DUP4 PUSH20 0xFFFFFFFFFFFFFFFFFFFFFFFFFFFFFFFFFFFFFFFF AND EQ ISZERO DUP1 ISZERO PUSH2 0xE32 JUMPI POP PUSH0 PUSH20 0xFFFFFFFFFFFFFFFFFFFFFFFFFFFFFFFFFFFFFFFF AND DUP3 PUSH20 0xFFFFFFFFFFFFFFFFFFFFFFFFFFFFFFFFFFFFFFFF AND EQ ISZERO JUMPDEST PUSH2 0xE3A JUMPI PUSH0 DUP1 REVERT JUMPDEST DUP1 PUSH1 0x1 PUSH0 DUP6 PUSH20 0xFFFFFFFFFFFFFFFFFFFFFFFFFFFFFFFFFFFFFFFF AND PUSH20 0xFFFFFFFFFFFFFFFFFFFFFFFFFFFFFFFFFFFFFFFF AND DUP2 MSTORE PUSH1 0x20 ADD SWAP1 DUP2 MSTORE PUSH1 0x20 ADD PUSH0 KECCAK256 PUSH0 CALLER PUSH20 0xFFFFFFFFFFFFFFFFFFFFFFFFFFFFFFFFFFFFFFFF AND PUSH20 0xFFFFFFFFFFFFFFFFFFFFFFFFFFFFFFFFFFFFFFFF AND DUP2 MSTORE PUSH1 0x20 ADD SWAP1 DUP2 MSTORE PUSH1 0x20 ADD PUSH0 KECCAK256 SLOAD LT ISZERO PUSH2 0xEBE JUMPI PUSH0 DUP1 REVERT JUMPDEST PUSH2 0xEC9 DUP4 DUP4 DUP4 PUSH2 0x105F JUMP JUMPDEST DUP1 PUSH1 0x1 PUSH0 DUP6 PUSH20 0xFFFFFFFFFFFFFFFFFFFFFFFFFFFFFFFFFFFFFFFF AND PUSH20 0xFFFFFFFFFFFFFFFFFFFFFFFFFFFFFFFFFFFFFFFF AND DUP2 MSTORE PUSH1 0x20 ADD SWAP1 DUP2 MSTORE PUSH1 0x20 ADD PUSH0 KECCAK256 PUSH0 CALLER PUSH20 0xFFFFFFFFFFFFFFFFFFFFFFFFFFFFFFFFFFFFFFFF AND PUSH20 0xFFFFFFFFFFFFFFFFFFFFFFFFFFFFFFFFFFFFFFFF AND DUP2 MSTORE PUSH1 0x20 ADD SWAP1 DUP2 MSTORE PUSH1 0x20 ADD PUSH0 KECCAK256 PUSH0 DUP3 DUP3 SLOAD PUSH2 0xF50 SWAP2 SWAP1 PUSH2 0x185D JUMP JUMPDEST SWAP3 POP POP DUP2 SWAP1 SSTORE POP POP POP POP JUMP JUMPDEST PUSH0 DUP1 PUSH0 DUP4 PUSH20 0xFFFFFFFFFFFFFFFFFFFFFFFFFFFFFFFFFFFFFFFF AND PUSH20 0xFFFFFFFFFFFFFFFFFFFFFFFFFFFFFFFFFFFFFFFF AND DUP2 MSTORE PUSH1 0x20 ADD SWAP1 DUP2 MSTORE PUSH1 0x20 ADD PUSH0 KECCAK256 SLOAD SWAP1 POP SWAP2 SWAP1 POP JUMP JUMPDEST PUSH2 0xFA9 PUSH2 0x1058 JUMP JUMPDEST PUSH20 0xFFFFFFFFFFFFFFFFFFFFFFFFFFFFFFFFFFFFFFFF AND PUSH2 0xFC7 PUSH2 0x88C JUMP JUMPDEST PUSH20 0xFFFFFFFFFFFFFFFFFFFFFFFFFFFFFFFFFFFFFFFF AND EQ PUSH2 0x1026 JUMPI PUSH2 0xFEA PUSH2 0x1058 JUMP JUMPDEST PUSH1 0x40 MLOAD PUSH32 0x118CDAA700000000000000000000000000000000000000000000000000000000 DUP2 MSTORE PUSH1 0x4 ADD PUSH2 0x101D SWAP2 SWAP1 PUSH2 0x1683 JUMP JUMPDEST PUSH1 0x40 MLOAD DUP1 SWAP2 SUB SWAP1 REVERT JUMPDEST JUMP JUMPDEST PUSH1 0x4 PUSH0 PUSH2 0x100 EXP DUP2 SLOAD SWAP1 PUSH20 0xFFFFFFFFFFFFFFFFFFFFFFFFFFFFFFFFFFFFFFFF MUL NOT AND SWAP1 SSTORE PUSH2 0x1055 DUP2 PUSH2 0x132E JUMP JUMPDEST POP JUMP JUMPDEST PUSH0 CALLER SWAP1 POP SWAP1 JUMP JUMPDEST ADDRESS PUSH20 0xFFFFFFFFFFFFFFFFFFFFFFFFFFFFFFFFFFFFFFFF AND DUP3 PUSH20 0xFFFFFFFFFFFFFFFFFFFFFFFFFFFFFFFFFFFFFFFF AND SUB PUSH2 0x1096 JUMPI PUSH0 DUP1 REVERT JUMPDEST DUP1 PUSH0 DUP1 DUP6 PUSH20 0xFFFFFFFFFFFFFFFFFFFFFFFFFFFFFFFFFFFFFFFF AND PUSH20 0xFFFFFFFFFFFFFFFFFFFFFFFFFFFFFFFFFFFFFFFF AND DUP2 MSTORE PUSH1 0x20 ADD SWAP1 DUP2 MSTORE PUSH1 0x20 ADD PUSH0 KECCAK256 SLOAD LT ISZERO PUSH2 0x10DE JUMPI PUSH0 DUP1 REVERT JUMPDEST DUP1 PUSH0 DUP1 DUP6 PUSH20 0xFFFFFFFFFFFFFFFFFFFFFFFFFFFFFFFFFFFFFFFF AND PUSH20 0xFFFFFFFFFFFFFFFFFFFFFFFFFFFFFFFFFFFFFFFF AND DUP2 MSTORE PUSH1 0x20 ADD SWAP1 DUP2 MSTORE PUSH1 0x20 ADD PUSH0 KECCAK256 PUSH0 DUP3 DUP3 SLOAD PUSH2 0x1129 SWAP2 SWAP1 PUSH2 0x185D JUMP JUMPDEST SWAP3 POP POP DUP2 SWAP1 SSTORE POP DUP1 PUSH0 DUP1 DUP5 PUSH20 0xFFFFFFFFFFFFFFFFFFFFFFFFFFFFFFFFFFFFFFFF AND PUSH20 0xFFFFFFFFFFFFFFFFFFFFFFFFFFFFFFFFFFFFFFFF AND DUP2 MSTORE PUSH1 0x20 ADD SWAP1 DUP2 MSTORE PUSH1 0x20 ADD PUSH0 KECCAK256 PUSH0 DUP3 DUP3 SLOAD PUSH2 0x117B SWAP2 SWAP1 PUSH2 0x182A JUMP JUMPDEST SWAP3 POP POP DUP2 SWAP1 SSTORE POP DUP2 PUSH20 0xFFFFFFFFFFFFFFFFFFFFFFFFFFFFFFFFFFFFFFFF AND DUP4 PUSH20 0xFFFFFFFFFFFFFFFFFFFFFFFFFFFFFFFFFFFFFFFF AND PUSH32 0xDDF252AD1BE2C89B69C2B068FC378DAA952BA7F163C4A11628F55A4DF523B3EF DUP4 PUSH1 0x40 MLOAD PUSH2 0x11DF SWAP2 SWAP1 PUSH2 0x15AC JUMP JUMPDEST PUSH1 0x40 MLOAD DUP1 SWAP2 SUB SWAP1 LOG3 POP POP POP JUMP JUMPDEST PUSH0 PUSH20 0xFFFFFFFFFFFFFFFFFFFFFFFFFFFFFFFFFFFFFFFF AND DUP3 PUSH20 0xFFFFFFFFFFFFFFFFFFFFFFFFFFFFFFFFFFFFFFFF AND SUB PUSH2 0x1223 JUMPI PUSH0 DUP1 REVERT JUMPDEST PUSH2 0x122E CALLER DUP4 DUP4 PUSH2 0x105F JUMP JUMPDEST POP POP JUMP JUMPDEST PUSH0 PUSH1 0x1 PUSH0 DUP5 PUSH20 0xFFFFFFFFFFFFFFFFFFFFFFFFFFFFFFFFFFFFFFFF AND PUSH20 0xFFFFFFFFFFFFFFFFFFFFFFFFFFFFFFFFFFFFFFFF AND DUP2 MSTORE PUSH1 0x20 ADD SWAP1 DUP2 MSTORE PUSH1 0x20 ADD PUSH0 KECCAK256 PUSH0 DUP4 PUSH20 0xFFFFFFFFFFFFFFFFFFFFFFFFFFFFFFFFFFFFFFFF AND PUSH20 0xFFFFFFFFFFFFFFFFFFFFFFFFFFFFFFFFFFFFFFFF AND DUP2 MSTORE PUSH1 0x20 ADD SWAP1 DUP2 MSTORE PUSH1 0x20 ADD PUSH0 KECCAK256 SLOAD SWAP1 POP SWAP3 SWAP2 POP POP JUMP JUMPDEST PUSH0 PUSH20 0xFFFFFFFFFFFFFFFFFFFFFFFFFFFFFFFFFFFFFFFF AND DUP2 PUSH20 0xFFFFFFFFFFFFFFFFFFFFFFFFFFFFFFFFFFFFFFFF AND SUB PUSH2 0x12EB JUMPI PUSH0 DUP1 REVERT JUMPDEST DUP1 PUSH1 0x2 PUSH0 PUSH2 0x100 EXP DUP2 SLOAD DUP2 PUSH20 0xFFFFFFFFFFFFFFFFFFFFFFFFFFFFFFFFFFFFFFFF MUL NOT AND SWAP1 DUP4 PUSH20 0xFFFFFFFFFFFFFFFFFFFFFFFFFFFFFFFFFFFFFFFF AND MUL OR SWAP1 SSTORE POP POP JUMP JUMPDEST PUSH0 PUSH1 0x3 PUSH0 SWAP1 SLOAD SWAP1 PUSH2 0x100 EXP SWAP1 DIV PUSH20 0xFFFFFFFFFFFFFFFFFFFFFFFFFFFFFFFFFFFFFFFF AND SWAP1 POP DUP2 PUSH1 0x3 PUSH0 PUSH2 0x100 EXP DUP2 SLOAD DUP2 PUSH20 0xFFFFFFFFFFFFFFFFFFFFFFFFFFFFFFFFFFFFFFFF MUL NOT AND SWAP1 DUP4 PUSH20 0xFFFFFFFFFFFFFFFFFFFFFFFFFFFFFFFFFFFFFFFF AND MUL OR SWAP1 SSTORE POP DUP2 PUSH20 0xFFFFFFFFFFFFFFFFFFFFFFFFFFFFFFFFFFFFFFFF AND DUP2 PUSH20 0xFFFFFFFFFFFFFFFFFFFFFFFFFFFFFFFFFFFFFFFF AND PUSH32 0x8BE0079C531659141344CD1FD0A4F28419497F9722A3DAAFE3B4186F6B6457E0 PUSH1 0x40 MLOAD PUSH1 0x40 MLOAD DUP1 SWAP2 SUB SWAP1 LOG3 POP POP JUMP JUMPDEST PUSH0 DUP2 MLOAD SWAP1 POP SWAP2 SWAP1 POP JUMP JUMPDEST PUSH0 DUP3 DUP3 MSTORE PUSH1 0x20 DUP3 ADD SWAP1 POP SWAP3 SWAP2 POP POP JUMP JUMPDEST PUSH0 JUMPDEST DUP4 DUP2 LT ISZERO PUSH2 0x1428 JUMPI DUP1 DUP3 ADD MLOAD DUP2 DUP5 ADD MSTORE PUSH1 0x20 DUP2 ADD SWAP1 POP PUSH2 0x140D JUMP JUMPDEST PUSH0 DUP5 DUP5 ADD MSTORE POP POP POP POP JUMP JUMPDEST PUSH0 PUSH1 0x1F NOT PUSH1 0x1F DUP4 ADD AND SWAP1 POP SWAP2 SWAP1 POP JUMP JUMPDEST PUSH0 PUSH2 0x144D DUP3 PUSH2 0x13F1 JUMP JUMPDEST PUSH2 0x1457 DUP2 DUP6 PUSH2 0x13FB JUMP JUMPDEST SWAP4 POP PUSH2 0x1467 DUP2 DUP6 PUSH1 0x20 DUP7 ADD PUSH2 0x140B JUMP JUMPDEST PUSH2 0x1470 DUP2 PUSH2 0x1433 JUMP JUMPDEST DUP5 ADD SWAP2 POP POP SWAP3 SWAP2 POP POP JUMP JUMPDEST PUSH0 PUSH1 0x20 DUP3 ADD SWAP1 POP DUP2 DUP2 SUB PUSH0 DUP4 ADD MSTORE PUSH2 0x1493 DUP2 DUP5 PUSH2 0x1443 JUMP JUMPDEST SWAP1 POP SWAP3 SWAP2 POP POP JUMP JUMPDEST PUSH0 DUP1 REVERT JUMPDEST PUSH0 PUSH20 0xFFFFFFFFFFFFFFFFFFFFFFFFFFFFFFFFFFFFFFFF DUP3 AND SWAP1 POP SWAP2 SWAP1 POP JUMP JUMPDEST PUSH0 PUSH2 0x14C8 DUP3 PUSH2 0x149F JUMP JUMPDEST SWAP1 POP SWAP2 SWAP1 POP JUMP JUMPDEST PUSH2 0x14D8 DUP2 PUSH2 0x14BE JUMP JUMPDEST DUP2 EQ PUSH2 0x14E2 JUMPI PUSH0 DUP1 REVERT JUMPDEST POP JUMP JUMPDEST PUSH0 DUP2 CALLDATALOAD SWAP1 POP PUSH2 0x14F3 DUP2 PUSH2 0x14CF JUMP JUMPDEST SWAP3 SWAP2 POP POP JUMP JUMPDEST PUSH0 DUP2 SWAP1 POP SWAP2 SWAP1 POP JUMP JUMPDEST PUSH2 0x150B DUP2 PUSH2 0x14F9 JUMP JUMPDEST DUP2 EQ PUSH2 0x1515 JUMPI PUSH0 DUP1 REVERT JUMPDEST POP JUMP JUMPDEST PUSH0 DUP2 CALLDATALOAD SWAP1 POP PUSH2 0x1526 DUP2 PUSH2 0x1502 JUMP JUMPDEST SWAP3 SWAP2 POP POP JUMP JUMPDEST PUSH0 DUP1 PUSH1 0x40 DUP4 DUP6 SUB SLT ISZERO PUSH2 0x1542 JUMPI PUSH2 0x1541 PUSH2 0x149B JUMP JUMPDEST JUMPDEST PUSH0 PUSH2 0x154F DUP6 DUP3 DUP7 ADD PUSH2 0x14E5 JUMP JUMPDEST SWAP3 POP POP PUSH1 0x20 PUSH2 0x1560 DUP6 DUP3 DUP7 ADD PUSH2 0x1518 JUMP JUMPDEST SWAP2 POP POP SWAP3 POP SWAP3 SWAP1 POP JUMP JUMPDEST PUSH0 DUP2 ISZERO ISZERO SWAP1 POP SWAP2 SWAP1 POP JUMP JUMPDEST PUSH2 0x157E DUP2 PUSH2 0x156A JUMP JUMPDEST DUP3 MSTORE POP POP JUMP JUMPDEST PUSH0 PUSH1 0x20 DUP3 ADD SWAP1 POP PUSH2 0x1597 PUSH0 DUP4 ADD DUP5 PUSH2 0x1575 JUMP JUMPDEST SWAP3 SWAP2 POP POP JUMP JUMPDEST PUSH2 0x15A6 DUP2 PUSH2 0x14F9 JUMP JUMPDEST DUP3 MSTORE POP POP JUMP JUMPDEST PUSH0 PUSH1 0x20 DUP3 ADD SWAP1 POP PUSH2 0x15BF PUSH0 DUP4 ADD DUP5 PUSH2 0x159D JUMP JUMPDEST SWAP3 SWAP2 POP POP JUMP JUMPDEST PUSH0 DUP1 PUSH0 PUSH1 0x60 DUP5 DUP7 SUB SLT ISZERO PUSH2 0x15DC JUMPI PUSH2 0x15DB PUSH2 0x149B JUMP JUMPDEST JUMPDEST PUSH0 PUSH2 0x15E9 DUP7 DUP3 DUP8 ADD PUSH2 0x14E5 JUMP JUMPDEST SWAP4 POP POP PUSH1 0x20 PUSH2 0x15FA DUP7 DUP3 DUP8 ADD PUSH2 0x14E5 JUMP JUMPDEST SWAP3 POP POP PUSH1 0x40 PUSH2 0x160B DUP7 DUP3 DUP8 ADD PUSH2 0x1518 JUMP JUMPDEST SWAP2 POP POP SWAP3 POP SWAP3 POP SWAP3 JUMP JUMPDEST PUSH0 PUSH1 0xFF DUP3 AND SWAP1 POP SWAP2 SWAP1 POP JUMP JUMPDEST PUSH2 0x162A DUP2 PUSH2 0x1615 JUMP JUMPDEST DUP3 MSTORE POP POP JUMP JUMPDEST PUSH0 PUSH1 0x20 DUP3 ADD SWAP1 POP PUSH2 0x1643 PUSH0 DUP4 ADD DUP5 PUSH2 0x1621 JUMP JUMPDEST SWAP3 SWAP2 POP POP JUMP JUMPDEST PUSH0 PUSH1 0x20 DUP3 DUP5 SUB SLT ISZERO PUSH2 0x165E JUMPI PUSH2 0x165D PUSH2 0x149B JUMP JUMPDEST JUMPDEST PUSH0 PUSH2 0x166B DUP5 DUP3 DUP6 ADD PUSH2 0x14E5 JUMP JUMPDEST SWAP2 POP POP SWAP3 SWAP2 POP POP JUMP JUMPDEST PUSH2 0x167D DUP2 PUSH2 0x14BE JUMP JUMPDEST DUP3 MSTORE POP POP JUMP JUMPDEST PUSH0 PUSH1 0x20 DUP3 ADD SWAP1 POP PUSH2 0x1696 PUSH0 DUP4 ADD DUP5 PUSH2 0x1674 JUMP JUMPDEST SWAP3 SWAP2 POP POP JUMP JUMPDEST PUSH0 PUSH1 0x20 DUP3 DUP5 SUB SLT ISZERO PUSH2 0x16B1 JUMPI PUSH2 0x16B0 PUSH2 0x149B JUMP JUMPDEST JUMPDEST PUSH0 PUSH2 0x16BE DUP5 DUP3 DUP6 ADD PUSH2 0x1518 JUMP JUMPDEST SWAP2 POP POP SWAP3 SWAP2 POP POP JUMP JUMPDEST PUSH0 DUP1 PUSH1 0x40 DUP4 DUP6 SUB SLT ISZERO PUSH2 0x16DD JUMPI PUSH2 0x16DC PUSH2 0x149B JUMP JUMPDEST JUMPDEST PUSH0 PUSH2 0x16EA DUP6 DUP3 DUP7 ADD PUSH2 0x14E5 JUMP JUMPDEST SWAP3 POP POP PUSH1 0x20 PUSH2 0x16FB DUP6 DUP3 DUP7 ADD PUSH2 0x14E5 JUMP JUMPDEST SWAP2 POP POP SWAP3 POP SWAP3 SWAP1 POP JUMP JUMPDEST PUSH32 0x4E487B7100000000000000000000000000000000000000000000000000000000 PUSH0 MSTORE PUSH1 0x22 PUSH1 0x4 MSTORE PUSH1 0x24 PUSH0 REVERT JUMPDEST PUSH0 PUSH1 0x2 DUP3 DIV SWAP1 POP PUSH1 0x1 DUP3 AND DUP1 PUSH2 0x1749 JUMPI PUSH1 0x7F DUP3 AND SWAP2 POP JUMPDEST PUSH1 0x20 DUP3 LT DUP2 SUB PUSH2 0x175C JUMPI PUSH2 0x175B PUSH2 0x1705 JUMP JUMPDEST JUMPDEST POP SWAP2 SWAP1 POP JUMP JUMPDEST PUSH0 PUSH1 0x40 DUP3 ADD SWAP1 POP PUSH2 0x1775 PUSH0 DUP4 ADD DUP6 PUSH2 0x1674 JUMP JUMPDEST PUSH2 0x1782 PUSH1 0x20 DUP4 ADD DUP5 PUSH2 0x159D JUMP JUMPDEST SWAP4 SWAP3 POP POP POP JUMP JUMPDEST PUSH0 PUSH1 0x60 DUP3 ADD SWAP1 POP PUSH2 0x179C PUSH0 DUP4 ADD DUP7 PUSH2 0x1674 JUMP JUMPDEST PUSH2 0x17A9 PUSH1 0x20 DUP4 ADD DUP6 PUSH2 0x1674 JUMP JUMPDEST PUSH2 0x17B6 PUSH1 0x40 DUP4 ADD DUP5 PUSH2 0x159D JUMP JUMPDEST SWAP5 SWAP4 POP POP POP POP JUMP JUMPDEST PUSH0 DUP2 MLOAD SWAP1 POP PUSH2 0x17CC DUP2 PUSH2 0x1502 JUMP JUMPDEST SWAP3 SWAP2 POP POP JUMP JUMPDEST PUSH0 PUSH1 0x20 DUP3 DUP5 SUB SLT ISZERO PUSH2 0x17E7 JUMPI PUSH2 0x17E6 PUSH2 0x149B JUMP JUMPDEST JUMPDEST PUSH0 PUSH2 0x17F4 DUP5 DUP3 DUP6 ADD PUSH2 0x17BE JUMP JUMPDEST SWAP2 POP POP SWAP3 SWAP2 POP POP JUMP JUMPDEST PUSH32 0x4E487B7100000000000000000000000000000000000000000000000000000000 PUSH0 MSTORE PUSH1 0x11 PUSH1 0x4 MSTORE PUSH1 0x24 PUSH0 REVERT JUMPDEST PUSH0 PUSH2 0x1834 DUP3 PUSH2 0x14F9 JUMP JUMPDEST SWAP2 POP PUSH2 0x183F DUP4 PUSH2 0x14F9 JUMP JUMPDEST SWAP3 POP DUP3 DUP3 ADD SWAP1 POP DUP1 DUP3 GT ISZERO PUSH2 0x1857 JUMPI PUSH2 0x1856 PUSH2 0x17FD JUMP JUMPDEST JUMPDEST SWAP3 SWAP2 POP POP JUMP JUMPDEST PUSH0 PUSH2 0x1867 DUP3 PUSH2 0x14F9 JUMP JUMPDEST SWAP2 POP PUSH2 0x1872 DUP4 PUSH2 0x14F9 JUMP JUMPDEST SWAP3 POP DUP3 DUP3 SUB SWAP1 POP DUP2 DUP2 GT ISZERO PUSH2 0x188A JUMPI PUSH2 0x1889 PUSH2 0x17FD JUMP JUMPDEST JUMPDEST SWAP3 SWAP2 POP POP JUMP JUMPDEST PUSH0 PUSH1 0x40 DUP3 ADD SWAP1 POP PUSH2 0x18A3 PUSH0 DUP4 ADD DUP6 PUSH2 0x1674 JUMP JUMPDEST PUSH2 0x18B0 PUSH1 0x20 DUP4 ADD DUP5 PUSH2 0x1674 JUMP JUMPDEST SWAP4 SWAP3 POP POP POP JUMP INVALID LOG2 PUSH5 0x6970667358 0x22 SLT KECCAK256 PUSH14 0x2E59DA16F86324F25271ABCB9752 MLOAD LOG0 EXTCODECOPY PUSH12 0xC07BE4156C57448C6637F048 0xD0 PUSH5 0x736F6C6343 STOP ADDMOD AND STOP CALLER "
				},
				"gasEstimates": {
					"creation": {
						"codeDepositCost": "1276200",
						"executionCost": "infinite",
						"totalCost": "infinite"
					},
					"external": {
						"": "infinite",
						"VERSION()": "infinite",
						"acceptOwnership()": "54738",
						"allowance(address,address)": "infinite",
						"approve(address,uint256)": "infinite",
						"balanceOf(address)": "infinite",
						"decimals()": "2489",
						"deprecated()": "2562",
						"issue(address,uint256)": "infinite",
						"name()": "infinite",
						"owner()": "2538",
						"pendingOwner()": "2537",
						"redeem(uint256)": "infinite",
						"renounceOwnership()": "infinite",
						"symbol()": "infinite",
						"totalSupply()": "2515",
						"transfer(address,uint256)": "infinite",
						"transferFrom(address,address,uint256)": "infinite",
						"transferOwnership(address)": "infinite",
						"upgradeContract(address)": "infinite",
						"upgradedToken()": "2596"
					}
				},
				"methodIdentifiers": {
					"VERSION()": "ffa1ad74",
					"acceptOwnership()": "79ba5097",
					"allowance(address,address)": "dd62ed3e",
					"approve(address,uint256)": "095ea7b3",
					"balanceOf(address)": "70a08231",
					"decimals()": "313ce567",
					"deprecated()": "0e136b19",
					"issue(address,uint256)": "867904b4",
					"name()": "06fdde03",
					"owner()": "8da5cb5b",
					"pendingOwner()": "e30c3978",
					"redeem(uint256)": "db006a75",
					"renounceOwnership()": "715018a6",
					"symbol()": "95d89b41",
					"totalSupply()": "18160ddd",
					"transfer(address,uint256)": "a9059cbb",
					"transferFrom(address,address,uint256)": "23b872dd",
					"transferOwnership(address)": "f2fde38b",
					"upgradeContract(address)": "eb2c0223",
					"upgradedToken()": "f62babdf"
				}
			},
			"storageLayout": {
				"storage": [
					{
						"astId": 303,
						"contract": "contracts/Token.sol:RuthenToken",
						"label": "_balances",
						"offset": 0,
						"slot": "0",
						"type": "t_mapping(t_address,t_uint256)"
					},
					{
						"astId": 309,
						"contract": "contracts/Token.sol:RuthenToken",
						"label": "_allowances",
						"offset": 0,
						"slot": "1",
						"type": "t_mapping(t_address,t_mapping(t_address,t_uint256))"
					},
					{
						"astId": 784,
						"contract": "contracts/Token.sol:RuthenToken",
						"label": "upgradedToken",
						"offset": 0,
						"slot": "2",
						"type": "t_address"
					},
					{
						"astId": 8,
						"contract": "contracts/Token.sol:RuthenToken",
						"label": "_owner",
						"offset": 0,
						"slot": "3",
						"type": "t_address"
					},
					{
						"astId": 156,
						"contract": "contracts/Token.sol:RuthenToken",
						"label": "_pendingOwner",
						"offset": 0,
						"slot": "4",
						"type": "t_address"
					},
					{
						"astId": 518,
						"contract": "contracts/Token.sol:RuthenToken",
						"label": "name",
						"offset": 0,
						"slot": "5",
						"type": "t_string_storage"
					},
					{
						"astId": 520,
						"contract": "contracts/Token.sol:RuthenToken",
						"label": "symbol",
						"offset": 0,
						"slot": "6",
						"type": "t_string_storage"
					},
					{
						"astId": 522,
						"contract": "contracts/Token.sol:RuthenToken",
						"label": "totalSupply",
						"offset": 0,
						"slot": "7",
						"type": "t_uint256"
					},
					{
						"astId": 524,
						"contract": "contracts/Token.sol:RuthenToken",
						"label": "decimals",
						"offset": 0,
						"slot": "8",
						"type": "t_uint8"
					}
				],
				"types": {
					"t_address": {
						"encoding": "inplace",
						"label": "address",
						"numberOfBytes": "20"
					},
					"t_mapping(t_address,t_mapping(t_address,t_uint256))": {
						"encoding": "mapping",
						"key": "t_address",
						"label": "mapping(address => mapping(address => uint256))",
						"numberOfBytes": "32",
						"value": "t_mapping(t_address,t_uint256)"
					},
					"t_mapping(t_address,t_uint256)": {
						"encoding": "mapping",
						"key": "t_address",
						"label": "mapping(address => uint256)",
						"numberOfBytes": "32",
						"value": "t_uint256"
					},
					"t_string_storage": {
						"encoding": "bytes",
						"label": "string",
						"numberOfBytes": "32"
					},
					"t_uint256": {
						"encoding": "inplace",
						"label": "uint256",
						"numberOfBytes": "32"
					},
					"t_uint8": {
						"encoding": "inplace",
						"label": "uint8",
						"numberOfBytes": "1"
					}
				}
			},
			"userdoc": {
				"kind": "user",
				"methods": {},
				"version": 1
			}
		}
	}
}